:020000040800F2
:100000000862002009020008834200084F3D0008F2
:10001000814200085523000829460008000000001E
:1000200000000000000000000000000087420008FF
:100030008F23000800000000854200087544000876
:1000400023020008230200082302000823020008FC
:10005000230200082302000891230008230200085D
:100060002302000823020008230200085923000885
:1000700023020008230200082302000823020008CC
:1000800023020008230200082302000823020008BC
:1000900023020008230200082302000823020008AC
:1000A000230200082302000823020008230200089C
:1000B000230200082302000823020008230200088C
:1000C000230200082302000823020008230200087C
:1000D000230200082302000823020008230200086C
:1000E00097230008230200082302000823020008C7
:1000F000230200082302000823020008230200084C
:10010000230200082302000823020008230200083B
:10011000230200082302000823020008230200082B
:10012000230200082302000823020008230200081B
:100130004B1C012B98BF70472DE9F003911C9B08C5
:10014000B1F80480B1F802900A8831F802CC8044FA
:10015000814402448444D9F80070D8F800601568DE
:10016000DCF80040C9F80060C8F80070CCF8005016
:100170001460D9F80470D8F804605568DCF80440BD
:10018000C9F80460C8F80470CCF804505460083111
:100190005B1ED5D1BDE8F00370474B1C012B98BF07
:1001A00070472DE9F003911C9B08B1F80480B1F869
:1001B00002900A8831F802CC00EB580800EB59098C
:1001C00000EB520200EB5C0CD9F80070D8F800602C
:1001D0001568DCF80040C9F80060C8F80070CCF879
:1001E0000050146008315B1EDFD1BDE8F00370479A
:1001F000DFF810D001F0FAFF004800476D4F00080B
:10020000AFF3008008620020064880470648004798
:10021000FEE7FEE7FEE7FEE7FEE7FEE7FEE7FEE7B6
:10022000FEE7FEE7F3440008F1010008002A08BFDA
:1002300070472DE9F04715460E4604464FF000087A
:1002400054F8047B54F8040B014601F005FC814688
:100250003946084601F000FC494601F0A5FB374647
:10026000361D10F1FF4F28BFC7F8008002D205F0FD
:1002700047F838606D1EE3D1BDE8F0872DE9F04FF7
:100280000E4643690088D6E90017A0F101088DB039
:10029000144603F10805084601F086FB81463946FD
:1002A000084601F081FB07460146484601F07CFB09
:1002B0004FF0FF3101F040FC44F8040B394648464A
:1002C00001F0C4FB4FF0FF3101F036FC06EBC8072C
:1002D00044F8040B16F10806D7E900A9D6E900B0E6
:1002E000049055F8040B079055F8040B06905946F6
:1002F000504601F0ABFB01904846049901F054FBD5
:1003000000900199079801F0A7FB099001990698C0
:1003100001F0A2FB01900099079801F09DFB079066
:100320000099069801F098FB00905146584601F05C
:100330003BFB099901F038FB009901F035FB4FF0C8
:10034000FF3101F0F9FB44F8040B4946049801F031
:100350007DFB019901F028FB079901F077FB4FF035
:10036000FF3101F0E9FB0836083F44F8040BB8F10F
:100370000108B1D10DB0BDE8F08F2DE9F04F8846EE
:100380004169D8E90079008801F10805461E8FB05F
:1003900014464946384601F007FB4FF0FF3101F0A3
:1003A000CBFB44F8040B4946384601F04FFB4FF0B5
:1003B000FF3101F0C1FB08EBC60744F8040B08F15C
:1003C0000808002E04BF0FB0BDE8F08F78680790D2
:1003D000D7F800B0D8F800000190D8F804000090D9
:1003E00055F804AB594655F8049B019801F02EFBD3
:1003F00003900799009801F0D7FA029050460399AC
:1004000001F02AFB0B904846029901F025FB0A9067
:100410004846039901F020FB03905046029901F0F1
:100420001BFB81465946019801F0BEFA0B9901F079
:100430000DFB0A9901F00AFB4FF0FF3101F07CFB44
:1004400044F8040B0799009801F000FB039901F0B0
:10045000ABFA494601F0FAFA4FF0FF3101F06CFBBC
:1004600044F8040B761EA7F1080708F10808ADD17F
:100470000FB0BDE8F08F2DE9F0410446008A1D0061
:100480004FEA500016460F4620800AD02046FFF75C
:1004900074FF2A4631462046BDE8F041012300F0B2
:1004A0008DBD01232A46204600F088FD324639469C
:1004B0002046BDE8F041E1E64A08002302800182BF
:1004C000B2F5807F31D008DC102A4FD0202A45D0E9
:1004D000402A3BD0802A31D008E0B2F5007F1BD003
:1004E000B2F5806F0FD0B2F5006F03D04FF0FF333D
:1004F000184670474FF46E628281214A8260214A19
:100500002149426039E04FF4E16282811F4A8260F2
:100510001F4A2049426030E04FF4E07282811E4A57
:1005200082601E4A1E49426027E04FF4DC728281DD
:100530001C4A82601C4A1D4942601EE0D022828112
:100540001B4A82601B4A1C49426016E038228281A5
:100550001A4A82601A4A1B4942600EE030228281A8
:10056000194A8260194A1A49426006E014228281BF
:10057000184A8260184A194942604161B8E7000090
:1005800080FA0008E8A20008C057010870EC0008D3
:10059000E8820008C0370108F0E80008E8720008A7
:1005A000C027010880E50008E86A0008C01F0108AC
:1005B000E0E30008E8660008C01B010870E30008DB
:1005C000E8640008C019010810E30008E8630008A7
:1005D000C0180108E8E20008686300084018010834
:1005E0002DE9FF5F002750F8046B924688460546C8
:1005F0004C1E17D0B4F1004F1BD2002CC4BF4FF0DB
:100600000009A3460EDD3046296801F07FFC03D2C5
:1006100008EB09002E68071B2D1D09F10109BBF12C
:10062000010BF0D1CAF800600398076004B0BDE880
:10063000F09F55F8049B3046494601F067FC3CBFEB
:100640004E46A8EB0407641EF3D1EBE72DE9FF5FEC
:10065000002750F8046B9246884605464C1E17D07A
:10066000B4F1004F1BD2002CC4BF4FF00009A346C9
:100670000EDD3046296801F053FC03D208EB090077
:100680002E68071B2D1D09F10109BBF1010BF0D1EB
:10069000CAF800600398076004B0BDE8F09F55F801
:1006A000049B3046494601F03BFC3CBF4E46A8EB5C
:1006B0000407641EF3D1EBE72DE9F34F9BB00C4622
:1006C0001B98008801EB80051B99400804EB80060D
:1006D000D1F804800590CDE90B5405EB80075FEA63
:1006E000900900F004812368029362681792A2685F
:1006F0001A92E268159229680E9168680690A868B7
:100700001290E86811903068189072680792B26889
:100710001692F2680392D7E900A01390B86810907F
:100720001846D7F80CB001F03FF944F8040B0699CD
:10073000179801F039F944F8040B12991A9801F04E
:1007400033F944F8040B1199159801F02DF944F888
:10075000040B0E99029801F079F90E9006991798FA
:1007600001F074F9069012991A9801F06FF912903D
:100770001199159801F06AF911905146189801F0F5
:1007800013F946F8040B1399079801F00DF946F890
:10079000040B1099169801F007F946F8040B594616
:1007A000039801F001F946F8040B5046189901F03E
:1007B0004DF914900799139801F048F91390169980
:1007C000109801F043F910905846039901F03EF952
:1007D000824658F8040B019058F804BB01990E9812
:1007E00001F03AF903905946069801F035F9029064
:1007F0000199069801F030F9069059460E9801F0DB
:100800002BF90790DDE9021001F0CEF845F8040B52
:10081000DDE9060101F01AF945F8040B5946149870
:1008200001F01AF903900199139801F015F902905B
:100830005946139801F010F906900199149801F0A7
:100840000BF98346DDE9021001F000F947F8040BCB
:100850005946069801F0A8F847F8040B58F8040B1D
:10086000019058F804BB0199129801F0F5F8039033
:100870005946119801F0F0F802900199119801F091
:10088000EBF806905946129801F0E6F80790DDE97A
:10089000021001F089F845F8040BDDE9060101F0CA
:1008A000D5F845F8040B5946109801F0D5F8039097
:1008B0005046019901F0D0F802905046594601F097
:1008C000CBF883460199109801F0C6F88246DDE91D
:1008D000021001F0BBF847F8040B5146584601F0EE
:1008E00063F847F8040BB9F101097FF4FCAE1B98DB
:1008F0000223059942680C9800F0F8FB1B980599B3
:10090000022342680B981DB0BDE8F04F00F0EEBB2B
:100910002DE9F34FA7B00F4627980088400801EB58
:10092000800404EB800606EB800518961A95CDE945
:100930001D412799A5F1040A0AEB8009496840087E
:1009400006900A910420199006200E910D911590A1
:10095000306801903868A4F1040BA6F104080090F7
:10096000019901F021F80290DDE9000101F06EF833
:1009700003907068059078680190059901F014F86B
:1009800000900599019801F061F80190606810905D
:100990000146039801F008F869680C9101F056F8D7
:1009A000169020680F900146019801F04FF82968D1
:1009B000059100F0F9FF11900F99029801F046F8A7
:1009C000059901F043F814901099009801F03EF851
:1009D0000C9901F03BF80B901099039801F036F850
:1009E0000C9900F0E1FF0C900F99019800F0DCFFEA
:1009F000059901F02BF812900F99029800F0D4FF9E
:100A0000059900F0D1FF47F8040B6168009800F0E9
:100A1000CBFF696800F0C8FF47F8040B169844F84C
:100A2000040B119844F8040B149846F8040B0B9827
:100A300046F8040B0C9845F8040B129845F8040B83
:100A40000A9901F108000D990A9001F110000E9920
:100A50000D9001F118000E900698801E400820901D
:100A600000F0C6813068019038680090019900F06C
:100A70009BFF0290DDE9000100F0E8FF0390706841
:100A8000059078680190059900F08EFF0090059917
:100A9000019800F0DBFF019060680C90014603981C
:100AA00000F082FF6968109100F0D0FF1690206876
:100AB0000F900146019800F0C9FF2968059100F0E8
:100AC00073FF11900F99029800F0C0FF059900F094
:100AD000BDFF14900C99009800F0B8FF109900F039
:100AE000B5FF0B900C99039800F0B0FF109900F03F
:100AF0005BFF0C900F99019800F056FF059900F0EC
:100B0000A5FF12900F99029800F04EFF059900F092
:100B10004BFF47F8040B6168009800F045FF6968D7
:100B200000F042FF47F8040B5AF8040C02905BF8FF
:100B3000040C0190029900F037FF0090DDE90101FB
:100B400000F084FF0190DAF800000590DBF8000067
:100B50000390059900F028FF02900599039800F092
:100B600075FF10900390D9F800000590D8F80000A8
:100B70001390059900F06AFF2290019900F014FF8C
:100B8000269058F8041C1098109100F05FFF59F857
:100B9000041C0F9100F008FF23901099009800F0BA
:100BA00055FF0F9900F052FF24901399029800F01E
:100BB0004DFF059900F04AFF21900199229800F01D
:100BC00045FF2290DDE90F0100F040FF039900F09E
:100BD0003DFF17901399029800F0E6FE059900F08A
:100BE000E3FECBF80000ABF104011F9158F8041CA0
:100BF000009800F0D9FE59F8041C00F0D5FE1F99AA
:100C0000ABF1080B08600A98006801900A984168E7
:100C1000009108300A900199169800F01DFF10907D
:100C20000099119800F018FF0F900199119800F0A9
:100C300013FF03900099169800F00EFF0290DDE973
:100C40000F1000F0B1FE44F8040BDDE9021000F0D3
:100C5000FDFE44F8040B0099239800F0FDFE10906F
:100C60000199269800F0F8FE0F900099269800F060
:100C7000F3FE03900199239800F0EEFE0290DDE967
:100C80000F1000F0E3FEA8F10401C8F800001C9169
:100C9000DDE9021000F088FE1C99A8F10808086040
:100CA0000D980D99006801900D9840680090199872
:100CB00001EB80000D900199149800F0CDFE10908A
:100CC00000990B9800F0C8FE0F9001990B9800F066
:100CD000C3FE03900099149800F0BEFE0290DDE977
:100CE0000F1000F061FE46F8040BDDE9021000F081
:100CF000ADFE46F8040B2198019980F0004000F009
:100D0000ABFE10900099249800F0A6FE0F90019978
:100D1000249800F0A1FE03900099219800F09CFE19
:100D20000290DDE90F1000F091FEAAF10401CAF86B
:100D300000000991DDE9020100F088FE0999AAF19D
:100D4000080A08600E98006801900E98159940688E
:100D500000900E9800EB81000E9001990C9800F025
:100D60007BFE10900099129800F076FE0F9001998A
:100D7000129800F071FE039000990C9800F06CFE40
:100D80000290DDE90F1000F00FFE45F8040BDDE9DD
:100D9000021000F05BFE45F8040B0099179800F074
:100DA0005BFE10900199229800F056FE0F9000997A
:100DB000229800F051FE03900199179800F04CFE24
:100DC0000290DDE90F1000F041FEA9F10401C9F81D
:100DD00000001B91DDE9021000F0E6FD1B99A9F16E
:100DE000080908602098401E20907FF43BAE00BFA9
:100DF000D6F80080D7F800904146484600F0D4FD70
:100E000002904146484600F021FE0390D6F8049037
:100E1000D7F804804946404600F0C6FD0090494698
:100E2000404600F013FE019060680F900146039861
:100E300000F0BAFDD5F80490494600F007FE83465D
:100E4000206809900146019800F000FE296805918C
:100E500000F0AAFD82460999029800F0F7FD059975
:100E600000F0F4FD80460F99009800F0EFFD494630
:100E700000F0ECFD0B900F99039800F0E7FD494658
:100E800000F092FD0C900999019800F08DFD0599F4
:100E900000F0DCFD81460999029800F085FD059976
:100EA00000F082FD38606168009800F07DFD69689F
:100EB00000F07AFD78600A98D0E9007000905846FA
:100EC000394600F0C9FD10905046009900F0C4FD6D
:100ED0000F905046394600F0BFFD0746584600992E
:100EE00000F0BAFD8246DDE90F1000F05DFD2060E4
:100EF0005146384600F0AAFD60600D98D0E90047E1
:100F00004046214600F0A8FD834639460B9800F084
:100F1000A3FD824621460B9800F09EFD0446404604
:100F2000394600F099FD07465146584600F03CFD11
:100F300030603946204600F089FD70600E98D0E997
:100F4000004621460C9800F087FD80464846314611
:100F500000F082FD07464846214600F07DFD04462C
:100F600031460C9800F078FD06463946404600F0C0
:100F70001BFD28603146204600F068FD6860279818
:100F80000423069942681E9800F0B0F827980423BD
:100F9000069942681D9800F0A9F82798042306993D
:100FA0004268189800F0A2F827980699042342682E
:100FB0001A9829B0BDE8F04F00F098B82DE9F0413B
:100FC0000588984617460C460646012A18D1201D6A
:100FD000B5B1083815F0010F04D050F8081F81F0A2
:100FE0000041016069080BD050F8082F491E82F0BB
:100FF000004240F8082B026882F000420260F3D100
:10100000B5F5807F1BD008DC102D13D0202D16D015
:10101000402D19D0802D0DD01CE0B5F5007F13D0E8
:10102000B5F5806F06D0B5F5006F08D0B5F5805FD7
:101030000AD00FE021463046FFF73EFB0AE021468A
:101040003046FFF765FC05E029460123204672681B
:1010500000F04CF8B8F1000F04D0B1892046B26816
:10106000FFF766F8012F18BFBDE8F081284600F0B1
:1010700000FF01464FF07E5000F020FD0646002D97
:1010800008BFBDE8F081083C15F0010F0CD03146D7
:10109000A06800F0E1FCA060E068314680F000400C
:1010A00000F0DAFCE06008346D0808BFBDE8F081AC
:1010B0003146A06800F0D0FCA060E068314680F0C6
:1010C000004000F0C9FCE0603146206900F0C4FC3B
:1010D00020616069314680F0004000F0BDFC606135
:1010E00010346D1EE4D1BDE8F08100002DE9FF4F02
:1010F000B3B00446349D2895ED08002606EB050A9A
:101100000AEB050909EB050808EB050B0BEB0500DD
:101110004719229078192A9054F83B00039054F80C
:1011200036000290039900F03FFC0090DDE90201D7
:1011300000F08CFC0990229854F83000039054F889
:101140003A000290039900F02FFC0590DDE90201BE
:1011500000F07CFC089054F83700039054F83900F4
:101160000290039900F020FC1590DDE9020100F0E7
:101170006DFC14902A9854F83000049054F838000C
:101180000390049900F010FC0290DDE9030100F0E7
:101190005DFC13901599009800F058FC0490159987
:1011A000009800F001FC00900299059800F04EFCB8
:1011B00015900299059800F0F7FB014605900098FC
:1011C00000F0F2FB44F836000599009800F03EFC70
:1011D00044F83B0004EBCB000D90406804EBC60BD9
:1011E0000390DBF804000290039900F0DDFB00900F
:1011F000DDE9020100F02AFC0690229804EBC00011
:1012000016904068039004EBCA000E90406802906C
:10121000039900F0C9FB0590DDE9020100F016FC1E
:10122000079004EBC7001A904068039004EBC900D4
:10123000199040680290039900F0B6FB1090DDE928
:10124000020100F003FC0F902A9804EBC0001890F4
:101250004068039004EBC800179040680B90039916
:1012600000F0A2FB029003990B9800F0EFFB1290A4
:101270001099009800F0EAFB03901099009800F094
:1012800093FB00900299059800F0E0FB1090029902
:10129000059800F089FB01460590009800F084FB5A
:1012A000CBF804000599009800F0D0FB01460D989A
:1012B00041601099049800F077FB44F839001099C8
:1012C000049800F0C3FB44F837001599039800F028
:1012D000BDFB0146199841601599039800F064FB25
:1012E00001461A9841601399089800F0AFFBFE4F31
:1012F000394600F0B1FB81461399089800F054FB81
:10130000394600F0A9FB08901299079800F09EFB5F
:10131000394600F0A1FB83461299079800F044FB80
:10132000394600F099FB07904946099800F08EFB7A
:1013300004904946099800F037FB099008991498E1
:1013400000F084FB13900899149800F02DFB149082
:101350005946069800F07AFB03905946069800F02B
:1013600023FB069007990F9800F070FB81460799C0
:101370000F9800F019FB83460146099800F014FB12
:1013800044F83A005946099800F060FB01462A9853
:1013900044F830104946049800F006FB01462298B4
:1013A00044F830104946049800F050FB44F83800E7
:1013B0001499069800F04AFB01460E984160149972
:1013C000069800F0F1FA01461898416013990398C5
:1013D00000F03CFB0146169841601399039800F019
:1013E000E3FA0146179841602898064434988642EB
:1013F000FFF484AE082D3CBF37B0BDE8F08F00206D
:101400001D9001201B9036991D98359F08441D9012
:10141000DDF874804200161857F838700E97359F23
:10142000810001EB000C57F832700C97359F0CEBE4
:101430000003184457F836702097359F57F83170DD
:101440001997359F57F83C700B97359F57F83370B5
:101450002597359F57F830702997359F07EBC807B8
:101460007F681797359F07EBC20207EBC1015268EF
:101470001A9207EBC60207EBC00052681E92496839
:10148000189107EBCC011B9E4968279107EBC3011C
:101490004968239140681C90771907EB050808EB11
:1014A000050909EB050A0AEB050B0BEB050021907A
:1014B00028442A9054F83A00039054F836000290D9
:1014C000039900F071FA0090DDE9020100F0BEFA24
:1014D000099054F83B00039054F8370002900399A8
:1014E00000F062FA0590DDE9020100F0AFFA089021
:1014F000219854F83000039054F838000290039972
:1015000000F052FA1590DDE9020100F09FFA149004
:101510002A9854F83000049054F839000390049944
:1015200000F042FA0290DDE9030100F08FFA139017
:101530001599009800F08AFA04901599009800F027
:1015400033FA00900299059800F080FA15900299FC
:10155000059800F029FA01460590009800F024FA59
:1015600044F836000599009800F070FA059004EBF5
:10157000CA002B904068039004EBC60016904068A8
:101580000090039900F010FA02900399009800F07F
:101590005DFA069004EBCB002D904068039004EBBD
:1015A000C7002C9040680090039900F0FDF90D9061
:1015B0000399009800F04AFA0790219804EBC000C4
:1015C0002F904068039004EBC8002E904068009074
:1015D000039900F0E9F910900399009800F036FAA9
:1015E0000F902A9804EBC00030904068129004EBF2
:1015F000C900319040680390129900F0D5F900902D
:101600001299039800F022FA12901099029800F0B3
:101610001DFA03901099029800F0C6F90290009903
:101620000D9800F013FA109000990D9800F0BCF995
:101630000D901099049800F0B7F900901099049853
:1016400000F004FA04900D99029800F0ADF90146FB
:10165000169841600D99029800F0F8F90D901599CF
:10166000039800F0F3F902901599039800F09CF9A3
:1016700003900599199800F0EFF916900D991898B4
:1016800000F0EAF915900D99199800F0E5F90D9020
:101690000599189800F0E0F90590DDE9151000F0C3
:1016A00083F944F83A0005990D9800F0CFF9014606
:1016B0002B98416000990C9800F0CEF91690029991
:1016C0001A9800F0C9F9824602990C9800F0C4F902
:1016D0000D9000991A9800F0BFF9059051461698A0
:1016E00000F062F902E00000F304353F44F83800EE
:1016F00005990D9800F0AAF901462E9841600499C9
:10170000259800F0A9F982460399239800F0A4F9DE
:1017100080460399259800F09FF90D90049923982D
:1017200000F09AF905904146504600F03DF9014617
:10173000219844F8301005990D9800F087F901467A
:101740002F9841601399089800F080F9844900F0BF
:1017500083F980461399089800F026F9804900F033
:101760007BF982461299079800F070F97C4900F0E5
:1017700073F902901299079800F016F9784900F071
:101780006BF907904146099800F060F904904146D2
:10179000099800F009F909905146149800F056F99B
:1017A00013905146149800F0FFF81490029906988F
:1017B00000F04CF903900299069800F0F5F80690B5
:1017C00007990F9800F042F9824607990F9800F0A8
:1017D000EBF880460146099800F0E6F80090414693
:1017E000099800F033F909905146049800F0DCF8AC
:1017F00008905146049800F029F90490149906982D
:1018000000F024F980461499069800F0CDF806906F
:101810001399039800F01AF907901399039800F0B0
:10182000C3F8039000990E9800F016F916904146FF
:10183000179800F011F9824641460E9800F00CF915
:101840000D900099179800F007F9804651461698B8
:1018500000F0AAF844F8370041460D9800F0F6F879
:1018600001462C9841600999299800F0F5F88246C4
:1018700006991C9800F0F0F880460699299800F027
:10188000EBF80D9009991C9800F0E6F807464146E0
:10189000504600F089F801462A9844F8301039463D
:1018A0000D9800F0D3F801463098416008990B98E4
:1018B00000F0D2F880460799279800F0CDF88246CC
:1018C00007990B9800F0C8F80D900899279800F038
:1018D000C3F807465146404600F066F844F83B001E
:1018E00039460D9800F0B2F801462D9841600499F0
:1018F000209800F0B1F8834603991E9800F0ACF8E8
:1019000082460399209800F0A7F8804604991E9813
:1019100000F0A2F807465146584600F045F844F852
:1019200039003946404600F091F80146319841604F
:101930002898064434988642FFF4AEAD1B98401CAC
:101940001B9085423FF65FAD36984FF6FF7101EA76
:10195000C0003690072D3FF6CEAB37B0BDE8F08F14
:10196000F304353F202A04DB203A21FA02F000215B
:10197000704721FA02F3D040C2F12002914008439F
:1019800019467047D2B201E000F8012B491EFBD284
:1019900070470022F6E710B513460A46044619467A
:1019A000FFF7F0FF204610BDF0B480EA0102D40F2B
:1019B0004200B2EB410F02D20246084611464A00ED
:1019C00042D0C30DDDB2C1F3C752AD1A202D35DAB6
:1019D000C1F3160141F4000204B15242C5F12006E0
:1019E00002FA06F12A411044B3EBD05F23D0C4B110
:1019F000012DA0EBC35009DCF0BC4FF0004202EA1D
:101A0000C352DBB200F5000000F005BB400000F15E
:101A1000807000EBC350A0F1807040EAD1704900A3
:101A200009E0490841EAC071A0EBC35000F500008D
:101A3000400800EBC350F0BC00F0E4BA6142012260
:101A400002EB4101001BF6E7F0BC704781F000415A
:101A5000AAE780F00040A7E780EA010210B502F093
:101A60000043400022D04A001FD0010E01EB12615A
:101A7000C0F35600C2F3560240F4000042F40002E4
:101A8000A0FB022000047F39140400D0401C50EA5F
:101A9000124001D44000491EC2B20C0604EBD01023
:101AA000401C4008802A02D003E0002010BD20F036
:101AB0000100002900DA0020184310BD30B480EA8C
:101AC000010202F0004530F0004221F0004013D046
:101AD00090B1C30DD40DC2F31601C0F31600E41A81
:101AE00041F4000140F400027D34914201D3641CB2
:101AF00000E04900002C02DA30BC002070474FF4AF
:101B000000000023914201D3891A034340084FEAA1
:101B10004101F7D151B1914202D14FF0004105E0AE
:101B200002D24FF0010101E06FF0010103EBC4505C
:101B3000284430BC00F066BA420005D0C0F3C7525A
:101B40005242914201DC0020704700EBC1507047C7
:101B50002DE9FE4F804681EA0300C00F0C4600903D
:101B600021F0004123F00045B8EB0200A94105D265
:101B70004046214690461C460B46024623F0004054
:101B8000104347D0270DC7F30A00C3F30A51029050
:101B9000401A019040286BDAC3F3130040F4801B15
:101BA0000098924620B10023D2EB030A63EB0B0BA3
:101BB00001985946C0F14002504600F002FA06462C
:101BC0000D4650465946019A00F00AFA10EB0800FB
:101BD0006141002487EA115284EAE7731A4340D036
:101BE000009A62B3019A012A4FEA075215DC001BE2
:101BF00061EB02014FF0004202EA0752CDE90042D8
:101C0000001C41F5801132462B4600F070FA03B0FB
:101C1000BDE8F08F40462146F9E7001B61EB020169
:101C2000001C41F5801300185B412018A2F5001735
:101C300047EB030140EAD570B6196D4111E06D081C
:101C40004FEA360645EAC0754FEA0752001B61EBC2
:101C50000201001C41F5801149084FEA30000019CB
:101C6000514132462B4603B0BDE8F04F00F030BA88
:101C70000098012240000023D0EB020263EBE073E6
:101C8000009821464FEAE074B8EB000061EB0401D4
:101C9000E9E783F000435BE781F0004158E72DE975
:101CA000FE4F81EA030404F0004421F00041009457
:101CB0004FF0000B23F0004350EA01045ED052EADB
:101CC00003045BD0C3F30A54C1F30A552C44A4F2B5
:101CD000F3340194A0FB0254C1F3130141F48011C9
:101CE000C3F3130343F4801301FB024400FB034ED0
:101CF000840A970A44EA815447EA8357A4FB076899
:101D000002958D0A05FB07854FEA932C04FB0C54C2
:101D10002705029D4FEA065847EA1637B5EB080536
:101D20006EEB070C870E920E47EA811742EA831288
:101D3000A7FB0201B6EB0B0164EB00042B0D43EA99
:101D40000C335E1844EB1C50DA465146E7FB0201A7
:101D5000C5F313044FEA0B3343EA14534FEA04323A
:101D6000019C43EA0603A4F10C040294009CCDE913
:101D700000B400F0BCF903B0BDE8F08F00200146CC
:101D8000F9E72DE9F04D81EA030404F0004B21F05E
:101D9000004514464FF0000A23F0004150EA0502C6
:101DA00020D054EA01021DD0C5F30A570246C5F3FC
:101DB0001303C1F31300C1F30A5640F4801543F432
:101DC0008013A7EB0608101BD64608F2FD3873EB0C
:101DD000050002D308F1010801E092185B41B8F157
:101DE000000F03DA00200146BDE8F08D00204FF41B
:101DF0008011064684460EE0171B73EB050705D3DA
:101E0000121B63EB050306434CEA010C49084FEA39
:101E1000300092185B4150EA0107EDD152EA03000D
:101E200012D082EA040083EA0501084305D0101BA2
:101E3000AB4106D20122002306E000224FF000430E
:101E400002E06FF0010253101AEB06004CEB085150
:101E500010EB0A0041EB0B01BDE8F04D00F038B982
:101E6000C10F80EAE0700844CA079623002100F001
:101E7000D2B896230022114600F0CDB800F00042FF
:101E800020F00040C10DC0F3160040F400007F298F
:101E900001DA00207047962903DCC1F19601C840A1
:101EA00001E096398840002AF4D04042704700F0A3
:101EB000004230F000400AD0C10D01F56071C0F35E
:101EC000160042EA0151C208400711437047002042
:101ED0000146704701F0004330B421F0004150EA60
:101EE000010206D00A0DA2F56072C1F31301002AA7
:101EF00002DC30BC00207047440F44EAC104C1003A
:101F0000E01830BC00EBC25000F07CB8002801DBC8
:101F1000C0F10040002901DBC1F10041814270475E
:101F2000002801DBC0F10040002901DBC1F10041C4
:101F30008842704730B50B4601460020202201241C
:101F400009E021FA02F59D4205D303FA02F5491B87
:101F500004FA02F52844151EA2F10102F1DC30BD9D
:101F60002DE9F05F0546002092469B4688460646CE
:101F7000814640241BE02846414647462246FFF75B
:101F8000F1FC53465A46C01A914110D311461846E7
:101F9000224600F016F82D1A67EB01084F4622463C
:101FA0000120002100F00DF817EB00094E41201E22
:101FB000A4F10104DFDC484631462A464346BDE829
:101FC000F09F202A04DB203A00FA02F1002070473B
:101FD0009140C2F1200320FA03F319439040704767
:101FE000202A06DBCB17203A41FA02F043EAE073DD
:101FF00006E041FA02F3D040C2F1200291400843CA
:10200000194670470029A8BF7047401C490008BF07
:1020100020F00100704710B4B0FA80FC00FA0CF018
:1020200050EA010404BF10BC704749B1CCF1200450
:1020300021FA04F411FA0CF118BF012121430843DD
:10204000A3EB0C01CB1D4FEA00614FEA102042BF09
:10205000002010BC704700EBC35010440029A4BFFF
:1020600010BC7047401C490008BF20F0010010BCA4
:102070007047F0B4002802DCF0BC00207047C0F3C9
:10208000C751C0F3160040F40000CA0701D1400058
:10209000491E3F2202EB6105002211464FF4000663
:1020A00026FA01F31344D418844201D8001B1A46BF
:1020B0004000491C1729F3DD5100814202D24FF044
:1020C000FF3100E0002102EBC550F0BCFFF79ABFE2
:1020D00010B5141E73F1000408DA401C41F1000130
:1020E00092185B411A4301D120F0010010BD2DE987
:1020F000F04D92469B4611B1B1FA81F202E0B0FA7E
:1021000080F220329046FFF75CFF04460F4640EA1B
:102110000A0041EA0B0153465A46084313D01146C0
:1021200053EA010019D0C8F140025046FFF71AFCEB
:1021300005460E46504659464246FFF742FF0843C1
:1021400005D0012004E020463946BDE8F08D00208E
:10215000054346EAE0762C4337430A986305E40AD0
:10216000A0EB08000022FD0A44EA47540A3002D5D9
:1021700000200146E9E7010510196941DDE908453C
:1021800000196941BDE8F04DA2E7C1F30A52C1F35D
:10219000130140F2FF3341F480119A4202DA002029
:1021A0000146704740F233439A42A2F2334202DCC6
:1021B0005242FFF7D7BBFFF704BF000030B5041E43
:1021C00071F1000404DB4FF00044404264EB010174
:1021D000141E73F1000405DB1C464FF0004352420D
:1021E00063EB0403994208BF904230BD064C074D93
:1021F00006E0E06840F0010394E8070098471034D7
:10220000AC42F6D3FDF7F8FF60980108809801080A
:1022100070B5044600688168C943C90717D1816851
:1022200021F00101816000F04BFF05460AE000BF8C
:1022300000F046FF401B022804D920688068C04394
:10224000C00706D020688068C043C007F0D00020D7
:1022500070BDA06A40F01000A062E06A40F001008A
:10226000E062012070BD10B50146406A826A12F03A
:10227000500F05D0006A026BBDE8104008461047B9
:10228000816A41F40071816201688968C1F3424149
:1022900007290CD1017B51B9816A21F480718162D7
:1022A000816AC90403D4816A41F00101816200F0AE
:1022B00001FA10BD10B5406A816A41F040018162A7
:1022C000C16A41F00401C16200F0F6F910BD10B519
:1022D000406A00F0F0F910BDF8B5002604460096FB
:1022E00000688168C943C9072DD0816841F00101A8
:1022F0008160164816490068B0FBF1F000E0401E0E
:1023000000900028FBD100F0DBFE054616E000BF80
:1023100000F0D6FE401B022810D920688068C04318
:10232000C0070BD0A06A40F01000A062E06A40F045
:102330000100E06284F824600120F8BD2068806814
:10234000C043C007E4D10020F8BD000040000020D9
:1023500040420F00FEE70000014800F00BBB000008
:10236000E050002030B590F840500124AC40C56BDF
:102370006C60046863604368102B036803D0996045
:102380000068C26030BD9A600068C16030BD7047AF
:10239000012000F07FBD4FF4005000F07BBD72B60D
:1023A000FEE700002DE9F04387B016468946054652
:1023B0000024DFF83C800CE055F8247058F8241015
:1023C0003846FFF749FB3946FFF7EEFA45F8240097
:1023D000641CB442F0D3B1B26846FEF76DF8002336
:1023E0004A4629466846FEF746F807B0BDE8F0833E
:1023F0002C5300082DE9F04116460D46FDF716FF57
:102400003046FFF736FD01462868FFF757FB0124E9
:10241000770828600AE03846FFF72BFD014655F89B
:102420002400FFF74BFB45F82400641CB442F2D3B0
:10243000BDE8F08170B505460C46EE2001F060FF66
:10244000502001F05DFF280A01F05AFFE8B201F0C8
:1024500057FF200A01F054FFE0B201F051FFFF20C6
:1024600001F04EFFFC2001F04BFFFF2001F048FF80
:10247000BDE87040FF2001F043BF2DE9F041074661
:102480001C4615460E46EE2001F03AFF552001F09D
:1024900037FF380A01F034FFF8B201F031FF300A9B
:1024A00001F02EFFF0B201F02BFF280A01F028FF07
:1024B000E8B201F025FF200A01F022FFE0B201F0AE
:1024C0001FFFFF2001F01CFFFC2001F019FFFF207F
:1024D00001F016FFBDE8F041FF2001F011BF000040
:1024E000F8B500250446009590F8240001280BD08B
:1024F000012084F824002046FFF78AFE2046FFF7DB
:10250000EBFE060002D050E00220F8BDA06A20F4E5
:10251000885040F00200A062022000F0F1FF25493F
:102520000968B1FBF0F0400000E0401E0090002878
:10253000FBD12068816841F00801816000F0C0FD96
:10254000074608E000F0BCFDC01B0A2803D920683C
:102550008068000715D4206880680007F2D42068DE
:10256000816841F00401816000F0AAFD074612E095
:1025700000F0A6FDC01B0A280DD92068806840071E
:1025800009D5A06A20F0020040F01000A06284F893
:1025900024500120F8BD206880684007E8D4A06A74
:1025A00020F0020040F00100A06284F82450304680
:1025B000F8BD000040000020F8B50024009490F819
:1025C00024202546012A12D0012280F824204A68BE
:1025D0001F23072A0DD20668776B521E02EB820278
:1025E00093409F430B6893401F43776319E0022099
:1025F000F8BD06680D2A0AD2376BD21F02EB8202A1
:1026000093409F430B6893401F43376309E0F76A89
:102610000D3A02EB820293409F430B6893401F43A5
:10262000F7620A68072306680A2A0AD3F7680A3A93
:1026300002EB420293409F438B6893401F43F76035
:1026400008E0376902EB420293409F438B68934056
:102650001F4337610A68102A01D0112A20D1124B7A
:1026600002689A4217D193681B0219D4936843F405
:10267000000393600968102912D10C490C4A0968BB
:10268000B1FBF2F101EB8101490000E0491E00912C
:102690000029FBD104E0816A41F02001816201241C
:1026A00080F824502046F8BD00240140400000205E
:1026B00040420F0070477047704700002DE9F0411D
:1026C00004004FF000057FD0A06A002628B9E6621A
:1026D00084F82460204600F081F82046FFF798FD3A
:1026E000A16AC90600D420B1A06A40F01000A0621F
:1026F0006AE0A16A21F4885141F00201A1623349E4
:1027000023688B42E16904D1B1F5402F01D14FF428
:102710000021277B4FF4807C41EA470261680A432D
:10272000A168614508D0012906D0002194F814E081
:10273000BEF1010F02D00AE06146F7E7C7B1A76A10
:1027400047F02007A762E76A47F00107E7625F6882
:1027500027F469470F435F60236899681C4F39402D
:1027600011439960A16861450BD0012909D00CE0A3
:10277000DFF860E0A7690EEB47370F4347F40061CD
:10278000E5E7218A0D05A5F580152168CB6A23F4BC
:1027900070032B43CB62216889680F4B194091422B
:1027A00008D1E662A16A21F0020141F00101A162B3
:1027B000BDE8F081A06A20F0020040F01000A062A5
:1027C000E06A40F00100E0620120F1E7003C0140D6
:1027D000FDF7E1FF00E0FFFFFE0E1FFF70B586B0C2
:1027E0000025064600950195029503950068194954
:1027F00088422DD11849886940F400708861886941
:1028000000F400700490886940F0100088618869C5
:10281000694600F0100004900320009001900F48DA
:1028200000F044FB0F4C0E48C4E900058020C4E9C9
:102830000250400020618000C4E90505C000E0614D
:10284000204600F0BBF908B1FFF7A9FD34626662CB
:1028500006B070BD0024014000100240001001408D
:1028600008000240E05000202DE9F0478946044668
:102870003B4900683B4F0E1D9046884201D0B8424C
:1028800007D1306810F4702F03D001252846BDE829
:10289000F08794F8240001280CD0012084F824004B
:1028A0002046FFF719FD05004FF0000004D084F822
:1028B0002400EBE70220EAE7A16A40F601629143B7
:1028C00041F48071A1622168B94218D1326812F4D2
:1028D000702F14D0A16A41F48011A16231684905BA
:1028E00005D5A16A21F4005141F48051A162A16A89
:1028F000C9040AD5E16A21F00601E16206E0A26A94
:1029000022F48012A2624968E9E7E06284F82400B8
:10291000216A15488862216A1448C862216A1448ED
:10292000086321686FF0020008602068816841F444
:1029300080718160216843464A464C31206A00F02C
:102940007BF920688168C1F342410729816803D07F
:1029500041F48011816099E741F4A001FAE7000099
:10296000002401400028014067220008CF2200080F
:10297000B52200082DE9F05FC16B0A6801680B6899
:10298000046C4FF0040808FA04F8844D844E854F17
:10299000DFF814C2DFF81492DFF814A2DFF814B2E3
:1029A000DFF814E218EA020F65D05FEA437862D5D7
:1029B0000A68920603D40A6822F004020A60DFF86B
:1029C000F0814FF48062016808F1140813011402C9
:1029D000414524D9A9420DD0B1420FD0B9421AD0F5
:1029E000614515D0494515D0514501D1120312E07A
:1029F000594501D104220EE0714501D140220AE07F
:102A00006D4D1435A94206D06B4A2832914201D14E
:102A10001A4600E022466749091F0A6029E0A942D8
:102A200013D0B14215D0B94220D061451BD04945E1
:102A30001BD0514502D14FF4800217E0414502D12D
:102A40004FF0806212E0594501D104220EE0714539
:102A500001D140220AE0584D1435A94206D0564A09
:102A60002832914201D11A4600E022464B490839EA
:102A70004A60C16A71E04FF0020808FA04F818EAE7
:102A8000020F70D05FEA83786DD50A68920606D48B
:102A90000A6822F00A020A60012180F82110DFF89A
:102AA00010814FF40072016808F114081301140238
:102AB000414524D9A9420DD0B1420FD0B9421AD014
:102AC000614515D0494515D0514501D1120312E099
:102AD000594501D102220EE0714501D120220AE0C0
:102AE000354D1435A94206D0334A2832914201D1DE
:102AF0001A4600E022462F49091F0A6029E0A94230
:102B000013D0B14215D0B94220D061451BD0494500
:102B10001BD0514502D14FF4001217E0414502D1BC
:102B20004FF0007212E0594501D102220EE07145CA
:102B300001D120220AE0204D1435A94206D01E4AB8
:102B40002832914201D11A4600E022461349083941
:102B50004A60002180F82010816A00291CD0BDE85D
:102B6000F05F0847FFE70825A540154214D01A0773
:102B700012D50A6822F00E020A6090F84020C36B5A
:102B8000012101FA02F25A60816380F821100021CC
:102B900080F82010016BE0E7BDE8F09F08000240DC
:102BA0001C00024030000240440002405800024035
:102BB0006C000240080402401C04024030B560B1C1
:102BC0001A4B026814219A4209D2194B1344B3FBE1
:102BD000F1F18900016417490AE0012030BD134B6F
:102BE0005B421344B3FBF1F1890001640F490839DA
:102BF000C163022180F82110136843F6F0718B4302
:102C0000F0E901142143D0E902452C432143046932
:102C10002143446921438469214319431160002100
:102C20004163012242770177084630BD0804024023
:102C3000F8FFFDBF0000024070B5044690F8200088
:102C4000002501280CD0012084F8200094F8216090
:102C50000020012E06D084F820000225284670BDF1
:102C6000022070BD022684F82160A06320680668F7
:102C700026F0010606602046FFF774FBE06A002894
:102C80002068016802D041F00E0106E021F0040145
:102C900001602068016841F00A0101602068016854
:102CA00041F001010160D9E770B5044600F008FA6F
:102CB0000546601C02D004480078044400F000FA85
:102CC000401BA042FAD370BD3400002038B5344A0E
:102CD000344C012810D0B0F5005F5FD101211046BF
:102CE00000F0E0F9E07803283ED0401CE070A078C6
:102CF00000283BD02CA03AE00221104600F0D2F987
:102D0000E37863B1012B14D0022B47D1A078C0F136
:102D1000010010F0FF00A07024D028A036E0207839
:102D20000521B0FBF1F201FB1201491C2170627810
:102D300012E060780321B0FBF1F201FB1200401CAD
:102D40006070402020717F2161710021A17101F02C
:102D500075FBE3786278217801B01DA0BDE83040B2
:102D600001F064BC2AA011E00020BFE72FA001F011
:102D70005DFC20790090E37862782178314801F099
:102D800055FCE078012805D030B12FA0BDE83840CF
:102D900001F04CBC32A0F9E737A0F7E738BD0000DE
:102DA000000C0140000000206F7574707574207372
:102DB000696E652077617665202000006F757470FC
:102DC00075742073696E652077617665200D0A0041
:102DD000436F756E7465725F46726571203D202584
:102DE000642C2053656C65637465725F566F6C74F8
:102DF000616765203D2025642C204F7574707574C3
:102E00005F4D6F6465203D2025640D0A00000000C1
:102E10006F757470757420547269616E676C65208B
:102E200057617665200D0A20000000006F757470F0
:102E3000757420547269616E676C652057617665A0
:102E400020200000C097010873656C6563742077CB
:102E5000617665666F726D202D2D2D3E200D0A0066
:102E600073656C65637420766F6C74616765202D83
:102E70002D2D3E200D0A000073656C65637420667D
:102E800072657175656E6379202D2D2D3E200D0ABA
:102E900000000000044910B50A68024202D0086030
:102EA000FFF714FF10BD0000140401402DE9F84F96
:102EB000DFF8C8910024A9F1040B23460F2709F17C
:102EC000040AABF1040ED1E00125A54006EA050293
:102ED000AA4276D1DFF8A8C14E68A6EB0C08664579
:102EE0002BD00DDC032E34D005DC36B3012E19D0E7
:102EF000022E2FD11BE0112E16D0122E2AD119E04E
:102F0000B8F5881F19D006DCB8F5803F15D0B8F5A4
:102F1000801F1FD111E0B8F5001F0ED0B8F5041FB7
:102F200018D10AE0CB6815E0CB681B1D12E0CB6816
:102F300008330FE0CB680C330CE08B682BB1012B0E
:102F40004FF0080303D0456104E0042302E005616B
:102F500000E00023FF2A01D8064601E000F1040644
:102F60004FEA840501D9A5F12005D6F8008007FABB
:102F700005FC28EA0C0803FA05F548EA0508C6F836
:102F800000804D68ED0070D53E4DAE6946F00106FB
:102F9000AE61AD6924F0030605F0010500953A4DD8
:102FA00006EB050CDCF80850A607360F07FA06F802
:102FB00025EA0805DFF8D480404503D14FF000082A
:102FC00025E052E0DFF8C880404502D14FF001080B
:102FD0001DE0DFF8C080404502D14FF0020816E046
:102FE000DFF8B480404502D14FF003080FE0DFF86E
:102FF000AC80404502D14FF0040808E0DFF8A08023
:10300000404502D14FF0050801E04FF0060808FAEC
:1030100006F848EA0508CCF808804D68D9F8006041
:10302000ED024D4601D5164300E096432E604D68F3
:10303000DAF80060AD02554601D5164300E096432C
:103040002E604D68DBF80060AD035D4601D5164388
:1030500000E096432E604D68DEF80060ED03754693
:1030600001D5164300E096432E60641C0A6816469C
:10307000E2407FF429AFBDE8F88F0000080401406A
:103080000000111000100240000001400008014043
:10309000000C0140001001400014014000180140E4
:1030A000001C0140C26821EA02030A4043EA0241CF
:1030B000016170470AB1016170470904FBE7000034
:1030C000014880687047000034000020006C7047A1
:1030D00070B5040025D094F83D00002520B984F88F
:1030E0003C50204600F04EF9242084F83D00206832
:1030F000016821F0010101602068016841F400418C
:1031000001602068016821F40041016000F060FB6B
:103110004D4A6168914201D84C4900E04C498842CF
:1031200001D2012070BD4B492368B0FBF1F15E680C
:1031300026F03F060E435E606368934206D94FF463
:10314000967359434FF47A73B1FBF3F12368491C2A
:103150001E6A26F03F06314319626168914210D819
:103160004900401EB0FBF1F2521CC2F30B02042ACC
:1031700001D2042022E0B0FBF1F0401CC0F30B00B0
:103180001CE0A268F2B301EBC10303EB0116431E7E
:10319000B3FBF6F35B1C43F480431B0549D092B3A9
:1031A00001EBC10202EB0111401EB0FBF1F0401C2B
:1031B000C0F30B0040F4804040F400402168CA692D
:1031C0004CF6FF739A431043C861D4E907100143DA
:1031D0002068026822F0C00211430160D4E90301B3
:1031E00001432068826848F2FF339A4311438160AB
:1031F000D4E9050108432168CA6822F0FF021043A0
:10320000C86001E00EE016E02068016841F00101AD
:1032100001602564202084F83D00256384F83E5039
:10322000002070BD01EB4106431EB3FBF6F35B1CAF
:10323000B3E70120C2E701EB4101401EB0FBF1F012
:10324000401CC0F30B00B7E7A086010080841E007D
:1032500000093D0040420F002DE9F84F1F469046FF
:103260008A460446DDF82890FFF72AFF054694F8C1
:103270003D0020287FD11923012240492046009596
:1032800000F0F8FD002876D194F83C00012872D0B7
:10329000012084F83C0020680168C90703D1016857
:1032A00041F0010101602068016821F400610160C2
:1032B000212084F83D00102084F83E00002626647A
:1032C000C4F824806785608D20852D48E0622B46F8
:1032D0004A465146204600F053FD90B920684169A6
:1032E0008069009036E02A464946204600F068FE94
:1032F00050B1206C042804D12068016841F40071A9
:1033000001600120BDE8F88F606A216800780861DB
:10331000606A401C6062618D491E6185218D491E75
:1033200089B2218522685369DB435B070BD451B115
:1033300000781061606A401C6062608D401E60858C
:10334000208D401E20852A464946204600F066FD15
:103350000028CED1208D0028C5D154F83D0B01683E
:1033600041F400710160202004F81E09E6776677B9
:103370000020C7E7FFE70220C4E7000002001000BA
:103380000000FFFF10B586B000210091019102916D
:10339000039100680F4988421AD10F4CA06940F090
:1033A0000800A061A069694600F008000490C020F0
:1033B000009012200190032003900848FFF776FD4B
:1033C000E06940F40010E061E06900F4001004904E
:1033D00006B010BD0054004000100240000C014037
:1033E00002488168027811448160704734000020EF
:1033F000074810B5016841F010010160032000F09A
:103400006DF80F2000F006F800F024F8002010BD41
:103410000020024070B50D4D04464FF47A712878B3
:10342000B1FBF0F00A490968B1FBF0F000F0A6FB2F
:1034300048B9102C07D200222146501E00F02EF869
:1034400000206C6070BD012070BD000034000020C1
:1034500040000020094808B5816941F001018161FF
:10346000816901F001010091C16941F08051C161A0
:10347000C06900F08050009008BD000000100240BC
:10348000002809DB00F01F02012191404009800063
:1034900000F1E020C0F8001170470000F0B40E4BBE
:1034A0001B680C46C3F30223C3F10705042D00D9A2
:1034B0000425191D072901D2002300E0DB1E012687
:1034C00006FA05F1491E214099409E40761E16409D
:1034D0003143F0BC01F0CEB80CED00E0064900F03D
:1034E000070208684FF6FF03184040EA0220034A2B
:1034F00010430860704700000CED00E00000FA0582
:1035000010B501460020284C04292FD00BDC0129DE
:1035100030D0022929D100F06BF96168C1F3813103
:10352000491C49001FE0082920D010291DD16168DD
:103530002268D20119D51D48C1F38342C903805CBA
:103540000AD56168194AC1F34041921E515C184A7C
:10355000B2FBF1F1484301E0164948436168490272
:1035600003D440000321B0FBF1F010BDBDE81040D2
:1035700000F04EB9226AC2F30121012903D192075A
:1035800001D5C80310BD022905D1626A920702D590
:1035900049F6404010BD0329FCD121688903F9D5C3
:1035A0004FF2244010BD00000010024040630008AC
:1035B00000127A0000093D002DE9F8430546007825
:1035C000354CC00754D0E0690026C00008D4E0693B
:1035D00040F08050E061E069012600F080500090EA
:1035E0002E480168C90512D40168804641F48071F3
:1035F0000160FFF765FD074605E000BFFFF760FDCE
:10360000C01B642823D8D8F80000C005F6D5206A6E
:1036100010F4407021D0A98801F4407181421CD07F
:10362000206A1F49012220F440700A6000220A60CB
:103630002062C00711D0FFF743FD074641F28838EA
:1036400008E000BFFFF73CFDC11B414502D9032044
:10365000BDE8F883206A8007F4D5206A696820F401
:103660004070084320621EB1E06920F08050E061A4
:103670002878800705D56068A96820F44040084391
:1036800060602878C00605D56068696920F480000C
:10369000084360600020DBE700100240007000403B
:1036A000400442422DE9F0470F46050061D0434EE9
:1036B000306800F00700B84209D2306820F00700F7
:1036C00038433060306800F00700B84251D12868B4
:1036D0003B4C810712D5400703D5606840F4E06099
:1036E00060602878000703D5606840F4605060602F
:1036F0006068A96820F0F000084360602878C0077F
:1037000028D06868012810D02168022810D08907C5
:1037100000292EDA616821F0030101436160FFF79F
:10372000CFFC804641F288390DE021688903EFE73C
:103730008901EDE7FFF7C4FCA0EB0801494502D978
:103740000320BDE8F0876068696800F00C00B0EB0A
:10375000810FEFD1306800F00700B8420BD9306814
:1037600020F0070038433060306800F00700B842AE
:1037700001D00120E5E72878400705D56068E968B1
:1037800020F4E060084360602878000706D5606890
:10379000296920F4605040EAC100606000F038F808
:1037A0006168084AC1F30311515CC84006490860CA
:1037B00006480068FFF72EFE0020C2E70020024006
:1037C0000010024050630008400000203800002034
:1037D0000448054900684968044AC1F30221515C64
:1037E000C84070474000002000100240606300089D
:1037F0000448054900684968044AC1F3C221515C84
:10380000C84070474000002000100240606300087C
:103810000E4A51680E4801F00C03042B11D0082BFE
:103820000FD10C48C1F38343C903C05C0AD551686A
:10383000084AC1F34041921E515C054A5043B0FB17
:10384000F1F07047044948437047000000100240FF
:1038500000127A002E63000800093D002DE9F84FA0
:10386000040070D02078C04DC00749D06868C0F30C
:103870008100012807D06868C0F38100022809D1BF
:103880006868C00306D52868800339D560680028B9
:10389000E7D035E06068B0F5803F0BD010B1B0F5EF
:1038A000A02F11D0286820F480302860286820F4E8
:1038B000802002E0286840F480302860606890B181
:1038C000FFF7FEFB06460AE0286840F480202860E7
:1038D000F0E700BFFFF7F4FB801B642873D828686B
:1038E0008003F7D50CE0FFF7EBFB064605E000BFD1
:1038F000FFF7E6FB801B6428F0D828688003F7D424
:1039000020789A4E80074FF001094FF0000839D512
:10391000686810F00C0F07D06868C0F381000228B7
:1039200009D16868C00306D42868800714D52069C7
:10393000012808D110E02069B0B1C6F80090FFF767
:10394000BFFB074605E00AE1FFF7BAFBC01B0228F0
:10395000C4D828688007F7D52868616920F0F80086
:1039600040EAC10028600DE0C6F80080FFF7A8FB20
:10397000074604E0FFF7A4FBC01B022823D82868F1
:103980008007F7D4207800072CD57948A169D9B1F0
:10399000C0F80090FFF794FB074604E0FFF790FBA8
:1039A000C01B02280FD8686A8007F7D571484FF40A
:1039B000FA510068B0FBF1F0009000BF0098411E82
:1039C0000091FAD20EE080E0C0F80080FFF778FBAB
:1039D000074604E0FFF774FBC01B022875D8686A2D
:1039E0008007F7D42078400760D5E8690027C00039
:1039F00008D4E86940F08050E861E869012700F0E8
:103A0000805000905C480168C90513D40168834662
:103A100041F480710160FFF753FB824606E000BF6E
:103A2000FFF74EFBA0EB0A0064284ED8DBF800003D
:103A3000C005F5D5E06801280AD008B1052813D0E3
:103A4000286A20F001002862286A20F0040002E0C1
:103A5000286A40F001002862E06841F2883B98B192
:103A6000FFF72EFB82460BE0286A40F00400286234
:103A7000EEE700BFFFF724FBA0EB0A0159455AD837
:103A8000286A8007F6D50CE0FFF71AFB824605E0AE
:103A9000FFF716FBA0EB0A0159454CD8286A8007AE
:103AA000F6D41FB1E86920F08050E861E06988B37E
:103AB0006968C1F38101022944D00228C6F86080F8
:103AC00004D0FFF7FDFA044638E034E0FFF7F8FAD7
:103AD000074604E0FFF7F4FAC01B02282BD8286839
:103AE0008001F7D4206AB0F5803F05D16868A168ED
:103AF00020F4003008436860D4E90801084369688D
:103B000021F4741108436860C6F86090FFF7D8FA92
:103B1000044606E025E000BFFFF7D2FA001B0228AA
:103B200009D828688001F7D51BE000BFFFF7C8FA65
:103B3000001B022802D90320BDE8F88F2868800105
:103B4000F4D40EE00128F7D06868226A00F48031CE
:103B5000914204D1616A00F47010884201D00120C2
:103B6000EAE70020E8E700000010024000004242BF
:103B700080044242400000200070004010B5401E0A
:103B8000B0F1807F01D3012010BD4FF0E0246061CF
:103B90000F21601700F06EFD0020A061072020615A
:103BA000002010BD70B5040004D094F84100002539
:103BB00010B106E0012070BD84F84050204600F0AE
:103BC00023F8242084F841002068C16821F40051C2
:103BD000C160204600F090FC2068016921F490410A
:103BE00001612068416921F02A0141612068C168B2
:103BF00041F40051C1606564202084F8410084F8DC
:103C000042006563002070BD70B586B0002400944A
:103C1000019402940394234E036823490220032253
:103C2000224DB34219D18B6943F480438B618B6978
:103C300003F4804304938B6943F004038B61896927
:103C4000039201F0040104910102CDE900106946DC
:103C50002846FFF72BF928151BE0154EB3421FD15C
:103C6000CB6943F40033CB61CB6903F40033049395
:103C70008B6943F004038B618969039201F00401AD
:103C800004910421CDE9001069462846FFF70EF99A
:103C90000820CDE90004694628460294FFF706F99A
:103CA00006B070BD0038014000100240000801401D
:103CB000004400402DE9F843044690F841001F46B7
:103CC00016460D46202802D00220BDE8F8837DB1BB
:103CD00076B100206064212084F84100FFF7F0F9FC
:103CE000A6848046E684A068B0F5805F02D003E039
:103CF0000120EAE7206910B12E4600250EE00026DB
:103D00000CE08021204600F053FCA0B9AEB116F8BB
:103D1000010B21684860E08C401EE084E08C434643
:103D20004FF0000200970028EBD14FF040012046F1
:103D300000F03EFC30B10320C7E735F8020BC0F3BA
:103D40000800E6E7202084F841000020BDE7FEE7F8
:103D500001684A69D24352050FD46FF480624A6108
:103D6000002140F8301F202242738173026942F023
:103D700004020261017301207047002070470000B7
:103D8000F8B50446C06A1E460D461746082807D0F7
:103D9000012805D010F5803F02D0206B122804D1F5
:103DA0002068016841F480710160134600224FF0E1
:103DB00001112046009600F05DF840B120680068CF
:103DC000C00502D54FF4007020640320F8BD2069BF
:103DD000B0F5804F0ED00620216800EAD51040F0E3
:103DE000F000086133463A460B49204600F08AF855
:103DF00078B902E005F0FE0000E0E8B22168086151
:103E0000054933463A46891F204600F07BF80028D2
:103E1000DCD00120F8BD00000800010070B5164696
:103E20000D4604461EE02046FFF792FF08B1012030
:103E300070BD681C16D0FFF743F9801BA84200D85C
:103E400085B920684069C04340070BD5002044F87D
:103E5000300F20216173A073216941F0200121619D
:103E60002073E4E720684069C0434007DBD40020AA
:103E700070BD00002DE9F047984617460D460446F0
:103E8000C1F30746DDF820902AE000BFB8F1FF3FFC
:103E900026D0FFF715F9A0EB0901414502D8B8F18A
:103EA000000F1DD12068012E16D0806925EA000080
:103EB0000004000C12D00020B84211D1002044F8B8
:103EC000300F20216173A073216941F0200121612D
:103ED00020730120BDE8F0874069E7E70120EBE7A8
:103EE0002068012E0AD0806925EA00000004000C39
:103EF00006D00020B842C9D00020EBE74069F3E7C4
:103F00000120F7E72DE9F047984616460D4604468E
:103F10004FF000094FF0200AC1F3074723E0206863
:103F20004069C043400515D42068016841F4007120
:103F3000016021686FF480604861C4F8309084F8B3
:103F40003DA084F83E90216C41F00401216484F886
:103F50003C9021E0701C06D0FFF7B2F8A0EB0800FF
:103F6000B04203D816B1012F1FD021E02068012FE5
:103F700015D0806925EA00000004000C18D000BFAD
:103F800044F8309F84F80DA084F80E90216941F028
:103F90002001216184F80C900120BDE8F087406980
:103FA00025EA00000004000CEAD12068406901E025
:103FB0002068806925EA00000004000CAFD1ECE71E
:103FC00070B516460D4604461EE02046FFF7C0FEBB
:103FD00008B1012070BD681C16D0FFF771F8801B76
:103FE000A84200D885B920684069C04300060BD5B7
:103FF000002044F8300F20216173A073216941F043
:10400000200121612073E4E720684069C043000675
:10401000DBD4002070BD00002DE9F0410024069D96
:104020001F4690460A4EED1E0EE000BF36F81410F3
:1040300008EB111006EB440180B2498807EB11111F
:1040400089B2FEF7F7F9A41CAC42EFDBBDE8F081C2
:104050004C000020FEB50024184800940194164935
:10406000029401608915816001250573047502269B
:1040700006614FF460214460C161FEF71FFB08B187
:10408000FEF78DF90A20CDE90005694602940B4838
:10409000FEF792FA08B1FEF782F90B20CDE900068F
:1040A00069460648FEF788FA08B1FEF778F9034832
:1040B000FEF716FAFEBD000000240140B0500020BB
:1040C000094808B5416941F0010141614069002298
:1040D00000F00100009011460B20FFF7DFF9BDE86A
:1040E00008400B20FFF7CCB9001002402DE9F04149
:1040F00086B00024314800940194029403948169AD
:1041000041F010018161816901F010010491816920
:1041100041F004018161816901F004010491816928
:1041200041F0080181618069254F00F0080040F2EC
:1041300023350490002229463846FEF7BBFFDFF8FE
:10414000848000224FF470614046FEF7B3FF009573
:10415000022601250396CDE9015469463846FEF74B
:10416000A5FE4FF4FE50CDE90005CDE902466946B3
:104170004046FEF79BFE144E6803CDE900066946F3
:1041800002944046FEF792FE0095CDE9016469462F
:104190000E48FEF78BFE002211460720FFF77EF93E
:1041A0000620FFF76DF9002211462820FFF776F967
:1041B0002820FFF765F906B0BDE8F0810010024045
:1041C000000C0140001001400000211000080140D7
:1041D0000D4810B50B4901600C49416000214FF4B6
:1041E00080428160C0E9031241618161C161016265
:1041F000FEF76EFF002803D0BDE81040FEF7CFB8F1
:1042000010BD00000054004024510020A086010091
:104210000C4810B50A4901604FF4E13141600021BA
:1042200081600C22C160C0E904128161C161FFF7A5
:10423000B9FC002803D0BDE81040FEF7B0B810BDAF
:1042400000380140785100200C4810B50A4901603F
:104250004FF416514160002181600C22C160C0E919
:1042600004128161C161FFF79DFC002803D0BDE805
:104270001040FEF794B810BD00440040C05100202B
:10428000FEE7FEE7704770472DE9FF470F460546FA
:1042900001242BE005EB840655F8240056F8041C95
:1042A000FDF73EFE21D255F824007168FDF738FE77
:1042B0001BD805EB84004068FDF7F9FD8046894670
:1042C00055F82400FDF7F3FD05460F4656F8040C9B
:1042D000FDF7EDFD8DE8A00302460B4605A000F0BA
:1042E000A5F9204604B0BDE8F087641CBC42D1DBD0
:1042F000F8E7000025642C25642C25640A000000E2
:1043000001B54FF47A73012269460248FFF7D2FCE7
:1043100008BD0000C051002010B5044603E000BFF6
:10432000FFF7EEFF641C20780028F9D110BD10B50E
:104330000446EE20FFF7E4FF4220FFF7E1FF200AEA
:10434000FFF7DEFFE0B2FFF7DBFFFF20FFF7D8FF4C
:10435000FC20FFF7D5FFFF20FFF7D2FFBDE810409C
:10436000FF20FFF7CDBF10B50446EE20FFF7C8FFD2
:104370004120FFF7C5FF200AFFF7C2FFE0B2FFF7B9
:10438000BFFFFF20FFF7BCFFFC20FFF7B9FFFF20B6
:10439000FFF7B6FFBDE81040FF20FFF7B1BF70B5D3
:1043A000054616460C46EE20FFF7AAFFB120FFF7A0
:1043B000A7FF1020FFF7A4FF280AFFF7A1FFE8B22C
:1043C000FFF79EFF200AFFF79BFFE0B2FFF798FF81
:1043D0003046FFF7A1FFFF20FFF792FFFC20FFF719
:1043E0008FFFFF20FFF78CFFBDE87040FF20FFF735
:1043F00087BF00EB80004003212390FBF3F310B54F
:10440000A3F1960003F1960403F27E43994202DD84
:104410001078001F05E0A0F57A73994203DA10784E
:10442000001D107010BDA14202DD1078401EF8E79B
:104430008142F7DA1078401CF3E700007CB50021D8
:10444000019102248DF8050001ADFF2606E0084821
:10445000FEF73CFE042801D0FDF7A1FF23462A46C3
:104460005C2103480096FEF7F7FE0028EFD17CBDE3
:1044700024510020FEF7B4BF30B595B0282168461E
:10448000FDF787FA14210AA8FDF783FA18210FA86F
:10449000FDF77FFA01210804CDE9001000250295FF
:1044A00002240491CDE907404FF4E01009906846DA
:1044B000FFF7D4F908B172B6FEE70AA90F2081E828
:1044C00031004FF48060CDE90D0502210AA8FFF705
:1044D000E9F808B172B6FEE74FF4404011900F942E
:1044E0000FA8FFF769F8002801D072B6FEE715B0F3
:1044F00030BD7047FFF76CBE70B5044600680169B7
:10450000E26821F44051114301612169A068084328
:10451000616908432168CA6841F20C639A43024307
:10452000CA6020684169A26921F440711143416168
:104530001E492068884202D1FFF75AF901E0FFF7CF
:1045400047F900EBC00101EB0012606864218000B4
:10455000B2FBF0F3B3FBF1F36FF018067343B2FB59
:10456000F0F5B2FBF0F605EB8305322303EB0515FE
:10457000B5FBF1F5B6FBF1F605F0F00505EB061518
:10458000B2FBF0F6B2FBF0F0B0FBF1F06FF0180206
:10459000504306EB800003EB0010B0FBF1F0216804
:1045A00000F00F002844886070BD00000038014012
:1045B0002DE9F041984617460E460446069D27E031
:1045C000681C25D02DB1FEF77BFDA0EB0800A842AA
:1045D0001ED920680C3050E8001F21F4D07140E84B
:1045E0000012002AF5D12068143050E8001F21F095
:1045F000010140E80012002AF5D1202084F8410092
:1046000084F84200002084F840000320BDE8F081D7
:104610002068006836EA000004D00020B842CFD0FD
:104620000020F3E70120F9E7FEE700000FB4054B97
:1046300010B503A9044A029800F004F910BC5DF813
:1046400014FB0000554F0008440000200FB4084B35
:1046500010B504A902AA039800F0F4F8044602A9D0
:10466000002000F072FC204610BC5DF814FB000036
:104670004B4F00080907090E002804DB00F1E02079
:1046800080F80014704700F00F0000F1E02080F87F
:10469000141D704702E008C8121F08C1002AFAD191
:1046A00070477047002001E001C1121F002AFBD1B2
:1046B0007047000001490860704700004800002072
:1046C0002DE9FF5F82B00021DDE90430020DDDF845
:1046D00040B0034318D044F61050A2F2FF324243D8
:1046E0001514119801281FD0A5EB0B00401C5FEAA0
:1046F000000A4FF000064E4FDFF83891B0465046A2
:1047000015D5CAF1000413E0119801244AA3012829
:1047100001D16FEA0B010298119AC0E90031C0E99A
:10472000024206B0BDE8F09FCBF10000DFE704468F
:104730000021404A491842EB0450CDE9001012E034
:10474000E00707D032463B4640464946FDF7A7FA08
:104750008046894632463B4610461946FDF79FFA89
:1047600006460F466410002CEAD1DDE90401DDE9BC
:104770000023BAF1000F06DAFDF791FA42464B46E4
:10478000FDF78DFA05E0FDF7FCFA42464B46FDF7D2
:10479000F8FA04460E460022284BFDF70FFD03D819
:1047A0004FF0FF30014607E00022254B20463146FE
:1047B000FDF7CEF9FDF7E9FC102409E0002C0ADB37
:1047C0000A220023FDF7CCFB039B30321A55641EEE
:1047D00050EA0102F2D1641C039AC4F1110314449B
:1047E000119A012A03D0012208430DD10AE008439F
:1047F00004D000204FF0110B119072E7A3EB0B05D2
:104800006D1E0DE05B4504DD4FF0000205F1010572
:1048100004E003DA4FF00002A5F10105002AECD014
:1048200002981199C0E90231C0E9004579E700001A
:10483000000014400000F03F300000000000F04392
:104840000000E03F2DE9FF4F95B09A4688460646A6
:104850000025EEE1252877D100242746F94A0121D9
:10486000039400E0044316F8013F203B01FA03F0F3
:104870001042F7D130782A2811D06FF02F0330780A
:10488000A0F13002092A16D8039A44F0020402EB80
:10489000820203EB42021044761C0390EFE758F8C3
:1048A000042B0392002A03DA504244F4005403908C
:1048B00044F00204761C30782E2816D116F8010F29
:1048C00044F004042A280DD06FF02F023078A0F1B4
:1048D0003003092B09D807EB870302EB4303C71802
:1048E000761CF3E758F8047B761C30786C280FD0E0
:1048F00006DC4C2817D068280DD06A2814D104E0B3
:10490000742810D07A280FD10DE044F400140AE086
:1049100044F4801401E044F440147278824202D1DD
:1049200004F58014761C761C307866280BD013DCD6
:10493000582877D009DC002875D04528F6D04628BD
:10494000F4D047281AD193E118E0632835D06428C1
:1049500079D0652812D18BE1702873D008DC6728E4
:10496000F1D069286FD06E280DD06F2806D1ACE049
:1049700073282CD0752874D0782853D052461799B4
:1049800090476D1C54E1C4F30250022809D003285B
:104990000DD0D8F8001004280DD00D6008F10408DF
:1049A00046E1D8F80010EA17C1E90052F6E7D8F856
:1049B00000100D80F2E70D70F0E718F8041B8DF879
:1049C000001000208DF80100EB46012003E058F8AC
:1049D00004BB4FF0FF3061074FF0000102D40DE03F
:1049E00009F101018946B9420FDA8145F8DB1BF86C
:1049F00009100029F4D108E009F10101894681423A
:104A0000FADB1BF809100029F6D103985346A0EBF6
:104A1000090721463846179A00F080FA284400EB2F
:104A2000090507E044E008E10DE01BF8010B5246E0
:104A300017999047B9F10109F7D2534621463846F4
:104A4000179AF2E039E00A21C4F302524FF0000B4A
:104A50000091022A06D058F8040BC117032A09D086
:104A60000AE023E008F1070020F00702F2E8020163
:104A7000904605E000B2C117042A01D140B2C11727
:104A8000002906DA0A460021404261EB02012D228C
:104A900002E0220504D52B228DF80420012203E038
:104AA000E20701D02022F7E7914657E00A2100E013
:104AB00010214FF0000B00910BE010214FF0000B84
:104AC00044F004040827009103E008204FF0000B95
:104AD0000090C4F30252022A05D058F8040B0021BA
:104AE000032A08D008E008F1070020F00702F2E8E6
:104AF0000201904603E080B2042A00D1C0B24FF018
:104B0000000922072AD53278702A07D0DDF800C0C4
:104B10008CF0100C5CEA0B0C05D00EE040228DF8F6
:104B20000420012208E050EA010306D030238DF86A
:104B300004308DF8052002229146009B83F0080383
:104B400053EA0B030AD150EA010201D1620705D5ED
:104B500030228DF804204FF001097F1E3278582A48
:104B600004D039A20C920CAA02920BE03BA2F9E706
:104B70005B46009AFDF7F4F90C9B9B5C029A521E6F
:104B80000292137050EA0102F2D1029804A9081AA5
:104B900000F1200B600702D524F4803400E00127E7
:104BA0005F4502DDA7EB0B0000E0002000EB0B01EE
:104BB000009003984944401A0390E00306D45346FA
:104BC0002146179A039800F0A9F90544002706E04A
:104BD00001A85246C05D179990476D1C7F1C4F4538
:104BE000F6DBE0030CD553462146179A039800F0F4
:104BF00095F9054404E030205246179990476D1C02
:104C00000099481E00900029F5DC08E002980299FE
:104C100052460078491C0291179990476D1CBBF1D0
:104C20000001ABF1010BF1DC5BE100F065F905443B
:104C3000761C307800287FF40DAE19B02846BDE808
:104C4000F08F000009280100303132333435363717
:104C500038396162636465660000000030313233C8
:104C60003435363738394142434445460000000068
:104C7000600700D4062708F1070020F00700F0E8DD
:104C80000223804603F0004C5FEA0C0001D097A09D
:104C900009E0200501D596A005E0E00701D095A028
:104CA00001E0AFF24C001390307823F00043652808
:104CB0000CD006DC452809D046281DD047287FD1D6
:104CC0003BE0662818D067287AD136E00021112F02
:104CD00001DB112000E0781CCDE9000104A90CA83B
:104CE000FFF7EEFCDDE90D010C9A4FF0000B07F128
:104CF0000109109200914EE04FF000400097CDE97D
:104D0000011004A90CA8FFF7DBFCDDE90D020C9BE8
:104D10000F994FF0000B91461093009211B9791C36
:104D200000EB0109B7EB090003D4C0F1FF3B07F129
:104D30000109A9EB0700019042E0012F00DA0127E9
:104D40000021112F01DD112000E03846CDE90001DE
:104D500004A90CA8FFF7B4FCDDE90D010C9A009141
:104D60004FF0000BB946109221070FD4009A4A4524
:104D700003DA914601E0A9F10109B9F1010F05DD5E
:104D8000109AA9F10101515C3029F4D0B84202DA3D
:104D900010F1040F03DA0121CDE9011010E0002821
:104DA00003DC8344A9EB000102E0411C494500DD1E
:104DB0008946A0EB0B00401C01904FF00040029090
:104DC000200705D40198484502DB4FF0FF300190E1
:104DD00000208DF84B0002980DF14B07B0F1004F09
:104DE00025D002200C902B200D90029800280CDA80
:104DF000404202902D200D9007E00A210298FDF715
:104E000099F83031029007F8011D0C99481E0C905A
:104E10000029F2DC02980028EFD1791E0D98087065
:104E2000307800F0200040F0450007F8020D11A88E
:104E3000C01BC01D02901398007800B1012000EB48
:104E40000901019801EBE071029801440398401AAE
:104E5000401E0390E00306D453462146179A039858
:104E600000F05CF805441398007818B15246179981
:104E700090476D1CE00323D553462146179A0398AB
:104E800000F04CF805441BE0BBF1000F07DB009875
:104E9000584504DD1098179910F80B0001E0179998
:104EA00030205246904701980BF1010B401E05F14E
:104EB0000105019004D12E205246179990476D1C90
:104EC000B9F10001A9F10109DEDC05E017F8010BD9
:104ED0005246179990476D1C0299481E029000296E
:104EE000F4DC53462146179A03989EE62D000000F5
:104EF0002B000000200000002DE9F04104460025B1
:104F00001E461746880404D405E039462020B047E1
:104F10006D1C641EF9D52846BDE8F0812DE9F041ED
:104F2000044600251E469046C80301D5302700E000
:104F30002027880404D505E041463846B0476D1C5B
:104F4000641EF9D52846BDE8F0810A68531C0B6041
:104F50001070704713B54FF6FF730122694602487F
:104F6000FEF7A8FE00981CBD7851002088B0FEF71F
:104F70003FFAFFF781FAFFF7B9F8FFF7A1F8FFF75B
:104F800069F8FFF725F9FFF743F9FFF75DF9FFF738
:104F9000B1FA0020FFF7CBF90020FFF7E4F94FF456
:104FA000FA734FF4AF72C8213220FDF766FA4FF45E
:104FB000FC60FFF7D8F9DFF81093C24EC34DC44F21
:104FC0004FF4807809F5805A4FF4806B28780628D2
:104FD0006AD2DFE800F06903293352FD002244461B
:104FE00041463046FEF766F800224FF40071304625
:104FF000FEF760F8002259463046FEF75BF80022C3
:105000004FF400613046FEF755F801222146B148C1
:10501000FEF750F8A87800287ED0012240213046C3
:10502000FEF748F800223BE0002244464146304665
:10503000FEF740F8012208E000222CE0012244465D
:1050400041463046FEF736F800224FF400713046F4
:10505000FEF730F8012259463046FEF72BF80122C0
:10506000D1023046FEF726F8002221469948FEF785
:1050700021F8A8780028CFD0DEE700224446414638
:105080003046FEF717F800224FF400713046FEF765
:1050900011F8012201E140213046FEF70BF8012210
:1050A00080213046FEF706F88B48FDF7B1F84FF443
:1050B000006287498848FDF7D7FB1420FDF7F4FD0F
:1050C00002218448FDF7EEFF00208449A860C5E96D
:1050D0000301C5E905100446C5F81C0037F8240093
:1050E000FCF7C7FE49F8240007EB84004088FCF772
:1050F000C0FE4AF82400641C5C45EFDB734B5C4641
:105100002033A3F1180259466F48FBF769FA6F4B39
:105110002433A3F1140200E0D1E021466A48FBF7F2
:1051200095FA2969A868FCF791FC684BA8612833B7
:10513000A3F11C0221466A48FBF752FA634B214651
:105140002C33A3F118026648FBF780FA6969E86816
:10515000FCF77CFCE86101215E48FDF7A3FFE869EC
:10516000FCF78CFE01465948801D431E821E0090AC
:105170006878FFF73EF92879FFF760F92146524831
:10518000FFF782F8029021465548FFF77DF801901D
:10519000224654495248FDF705F9224652495148E2
:1051A000FDF728F95049002004AB0860486005AAC3
:1051B00032214D48FBF714FA4C4904984843C11773
:1051C00000EB91508012FCF74BFE0446287800E07B
:1051D00057E00690FCF74DFE01462046FCF76EFCBA
:1051E00000900198FCF73CFE2146FCF735FC044694
:1051F0000298FCF735FE0099FCF72EFC2146FCF7DF
:1052000025FCFCF754FE3A4C3A4B2246FCF747FD8E
:105210000022394BFCF7B5FDFCF75CFE286310F16A
:10522000FF4F08D3FCF743FE2246324BFCF790FCBD
:10523000FCF750FE2863FCF73AFECDE9020129791C
:10524000E878CDE9000120486B782C496438069A4B
:10525000FFF7FCF9E878032809D01B4A0521643AD6
:105260000320FFF79CF8E87803287FF4AFAE4FF4F3
:105270000060009064233222B91C1548FEF7CCFE72
:10528000A4E60122444641463046FDF713FF0122C1
:1052900051023046FDF70EFF002259463046FDF719
:1052A00009FF0122D1023046FDF704FF002221460A
:1052B0000848FDF7FFFEA87808B10122EBE60022BE
:1052C000ACE6000000100140B010002000000020FB
:1052D0004C000020000C0140B050002000F07F4541
:1052E000B0200020B0300020B040002094E704003F
:1052F0006F1283C0CA211940509E134108980108BB
:1053000070B50546FCF7B5FE044620F00040C0F13C
:10531000FF40C00F08D025F00040C0F1FF40C00F93
:1053200004BF0120FFF7C6F9204670BDACC5273782
:10533000ACC52738ACC5A73852491D39282C71395E
:105340000742B239282CF13952491D3ABD3A473A41
:10535000556A763A0D6C953A7CF2B03A8C67D03A41
:10536000282CF13AED470A3B52491D3B419A313B0B
:10537000BD3A473BC32A5E3B8FC2753BD6A8873BED
:1053800048C4943B7F87A23B7CF2B03B3E05C03BC8
:10539000C6BFCF3B31CEDF3B45D8F03B1E1B013CA7
:1053A000FC1D0A3CBC74133C601F1D3CE71D273CE0
:1053B0005F46313CB9C23B3CE8BC463C09E1513C4C
:1053C0001B2F5D3C01FB683CCA1A753C42B2803C15
:1053D0001101873CD1798D3C821C943C2CD49A3CA1
:1053E000C1CAA13C4DD6A83CCC0BB03C3C6BB73CF1
:1053F000A4DFBE3CF792C63C425BCE3C7F4DD63C20
:10540000B554DE3CD49AE63CEDF5EE3CF67AF73C3A
:10541000F914003D6F81043D62F8083D4D840D3D57
:105420003125123D91D0163D679B1B3DB970203D43
:10543000035B253DCA4F2A3D8A592F3D4278343DB2
:10544000F3AB393D21EA3E3D473D443D65A5493D2D
:105450007D224F3D11AA543D9D465A3DA6ED5F3D2C
:10546000A8A9653DA27A6B3D9560713D0551773DD8
:105470006D567D3D29B3813D97C5843D82E2873DD0
:10548000AB048B3D51318E3D7368913DD3A4943D67
:10549000AFEB973D083D9B3D9F939E3D74EFA13D33
:1054A000C555A53D93C6A83DDD41AC3D27BDAF3DEB
:1054B0002C48B33D6FD8B63D2E73BA3D2B13BE3D7D
:1054C00067B8C13D1F68C53D5322C93DC6E1CC3D0B
:1054D000B4ABD03DE17AD43D8B54D83D7233DC3D42
:1054E000D61CE03D780BE43D58FFE73DB5FDEB3DB4
:1054F0008E06F03DA514F43DFA27F83DCC45FC3D61
:105500006E34003E9548023EFA61043E9D80063EA0
:10551000419F083EC1C50A3E42EC0C3E01180F3EB9
:105520005F46113EFB79133E36B0153E10E9173E3B
:1055300089241A3E41651C3E97A81E3E2CF1203E50
:10554000603C233E338A253EA5DA273EB62D2A3E0F
:1055500005862C3EF4E02E3E2041313E4DA1333EE7
:10556000B806363EC16E383E6AD93A3EB2463D3E36
:1055700039B93F3E5E2E423E22A6443E8620473E3B
:10558000889D493E2A1D4C3E0AA24E3EE926513EC8
:1055900007B1533EC53D563E82CA583E7D5C5B3ED8
:1055A00017F15D3EF08A603EC824633E40C1653E0F
:1055B0005760683E0C026B3E00A96D3EF44F703E92
:1055C00087F9723EB9A5753E2A57783E9A087B3E08
:1055D000A9BC7D3EAC39803E5396813E49F4823E63
:1055E0008F53843E24B4853E0916873EEE77883E6D
:1055F00072DC893EF6408B3ECAA68C3EED0D8E3E97
:1056000060768F3E22E0903EE449923E46B6933E5D
:10561000A722953E5890963E58FF973E596E993E68
:10562000A9DE9A3E48509C3E37C39D3E26369F3E9B
:1056300065AAA03EF31FA23ED196A33EAE0DA53EA5
:10564000DB85A63E09FEA73E8577A93E52F2AA3E1B
:105650001E6DAC3E3AE9AD3EA566AF3E11E4B03EEC
:10566000CC62B23E87E1B33E9161B53EEBE2B63E1D
:105670004564B83E9FE5B93E4968BB3E42ECBC3E3E
:105680003B70BE3E34F4BF3E7D79C13E1500C33E43
:10569000AD86C43E450DC63E2D95C73E151DC93E7F
:1056A000FDA4CA3E342ECC3EBBB8CD3EF241CF3E27
:1056B000C8CDD03E4F58D23E26E4D33EFC6FD53EF7
:1056C000D2FBD63EF888D83E1E16DA3E44A3DB3E17
:1056D000BA31DD3EE0BEDE3E554DE03E1ADDE13E34
:1056E000906BE33E55FBE43E1A8BE63EDF1AE83E44
:1056F000A4AAE93E693AEB3E7DCBEC3E925CEE3EDD
:1057000057ECEF3E6B7DF13E800EF33EE4A0F43E9D
:10571000F931F63E0DC3F73E7155F93E86E6FA3E85
:105720009A77FC3EFF09FE3E139BFF3EBC96003F6E
:10573000465F013F7828023F02F1023F34BA033F3F
:10574000BF82043F494B053FD313063F05DD063FAB
:105750008FA5073F726D083FFC35093F87FE093F63
:1057600069C60A3FF38E0B3FD6560C3FB81E0D3F5D
:105770009BE60D3FD6AD0E3FB8750F3FF33C103F93
:105780002E04113FC1CA113FFB91123F8E58133FA7
:10579000211F143F0CE5143FF8AA153FE370163F94
:1057A000CE36173F11FC173F55C1183FF085193F02
:1057B000344B1A3F280F1B3FC3D31B3FB7971C3FE7
:1057C000035B1D3F4F1E1E3F9CE11E3F40A41F3F39
:1057D000E466203FE128213FDDEA213F32AC223F51
:1057E000876D233F342E243FE1EE243FE6AE253F74
:1057F000EB6E263F492E273FA6ED273FB4AB283F4F
:105800006A6A293FD0272A3FDEE52A3F9CA22B3F28
:105810005B5F2C3F711B2D3FE0D62D3F4F922E3FFB
:10582000164D2F3FDD07303FFDC1303F747B313FC8
:105830004434323F14ED323F94A4333F145C343F80
:105840009413353FC5C9353FF67F363F7E35373F28
:1058500060EA373F999E383FD252393FBC053A3F04
:10586000A6B83A3FE86A3B3F821C3C3F75CD3C3FBF
:10587000677E3D3F0A2E3E3F05DD3E3F008C3F3FA9
:10588000AC39403F58E7403F5B94413F1040423FB6
:10589000C4EB423FD196433F3541443FF2EA443F97
:1058A0006093453FCD3B463F93E3463FB18A473F38
:1058B0007F30483F4DD6483FCC7A493F4B1F4A3F47
:1058C0007AC24A3F02654B3FE2064C3F1AA84C3F62
:1058D000AA484D3F92E84D3FD3874E3FC4254F3FE6
:1058E0000DC34F3FAF5F503FA9FB503FFB96513F69
:1058F000A531523FFFCA523FB263533FBDFB533FF6
:105900002193543F3529553FA1BE553F6553563F1E
:1059100082E7563F4E7A573F1B0D583FF19D583F47
:10592000C72E593F4DBE593F2B4D5A3F62DB5A3F60
:1059300049685B3F88F45B3F787F5C3FC0095D3F0F
:1059400060935D3F581C5E3F01A45E3F5A2A5F3F53
:10595000B4B05F3F1635603F78B9603F8A3C613F25
:10596000F5BE613F1040623FDBBF623FA73F633F30
:1059700023BE633F4F3B643FD4B7643F0933653F69
:1059800097AD653F7C27663F12A0663F5917673F7A
:10599000F88D673F4703683FEE77683F46EB683F07
:1059A000F65D693F57CF693F10406A3F79AF6A3F64
:1059B0003A1E6B3FAC8B6B3FCFF76B3F49636C3F3D
:1059C00075CD6C3FF8366D3F2C9F6D3F10066E3FD6
:1059D0004C6C6E3F39D16E3F7E356F3F74986F3F90
:1059E0001AFA6F3F185B703FC7BA703F2619713FB4
:1059F000DE76713F46D3713F5E2E723FCE88723F96
:105A0000EFE1723FC139733FEB90733FC5E6733FDF
:105A10004F3B743F328F743F1EE1743F0933753F33
:105A2000FD82753F4AD2753F9F1F763FF46C763FEB
:105A300052B8763F0803773F6E4C773F8594773FA7
:105A40004DDB773F6C21783F3C66783FBDA9783FBE
:105A500096EC783F772D793FB16D793F9BAC793FDC
:105A600036EA793F28277A3FCC627A3F789C7A3FA2
:105A70007CD57A3FD80D7B3F3D447B3FFB797B3F14
:105A800068AE7B3F87E17B3F55137C3FD4437C3F2F
:105A9000AC737C3F34A27C3F6CCF7C3F55FB7C3F9A
:105AA000EE257D3F374F7D3FD9777D3F2C9F7D3F52
:105AB0002EC57D3FE2E97D3F450D7E3F5A2F7E3F5B
:105AC000C6507E3F3B707E3F088F7E3F86AC7E3F58
:105AD000B4C87E3F93E37E3FCAFD7E3F09167F3FF9
