:020000040800F2
:100000007819002049010008B32000087F1B000870
:10001000B120000825030008B123000800000000FB
:10002000000000000000000000000000B7200008F1
:100030005F03000800000000B5200008FD21000853
:100040006301000863010008630100086301000800
:1000500063010008630100086103000863010008F0
:100060006301000863010008630100082903000818
:1000700063010008630100086301000863010008D0
:1000800063010008630100086301000863010008C0
:1000900063010008630100086301000863010008B0
:1000A00063010008630100086301000863010008A0
:1000B0006301000863010008630100086301000890
:1000C0006301000863010008630100086301000880
:1000D0006301000863010008630100086301000870
:1000E000670300086301000863010008630100085A
:1000F0006301000863010008630100086301000850
:10010000630100086301000863010008630100083F
:10011000630100086301000863010008630100082F
:10012000630100086301000863010008630100081F
:10013000DFF810D000F042F80048004781250008A1
:10014000AFF3008078190020064880470648004732
:10015000FEE7FEE7FEE7FEE7FEE7FEE7FEE7FEE777
:10016000FEE7FEE77B22000831010008D2B201E081
:1001700000F8012B491EFBD270470022F6E710B5AC
:1001800013460A4604461946FFF7F0FF204610BD05
:1001900030B50B46014600202022012409E021FA57
:1001A00002F59D4205D303FA02F5491B04FA02F554
:1001B0002844151EA2F10102F1DC30BD064C074DAA
:1001C00006E0E06840F0010394E807009847103427
:1001D000AC42F6D3FFF7B0FF702700089027000865
:1001E00070B5044600688168C943C90717D18168A2
:1001F00021F00101816000F07BFE05460AE000BFAE
:1002000000F076FE401B022804D920688068C043B5
:10021000C00706D020688068C043C007F0D0002027
:1002200070BDA06A40F01000A062E06A40F00100DA
:10023000E062012070BD10B50146406A826A12F08A
:10024000500F05D0006A026BBDE810400846104709
:10025000816A41F40071816201688968C1F3424199
:1002600007290CD1017B51B9816A21F48071816227
:10027000816AC90403D4816A41F00101816200F0FE
:10028000B7F910BD10B5406A816A41F04001816242
:10029000C16A41F00401C16200F0ACF910BD10B5B3
:1002A000406A00F0A6F910BDF8B500260446009695
:1002B00000688168C943C9072DD0816841F00101F8
:1002C0008160164816490068B0FBF1F000E0401E5E
:1002D00000900028FBD100F00BFE054616E000BFA1
:1002E00000F006FE401B022810D920688068C04339
:1002F000C0070BD0A06A40F01000A062E06A40F096
:100300000100E06284F824600120F8BD2068806864
:10031000C043C007E4D10020F8BD00001400002055
:1003200040420F00FEE70000014800F0C1BA0000A3
:100330004C08002030B590F840500124AC40C56B0B
:100340006C60046863604368102B036803D0996095
:100350000068C26030BD9A600068C16030BD7047FF
:10036000012000F0AFBC4FF4005000F0ABBC72B6FF
:10037000FEE770B505460C46EE2001F09DFE5020CC
:1003800001F09AFE280A01F097FEE8B201F094FE0F
:10039000200A01F091FEE0B201F08EFEFF2001F094
:1003A0008BFEFC2001F088FEFF2001F085FEBDE8F9
:1003B0007040FF2001F080BE2DE9F04107461C4649
:1003C00015460E46EE2001F077FE552001F074FE32
:1003D000380A01F071FEF8B201F06EFE300A01F049
:1003E0006BFEF0B201F068FE280A01F065FEE8B28B
:1003F00001F062FE200A01F05FFEE0B201F05CFE57
:10040000FF2001F059FEFC2001F056FEFF2001F014
:1004100053FEBDE8F041FF2001F04EBEF8B50025C7
:100420000446009590F8240001280BD0012084F8A0
:1004300024002046FFF7D4FE2046FFF735FF0600D4
:1004400002D050E00220F8BDA06A20F4885040F0AD
:100450000200A062022000F06BFF25490968B1FB91
:10046000F0F0400000E0401E00900028FBD1206822
:10047000816841F00801816000F03AFD074608E01C
:1004800000F036FDC01B0A2803D9206880680007E9
:1004900015D4206880680007F2D42068816841F094
:1004A0000401816000F024FD074612E000F020FD09
:1004B000C01B0A280DD920688068400709D5A06AAA
:1004C00020F0020040F01000A06284F824500120C7
:1004D000F8BD206880684007E8D4A06A20F00200D8
:1004E00040F00100A06284F824503046F8BD0000BE
:1004F00014000020F8B50024009490F8242025462C
:10050000012A12D0012280F824204A681F23072ADA
:100510000DD20668776B521E02EB820293409F4316
:100520000B6893401F43776319E00220F8BD06680B
:100530000D2A0AD2376BD21F02EB820293409F43EF
:100540000B6893401F43376309E0F76A0D3A02EBEB
:10055000820293409F430B6893401F43F7620A68EF
:10056000072306680A2A0AD3F7680A3A02EB42020E
:1005700093409F438B6893401F43F76008E03769BF
:1005800002EB420293409F438B6893401F433761C5
:100590000A68102A01D0112A20D1124B02689A420F
:1005A00017D193681B0219D4936843F40003936036
:1005B0000968102912D10C490C4A0968B1FBF2F103
:1005C00001EB8101490000E0491E00910029FBD1A7
:1005D00004E0816A41F020018162012480F8245006
:1005E0002046F8BD002401401400002040420F00C6
:1005F00070477047704700002DE9F04104004FF04C
:1006000000057FD0A06A002628B9E66284F824603D
:10061000204600F081F82046FFF7E2FDA16AC906F6
:1006200000D420B1A06A40F01000A0626AE0A16A84
:1006300021F4885141F00201A162334923688B42C1
:10064000E16904D1B1F5402F01D14FF40021277B9E
:100650004FF4807C41EA470261680A43A168614522
:1006600008D0012906D0002194F814E0BEF1010F52
:1006700002D00AE06146F7E7C7B1A76A47F0200752
:10068000A762E76A47F00107E7625F6827F46947F6
:100690000F435F60236899681C4F3940114399608C
:1006A000A16861450BD0012909D00CE0DFF860E0BA
:1006B000A7690EEB47370F4347F40061E5E7218A4E
:1006C0000D05A5F580152168CB6A23F470032B4333
:1006D000CB62216889680F4B1940914208D1E662CC
:1006E000A16A21F0020141F00101A162BDE8F0819F
:1006F000A06A20F0020040F01000A062E06A40F022
:100700000100E0620120F1E7003C0140FDF7E1FF5C
:1007100000E0FFFFFE0E1FFF70B586B00025064605
:1007200000950195029503950068194988422DD1DD
:100730001849886940F400708861886900F4007085
:100740000490886940F0100088618869694600F06B
:10075000100004900320009001900F4800F0BEFAB2
:100760000F4C0E48C4E900058020C4E90250400047
:1007700020618000C4E90505C000E061204600F06A
:10078000BBF908B1FFF7F3FD3462666206B070BDD5
:100790000024014000100240001001400800024007
:1007A0004C0800202DE9F047894604463B49006883
:1007B0003B4F0E1D9046884201D0B84207D13068A9
:1007C00010F4702F03D001252846BDE8F08794F877
:1007D000240001280CD0012084F824002046FFF7D3
:1007E00063FD05004FF0000004D084F82400EBE71F
:1007F0000220EAE7A16A40F60162914341F4807168
:10080000A1622168B94218D1326812F4702F14D055
:10081000A16A41F48011A1623168490505D5A16A38
:1008200021F4005141F48051A162A16AC9040AD5A2
:10083000E16A21F00601E16206E0A26A22F4801278
:10084000A2624968E9E7E06284F82400216A154859
:100850008862216A1448C862216A144808632168C2
:100860006FF0020008602068816841F48071816047
:10087000216843464A464C31206A00F07BF92068E3
:100880008168C1F342410729816803D041F4801196
:10089000816099E741F4A001FAE7000000240140DB
:1008A00000280140370200089F0200088502000866
:1008B0002DE9F05FC16B0A6801680B68046C4FF0AA
:1008C000040808FA04F8844D844E854FDFF814C2FA
:1008D000DFF81492DFF814A2DFF814B2DFF814E2A4
:1008E00018EA020F65D05FEA437862D50A6892067B
:1008F00003D40A6822F004020A60DFF8F0814FF4A2
:100900008062016808F1140813011402414524D9DA
:10091000A9420DD0B1420FD0B9421AD0614515D0CD
:10092000494515D0514501D1120312E0594501D175
:1009300004220EE0714501D140220AE06D4D1435CC
:10094000A94206D06B4A2832914201D11A4600E0F2
:1009500022466749091F0A6029E0A94213D0B14223
:1009600015D0B94220D061451BD049451BD0514517
:1009700002D14FF4800217E0414502D14FF080626E
:1009800012E0594501D104220EE0714501D1402207
:100990000AE0584D1435A94206D0564A28329142F1
:1009A00001D11A4600E022464B4908394A60C16A23
:1009B00071E04FF0020808FA04F818EA020F70D04C
:1009C0005FEA83786DD50A68920606D40A6822F039
:1009D0000A020A60012180F82110DFF810814FF42B
:1009E0000072016808F1140813011402414524D96A
:1009F000A9420DD0B1420FD0B9421AD0614515D0ED
:100A0000494515D0514501D1120312E0594501D194
:100A100002220EE0714501D120220AE0354D143545
:100A2000A94206D0334A2832914201D11A4600E049
:100A300022462F49091F0A6029E0A94213D0B1427A
:100A400015D0B94220D061451BD049451BD0514536
:100A500002D14FF4001217E0414502D14FF000726D
:100A600012E0594501D102220EE0714501D1202248
:100A70000AE0204D1435A94206D01E4A2832914280
:100A800001D11A4600E02246134908394A60002184
:100A900080F82010816A00291CD0BDE8F05F08476B
:100AA000FFE70825A540154214D01A0712D50A6899
:100AB00022F00E020A6090F84020C36B012101FA77
:100AC00002F25A60816380F82110002180F8201022
:100AD000016BE0E7BDE8F09F080002401C00024007
:100AE0003000024044000240580002406C000240C6
:100AF000080402401C04024030B560B11A4B026881
:100B000014219A4209D2194B1344B3FBF1F1890025
:100B1000016417490AE0012030BD134B5B421344C6
:100B2000B3FBF1F1890001640F490839C163022167
:100B300080F82110136843F6F0718B43F0E901143B
:100B40002143D0E902452C432143046921434469F0
:100B5000214384692143194311600021416301222B
:100B600042770177084630BD08040240F8FFFDBF18
:100B70000000024070B5044690F8200000250128CE
:100B80000CD0012084F8200094F821600020012E70
:100B900006D084F820000225284670BD022070BDD2
:100BA000022684F82160A0632068066826F001060A
:100BB00006602046FFF7BEFBE06A00282068016857
:100BC00002D041F00E0106E021F00401016020682E
:100BD000016841F00A0101602068016841F00101EB
:100BE0000160D9E770B5044600F082F90546601C43
:100BF00002D004480078044400F07AF9401BA04277
:100C0000FAD370BD0800002010B51C4A1C4C012806
:100C100012D0B0F5005F30D10121104600F05AF932
:100C2000A078C0F10100C3B2A37062782178BDE85A
:100C3000104014A001F0BEBB0221104600F04AF99A
:100C4000A378012B0FD0002B17D160780321B0FBC4
:100C5000F1F201FB1202521C62701A20E0707F2038
:100C600020716371E2E720780521B0FBF1F201FB0E
:100C70001201491C21706278D9E710BD000C0140B7
:100C800000000020436F756E7465725F4672657177
:100C9000203D2025642C2053656C65637465725F6C
:100CA000566F6C74616765203D2025642C204F755C
:100CB000747075745F4D6F6465203D2025640D0A66
:100CC00000000000044910B50A68024202D0086022
:100CD000FFF79AFF10BD0000140401402DE9F84F02
:100CE000DFF8C8910024A9F1040B23460F2709F16E
:100CF000040AABF1040ED1E00125A54006EA050285
:100D0000AA4276D1DFF8A8C14E68A6EB0C0866456A
:100D10002BD00DDC032E34D005DC36B3012E19D0D8
:100D2000022E2FD11BE0112E16D0122E2AD119E03F
:100D3000B8F5881F19D006DCB8F5803F15D0B8F596
:100D4000801F1FD111E0B8F5001F0ED0B8F5041FA9
:100D500018D10AE0CB6815E0CB681B1D12E0CB6808
:100D600008330FE0CB680C330CE08B682BB1012B00
:100D70004FF0080303D0456104E0042302E005615D
:100D800000E00023FF2A01D8064601E000F1040636
:100D90004FEA840501D9A5F12005D6F8008007FAAD
:100DA00005FC28EA0C0803FA05F548EA0508C6F828
:100DB00000804D68ED0070D53E4DAE6946F00106ED
:100DC000AE61AD6924F0030605F0010500953A4DCA
:100DD00006EB050CDCF80850A607360F07FA06F8F4
:100DE00025EA0805DFF8D480404503D14FF000081C
:100DF00025E052E0DFF8C880404502D14FF00108FD
:100E00001DE0DFF8C080404502D14FF0020816E037
:100E1000DFF8B480404502D14FF003080FE0DFF85F
:100E2000AC80404502D14FF0040808E0DFF8A08014
:100E3000404502D14FF0050801E04FF0060808FADE
:100E400006F848EA0508CCF808804D68D9F8006033
:100E5000ED024D4601D5164300E096432E604D68E5
:100E6000DAF80060AD02554601D5164300E096431E
:100E70002E604D68DBF80060AD035D4601D516437A
:100E800000E096432E604D68DEF80060ED03754685
:100E900001D5164300E096432E60641C0A6816468E
:100EA000E2407FF429AFBDE8F88F0000080401405C
:100EB0000000111000100240000001400008014035
:100EC000000C0140001001400014014000180140D6
:100ED000001C0140C26821EA02030A4043EA0241C1
:100EE000016170470AB1016170470904FBE7000026
:100EF000014880687047000008000020006C7047BF
:100F000070B5040025D094F83D00002520B984F880
:100F10003C50204600F04EF9242084F83D00206823
:100F2000016821F0010101602068016841F400417D
:100F300001602068016821F40041016000F060FB5D
:100F40004D4A6168914201D84C4900E04C498842C1
:100F500001D2012070BD4B492368B0FBF1F15E68FE
:100F600026F03F060E435E606368934206D94FF455
:100F7000967359434FF47A73B1FBF3F12368491C1C
:100F80001E6A26F03F06314319626168914210D80B
:100F90004900401EB0FBF1F2521CC2F30B02042ABE
:100FA00001D2042022E0B0FBF1F0401CC0F30B00A2
:100FB0001CE0A268F2B301EBC10303EB0116431E70
:100FC000B3FBF6F35B1C43F480431B0549D092B39B
:100FD00001EBC10202EB0111401EB0FBF1F0401C1D
:100FE000C0F30B0040F4804040F400402168CA691F
:100FF0004CF6FF739A431043C861D4E907100143CC
:101000002068026822F0C00211430160D4E90301A4
:1010100001432068826848F2FF339A43114381609C
:10102000D4E9050108432168CA6822F0FF02104391
:10103000C86001E00EE016E02068016841F001019F
:1010400001602564202084F83D00256384F83E502B
:10105000002070BD01EB4106431EB3FBF6F35B1CA1
:10106000B3E70120C2E701EB4101401EB0FBF1F004
:10107000401CC0F30B00B7E7A086010080841E006F
:1010800000093D0040420F002DE9F84F1F469046F1
:101090008A460446DDF82890FFF72AFF054694F8B3
:1010A0003D0020287FD11923012240492046009588
:1010B00000F0F8FD002876D194F83C00012872D0A9
:1010C000012084F83C0020680168C90703D1016849
:1010D00041F0010101602068016821F400610160B4
:1010E000212084F83D00102084F83E00002626646C
:1010F000C4F824806785608D20852D48E0622B46EA
:101100004A465146204600F053FD90B92068416997
:101110008069009036E02A464946204600F068FE85
:1011200050B1206C042804D12068016841F400719A
:1011300001600120BDE8F88F606A216800780861CD
:10114000606A401C6062618D491E6185218D491E67
:1011500089B2218522685369DB435B070BD451B107
:1011600000781061606A401C6062608D401E60857E
:10117000208D401E20852A464946204600F066FD07
:101180000028CED1208D0028C5D154F83D0B016830
:1011900041F400710160202004F81E09E6776677AB
:1011A0000020C7E7FFE70220C4E7000002001000AC
:1011B0000000FFFF10B586B000210091019102915F
:1011C000039100680F4988421AD10F4CA06940F082
:1011D0000800A061A069694600F008000490C020E2
:1011E000009012200190032003900848FFF776FD3D
:1011F000E06940F40010E061E06900F40010049040
:1012000006B010BD0054004000100240000C014028
:10121000024881680278114481607047080000200C
:10122000074810B5016841F010010160032000F08B
:101230006DF80F2000F006F800F024F8002010BD33
:101240000020024070B50D4D04464FF47A712878A5
:10125000B1FBF0F00A490968B1FBF0F000F0A6FB21
:1012600048B9102C07D200222146501E00F02EF85B
:1012700000206C6070BD012070BD000008000020DF
:1012800014000020094808B5816941F0010181611D
:10129000816901F001010091C16941F08051C16192
:1012A000C06900F08050009008BD000000100240AE
:1012B000002809DB00F01F02012191404009800055
:1012C00000F1E020C0F8001170470000F0B40E4BB0
:1012D0001B680C46C3F30223C3F10705042D00D994
:1012E0000425191D072901D2002300E0DB1E012679
:1012F00006FA05F1491E214099409E40761E16408F
:101300003143F0BC01F066B80CED00E0064900F096
:10131000070208684FF6FF03184040EA0220034A1C
:1013200010430860704700000CED00E00000FA0573
:1013300010B501460020284C04292FD00BDC0129D0
:1013400030D0022929D100F06BF96168C1F38131F5
:10135000491C49001FE0082920D010291DD16168CF
:101360002268D20119D51D48C1F38342C903805CAC
:101370000AD56168194AC1F34041921E515C184A6E
:10138000B2FBF1F1484301E0164948436168490264
:1013900003D440000321B0FBF1F010BDBDE81040C4
:1013A00000F04EB9226AC2F30121012903D192074C
:1013B00001D5C80310BD022905D1626A920702D582
:1013C00049F6404010BD0329FCD121688903F9D5B5
:1013D0004FF2244010BD00000010024048270008D2
:1013E00000127A0000093D002DE9F8430546007817
:1013F000354CC00754D0E0690026C00008D4E0692D
:1014000040F08050E061E069012600F080500090DB
:101410002E480168C90512D40168804641F48071E4
:101420000160FFF765FD074605E000BFFFF760FDBF
:10143000C01B642823D8D8F80000C005F6D5206A60
:1014400010F4407021D0A98801F4407181421CD071
:10145000206A1F49012220F440700A6000220A60BD
:101460002062C00711D0FFF743FD074641F28838DC
:1014700008E000BFFFF73CFDC11B414502D9032036
:10148000BDE8F883206A8007F4D5206A696820F4F3
:101490004070084320621EB1E06920F08050E06196
:1014A0002878800705D56068A96820F44040084383
:1014B00060602878C00605D56068696920F48000FE
:1014C000084360600020DBE700100240007000402D
:1014D000400442422DE9F0470F46050061D0434EDB
:1014E000306800F00700B84209D2306820F00700E9
:1014F00038433060306800F00700B84251D12868A6
:101500003B4C810712D5400703D5606840F4E0608A
:1015100060602878000703D5606840F46050606020
:101520006068A96820F0F000084360602878C00770
:1015300028D06868012810D02168022810D08907B7
:1015400000292EDA616821F0030101436160FFF791
:10155000CFFC804641F288390DE021688903EFE72E
:101560008901EDE7FFF7C4FCA0EB0801494502D96A
:101570000320BDE8F0876068696800F00C00B0EBFC
:10158000810FEFD1306800F00700B8420BD9306806
:1015900020F0070038433060306800F00700B842A0
:1015A00001D00120E5E72878400705D56068E968A3
:1015B00020F4E060084360602878000706D5606882
:1015C000296920F4605040EAC100606000F038F8FA
:1015D0006168084AC1F30311515CC84006490860BC
:1015E00006480068FFF72EFE0020C2E700200240F8
:1015F0000010024058270008140000200C000020B2
:101600000448054900684968044AC1F30221515C55
:10161000C8407047140000200010024068270008EE
:101620000448054900684968044AC1F3C221515C75
:10163000C8407047140000200010024068270008CE
:101640000E4A51680E4801F00C03042B11D0082BF0
:101650000FD10C48C1F38343C903C05C0AD551685C
:10166000084AC1F34041921E515C054A5043B0FB09
:10167000F1F07047044948437047000000100240F1
:1016800000127A003627000800093D002DE9F84FC6
:10169000040070D02078C04DC00749D06868C0F3FE
:1016A0008100012807D06868C0F38100022809D1B1
:1016B0006868C00306D52868800339D560680028AB
:1016C000E7D035E06068B0F5803F0BD010B1B0F5E1
:1016D000A02F11D0286820F480302860286820F4DA
:1016E000802002E0286840F480302860606890B173
:1016F000FFF7FEFB06460AE0286840F480202860D9
:10170000F0E700BFFFF7F4FB801B642873D828685C
:101710008003F7D50CE0FFF7EBFB064605E000BFC2
:10172000FFF7E6FB801B6428F0D828688003F7D415
:1017300020789A4E80074FF001094FF0000839D504
:10174000686810F00C0F07D06868C0F381000228A9
:1017500009D16868C00306D42868800714D52069B9
:10176000012808D110E02069B0B1C6F80090FFF759
:10177000BFFB074605E00AE1FFF7BAFBC01B0228E2
:10178000C4D828688007F7D52868616920F0F80078
:1017900040EAC10028600DE0C6F80080FFF7A8FB12
:1017A000074604E0FFF7A4FBC01B022823D82868E3
:1017B0008007F7D4207800072CD57948A169D9B1E2
:1017C000C0F80090FFF794FB074604E0FFF790FB9A
:1017D000C01B02280FD8686A8007F7D571484FF4FC
:1017E000FA510068B0FBF1F0009000BF0098411E74
:1017F0000091FAD20EE080E0C0F80080FFF778FB9D
:10180000074604E0FFF774FBC01B022875D8686A1E
:101810008007F7D42078400760D5E8690027C0002A
:1018200008D4E86940F08050E861E869012700F0D9
:10183000805000905C480168C90513D40168834654
:1018400041F480710160FFF753FB824606E000BF60
:10185000FFF74EFBA0EB0A0064284ED8DBF800002F
:10186000C005F5D5E06801280AD008B1052813D0D5
:10187000286A20F001002862286A20F0040002E0B3
:10188000286A40F001002862E06841F2883B98B184
:10189000FFF72EFB82460BE0286A40F00400286226
:1018A000EEE700BFFFF724FBA0EB0A0159455AD829
:1018B000286A8007F6D50CE0FFF71AFB824605E0A0
:1018C000FFF716FBA0EB0A0159454CD8286A8007A0
:1018D000F6D41FB1E86920F08050E861E06988B370
:1018E0006968C1F38101022944D00228C6F86080EA
:1018F00004D0FFF7FDFA044638E034E0FFF7F8FAC9
:10190000074604E0FFF7F4FAC01B02282BD828682A
:101910008001F7D4206AB0F5803F05D16868A168DE
:1019200020F4003008436860D4E90801084369687E
:1019300021F4741108436860C6F86090FFF7D8FA84
:10194000044606E025E000BFFFF7D2FA001B02289C
:1019500009D828688001F7D51BE000BFFFF7C8FA57
:10196000001B022802D90320BDE8F88F28688001F7
:10197000F4D40EE00128F7D06868226A00F48031C0
:10198000914204D1616A00F47010884201D00120B4
:10199000EAE70020E8E700000010024000004242B1
:1019A00080044242140000200070004010B5401E28
:1019B000B0F1807F01D3012010BD4FF0E0246061C1
:1019C0000F21601700F006FD0020A06107202061B4
:1019D000002010BD70B5040004D094F8410000252B
:1019E00010B106E0012070BD84F84050204600F0A0
:1019F00023F8242084F841002068C16821F40051B4
:101A0000C160204600F03CFC2068016921F490414F
:101A100001612068416921F02A0141612068C168A3
:101A200041F40051C1606564202084F8410084F8CD
:101A300042006563002070BD70B586B0002400943C
:101A4000019402940394234E036823490220032245
:101A5000224DB34219D18B6943F480438B618B696A
:101A600003F4804304938B6943F004038B61896919
:101A7000039201F0040104910102CDE900106946CE
:101A80002846FFF72BF928151BE0154EB3421FD14E
:101A9000CB6943F40033CB61CB6903F40033049387
:101AA0008B6943F004038B618969039201F004019F
:101AB00004910421CDE9001069462846FFF70EF98C
:101AC0000820CDE90004694628460294FFF706F98C
:101AD00006B070BD0038014000100240000801400F
:101AE000004400402DE9F843044690F841001F46A9
:101AF00016460D46202802D00220BDE8F8837DB1AD
:101B000076B100206064212084F84100FFF7F0F9ED
:101B1000A6848046E684A068B0F5805F02D003E02A
:101B20000120EAE7206910B12E4600250EE00026CC
:101B30000CE08021204600F0FFFBA0B9AEB116F802
:101B4000010B21684860E08C401EE084E08C434635
:101B50004FF0000200970028EBD14FF040012046E3
:101B600000F0EAFB30B10320C7E735F8020BC0F301
:101B70000800E6E7202084F841000020BDE7FEE7EA
:101B800001684A69D24352050FD46FF480624A61FA
:101B9000002140F8301F202242738173026942F015
:101BA00004020261017301207047002070470000A9
:101BB000F8B50446C06A1E460D461746082807D0E9
:101BC000012805D010F5803F02D0206B122804D1E7
:101BD0002068016841F480710160134600224FF0D3
:101BE00001112046009600F05DF840B120680068C1
:101BF000C00502D54FF4007020640320F8BD2069B1
:101C0000B0F5804F0ED00620216800EAD51040F0D4
:101C1000F000086133463A460B49204600F08AF846
:101C200078B902E005F0FE0000E0E8B22168086142
:101C3000054933463A46891F204600F07BF80028C4
:101C4000DCD00120F8BD00000800010070B5164688
:101C50000D4604461EE02046FFF792FF08B1012022
:101C600070BD681C16D0FFF743F9801BA84200D84E
:101C700085B920684069C04340070BD5002044F86F
:101C8000300F20216173A073216941F0200121618F
:101C90002073E4E720684069C0434007DBD400209C
:101CA00070BD00002DE9F047984617460D460446E2
:101CB000C1F30746DDF820902AE000BFB8F1FF3FEE
:101CC00026D0FFF715F9A0EB0901414502D8B8F17C
:101CD000000F1DD12068012E16D0806925EA000072
:101CE0000004000C12D00020B84211D1002044F8AA
:101CF000300F20216173A073216941F0200121611F
:101D000020730120BDE8F0874069E7E70120EBE799
:101D10002068012E0AD0806925EA00000004000C2A
:101D200006D00020B842C9D00020EBE74069F3E7B5
:101D30000120F7E72DE9F047984616460D46044680
:101D40004FF000094FF0200AC1F3074723E0206855
:101D50004069C043400515D42068016841F4007112
:101D6000016021686FF480604861C4F8309084F8A5
:101D70003DA084F83E90216C41F00401216484F878
:101D80003C9021E0701C06D0FFF7B2F8A0EB0800F1
:101D9000B04203D816B1012F1FD021E02068012FD7
:101DA00015D0806925EA00000004000C18D000BF9F
:101DB00044F8309F84F80DA084F80E90216941F01A
:101DC0002001216184F80C900120BDE8F087406972
:101DD00025EA00000004000CEAD12068406901E017
:101DE0002068806925EA00000004000CAFD1ECE710
:101DF00070B516460D4604461EE02046FFF7C0FEAD
:101E000008B1012070BD681C16D0FFF771F8801B67
:101E1000A84200D885B920684069C04300060BD5A8
:101E2000002044F8300F20216173A073216941F034
:101E3000200121612073E4E720684069C043000667
:101E4000DBD4002070BD00002DE9F0410024069D88
:101E50001F4690460A4EED1E0EE000BF36F81410E5
:101E600008EB111006EB440180B2498807EB111111
:101E700089B2FEF77EFAA41CAC42EFDBBDE8F0812C
:101E80001C000020FEB50024184800940194164957
:101E9000029401608915816001250573047502268D
:101EA00006614FF460214460C161FEF7A5FB08B1F3
:101EB000FEF75DFA0A20CDE90005694602940B4859
:101EC000FEF718FB08B1FEF752FA0B20CDE9000629
:101ED00069460648FEF70EFB08B1FEF748FA0348CC
:101EE000FEF79CFAFEBD0000002401401C08002003
:101EF000094808B5416941F001014161406900228A
:101F000000F00100009011460B20FFF7DFF9BDE85B
:101F100008400B20FFF7CCB9001002402DE9F0413A
:101F200086B000243148009401940294039481699E
:101F300041F010018161816901F010010491816912
:101F400041F004018161816901F00401049181691A
:101F500041F0080181618069254F00F0080040F2DE
:101F600023150490002229463846FEF7BBFFDFF810
:101F7000848000224FF470614046FEF7B3FF009565
:101F8000022601250396CDE9015469463846FEF73D
:101F9000A5FE4FF4FE50CDE90005CDE902466946A5
:101FA0004046FEF79BFE144E6803CDE900066946E5
:101FB00002944046FEF792FE0095CDE90164694621
:101FC0000E48FEF78BFE002211460720FFF77EF930
:101FD0000620FFF76DF9002211462820FFF776F959
:101FE0002820FFF765F906B0BDE8F0810010024037
:101FF000000C0140001001400000211000080140C9
:102000000D4810B50B4901600C49416000214FF4A7
:1020100080428160C0E9031241618161C161016256
:10202000FEF76EFF002803D0BDE81040FEF79FB911
:1020300010BD00000054004090080020A086010060
:102040000C4810B50A4901604FF4E13141600021AC
:1020500081600C22C160C0E904128161C161FFF797
:10206000B9FC002803D0BDE81040FEF780B910BDD0
:1020700000380140E40800200C4810B50A4901600E
:102080004FF416514160002181600C22C160C0E90B
:1020900004128161C161FFF79DFC002803D0BDE8F7
:1020A0001040FEF764B910BD004400402C09002028
:1020B000FEE7FEE77047704701B54FF47A730122DF
:1020C00069460248FFF70EFD08BD00002C090020FC
:1020D00010B50446EE20FFF7EFFF4220FFF7ECFFBC
:1020E000200AFFF7E9FFE0B2FFF7E6FFFF20FFF766
:1020F000E3FFFC20FFF7E0FFFF20FFF7DDFFBDE877
:102100001040FF20FFF7D8BF10B50446EE20FFF7C0
:10211000D3FF4120FFF7D0FF200AFFF7CDFFE0B249
:10212000FFF7CAFFFF20FFF7C7FFFC20FFF7C4FF40
:10213000FF20FFF7C1FFBDE81040FF20FFF7BCBF45
:102140002DE9F04100EB80004003212490FBF4F0E6
:10215000069DA0F164061F782C78643081420BDD67
:10216000A74209D91078401E1870287811780844C1
:10217000400810700CA00CE0B1420EDAA7420CD956
:102180001078401C287018781178084440081070A6
:1021900008A0BDE8F04100F00DB9147007A000F0F0
:1021A00009F90020BDE8F081746F6F2068696768E5
:1021B00000000000746F6F206C6F77006A75737495
:1021C000000000007CB50021019102248DF805007B
:1021D00001ADFF2606E00848FEF790FE042801D076
:1021E000FEF7C5F823462A465C2103480096FEF711
:1021F0004BFF0028EFD17CBD90080020FFF708B806
:1022000030B595B028216846FDF7B7FF14210AA81C
:10221000FDF7B3FF18210FA8FDF7AFFF0121080458
:10222000CDE900100025029502240491CDE9074074
:102230004FF4E01009906846FFF728FA08B172B62B
:10224000FEE70AA90F2081E831004FF48060CDE954
:102250000D0502210AA8FFF73DF908B172B6FEE7A5
:102260004FF4404011900F940FA8FFF7BDF80028DD
:1022700001D072B6FEE715B030BD7047FFF7C0BEA3
:1022800070B5044600680169E26821F440511143C9
:1022900001612169A0680843616908432168CA682F
:1022A00041F20C639A430243CA6020684169A26903
:1022B00021F44071114341611E492068884202D1D6
:1022C000FFF7AEF901E0FFF79BF900EBC00101EB6E
:1022D0000012606864218000B2FBF0F3B3FBF1F3FD
:1022E0006FF018067343B2FBF0F5B2FBF0F605EBA6
:1022F0008305322303EB0515B5FBF1F5B6FBF1F6CB
:1023000005F0F00505EB0615B2FBF0F6B2FBF0F0B8
:10231000B0FBF1F06FF01802504306EB800003EBC6
:102320000010B0FBF1F0216800F00F002844886035
:1023300070BD0000003801402DE9F0419846174675
:102340000E460446069D27E0681C25D02DB1FEF7F9
:10235000CFFDA0EB0800A8421ED920680C3050E841
:10236000001F21F4D07140E80012002AF5D1206846
:10237000143050E8001F21F0010140E80012002A4B
:10238000F5D1202084F8410084F84200002084F830
:1023900040000320BDE8F0812068006836EA0000B4
:1023A00004D00020B842CFD00020F3E70120F9E7A5
:1023B000FEE700000FB4054B10B503A9044A0298CC
:1023C00000F028F810BC5DF814FB00006925000837
:1023D000180000200907090E002804DB00F1E020A6
:1023E00080F80014704700F00F0000F1E02080F842
:1023F000141D704702E008C8121F08C1002AFAD154
:1024000070477047002001E001C1121F002AFBD174
:10241000704700002DE9FF4F89B09B460446002518
:1024200006E025280BD05A460B999047641C6D1C7A
:1024300020780028F5D10DB02846BDE8F08F0027A0
:10244000B8460122474900E0074314F8013F203B0A
:1024500002FA03F00842F7D120782E2819D114F897
:10246000010F47F004072A280ED06FF02F022078C2
:10247000A0F1300109290CD808EB880102EB4101D9
:1024800000EB0108641CF2E70A98641C50F8048B06
:102490000A9020780028CED0642808D0692806D079
:1024A00075281ED05A460B9990476D1C58E00A9922
:1024B0004FF00A0901C90A91002802DA40422D2191
:1024C00002E0390504D52B218DF82010012103E00D
:1024D000F90704D02021F7E78A4608AE0DE0002175
:1024E000FAE70A994FF00A0901C90A91F7E7494644
:1024F000FDF74EFE303106F8011D0028F7D1ADEB97
:10250000060000F12009780701D44FF00108C84502
:1025100002DDA8EB090000E000208046002706E06D
:1025200008A85A46C05D0B9990476D1C7F1C574503
:10253000F6DB04E030205A460B9990476D1CB8F149
:102540000001A8F10108F5DC05E016F8010B5A4678
:102550000B9990476D1CB9F10001A9F10109F4DC58
:10256000641C65E70928010013B54FF6FF730122CB
:1025700069460248FFF7B6FA00981CBDE40800203F
:1025800008B5FEF74DFEFFF73BFEFFF7C7FCFFF770
:10259000AFFCFFF777FCFFF733FDFFF751FDFFF7C7
:1025A0006BFDFFF76BFE0020FFF792FD0020FFF7A9
:1025B000ABFD4FF4FA734FF4AF72C8213220FDF730
:1025C000FBFE4FF4FC60FFF79FFDDFF85491554D83
:1025D000DFF854B1554C4FF480784FF4806A287876
:1025E00006282BD2DFE800F02A031D717A8300222F
:1025F000464641464F464846FEF774FC00224FF4DB
:1026000000713846FEF76EFC002251463846FEF750
:1026100069FC00224FF400613846FEF763FC01229A
:1026200008E00022464641464F464846FEF75AFC1F
:1026300001224CE031465846FEF754FC3C48FDF779
:10264000CFFD5646524639493948FEF7ABF80A20C5
:10265000FEF7C8FA02215846FEF73CFC2188002705
:102660000B4640F6FF70BC464FEA060A34F81C20C1
:102670009A4200DD134604EB4C067688BE4200DD2C
:1026800037468A4200DA1146864200DA30463E1A60
:102690000CF1020CD445E9DB01215846FEF71AFC87
:1026A00020483146401D431E821E00906878FFF787
:1026B00047FDE878FFF786FDC8233222A11C1B489E
:1026C000CDF800A0FFF7C0FB89E7012207E04FF437
:1026D00000713846FEF706FC012215E0002246464E
:1026E00041464F464846FEF7FDFB0022EFE7012238
:1026F000464641464F464846FEF7F4FB012251024A
:102700003846FEF7EFFB002251463846FEF7EAFB5B
:102710000122D1023846FEF7E5FB00228AE70000DD
:102720000010014000000020000C01401C000020AF
:102730001C080020010202030405060708090A0B11
:102740000C0D0E0F10100102020304050607080904
:102750000A0B0C0D0E0F101000000000000000000E
:102760000102030406070809000000000102030437
:1027700090270008000000201C000000F42300083F
:10278000AC2700081C0000205C190000042400088D
:102790000101001A7F00000001000000100000008D
:0C27A000000000000024F4000000000015
:0400000508000131BD
:00000001FF
