:020000040800F2
:1000000068A90020490100081D3C00080D340008C3
:10001000193C0008411E0008FD3F000800000000D8
:10002000000000000000000000000000693D000822
:10003000711E000800000000593C00086D3D0008DA
:100040006301000863010008630100086301000800
:1000500063010008630100086301000863010008F0
:1000600063010008630100086301000863010008E0
:1000700063010008630100086301000863010008D0
:100080006301000863010008591D000863010008AE
:1000900063010008630100086301000863010008B0
:1000A00063010008630100086301000863010008A0
:1000B0006301000863010008630100086301000890
:1000C0006301000863010008630100086301000880
:1000D0006301000863010008630100086301000870
:1000E0006301000863010008630100086301000860
:1000F0006301000863010008630100086301000850
:10010000630100086301000863010008630100083F
:10011000630100086301000863010008630100082F
:10012000630100086301000863010008630100081F
:10013000DFF810D001F09EFD00480047595000083C
:10014000AFF3008068A900200648804706480047B2
:10015000FEE7FEE7FEE7FEE7FEE7FEE7FEE7FEE777
:10016000FEE7FEE7DD3D0008310100082DE9F04F14
:100170004FF0000C4FF0000301EB9C5EBEF9025003
:10018000BEF900400EF5806EBEF90290BEF9008007
:100190000EF5806EBEF90270BEF900600EF5806E3D
:1001A000BEF902B0BEF900A00EF5806ED044D9446D
:1001B000A8EB4A0AA9EB4B0B4FEAA4044FEAA505AA
:1001C00004EBA60405EBA705A4EB6606A5EB670701
:1001D00004EBA80405EBA905A4EB6808A5EB6909E5
:1001E00006EBAB06A7EBAA07A6EB6B0B07EB6A0ABD
:1001F000458020F8044B478020F8046BA0F802905B
:1002000020F8048BA0F802A020F804BB03F101033E
:1002100093FAA3FCB3F5807FAED1A0EB82014FF03F
:10022000100312090FF2341000F1000006B403EBC2
:10023000430C6144A2F5803202EB8332B1F90250E3
:10024000B1F90040A1EB0301B0F902B0B0F900A090
:1002500000F10400A5EB040E0EFB0BFC0AEB4B0EA9
:1002600005FB0ACB04FB0ECAB1F90250B1F90040FC
:10027000A1EB0301B0F90290B0F9008000F1040095
:10028000A5EB040E0EFB09FC08EB490E05FB08C9A3
:1002900004FB0EC8B1F90250B1F90040A1EB030113
:1002A000B0F90270B0F9006000F10400A5EB040E93
:1002B0000EFB07FC06EB470E05FB06C704FB0EC64C
:1002C000B1F90250B1F9004001F10001D044D94424
:1002D000A8EB4A0AA9EB4B0B4FEAA4044FEAA50589
:1002E00004EB264405EB2745A4EBE636A5EBE73700
:1002F00004EB284405EB2945A4EBE838A5EBE939E4
:1003000006EB2B46A7EB2A47A6EBEB3B07EBEA3ABB
:100310004D800C8019444F800E801944A1F8029042
:10032000A1F800801944A1F802A021F804BBB2F59D
:10033000803283DA03EB430C6144A2F101025FEAED
:10034000024E18BFA0EB0C007FF476AF06BC4FEA5C
:10035000830392087FF46AAFBDE8F08F004000008D
:1003600000400000004000005DDD213BA3227E181C
:100370000000412D7EA5412D0000412D00C0004010
:100380005DDD82E75DDD213B7EA5412D0040000063
:100390000040000000400000AA2A94126B39460673
:1003A00049327C0CA8118E2349327C0CA3227E1882
:1003B00021F77931AA2A9412A8118E235DDD213B01
:1003C000A3227E180000412D95C6B13F461A2B1E70
:1003D00058EE3735BEB4C53EA8118E235DDD213BF6
:1003E00063A97138DF089A28B7CDC53E7EA5412D97
:1003F0000000412D00C0004063A92B1E21F7793178
:10040000BEB4C53EBEB47C0C58EE373561AC213B62
:1004100095C6BAF9BAE571383BA737355DDD82E795
:100420005DDD213B7EA5412D21F766D756D53F3DA9
:100430003BA78E23A811C9CAB7CDC53E61AC7E18B3
:10044000AA2AC1C295C6B13FBEB47C0C00400000D0
:1004500000400000004000001E3BB504693E9201D0
:10046000C83C2403EB356409C83C24036B394606B9
:100470006C30060E1E3BB504EB356409AA2A9412B3
:100480006B39460649327C0CAE240917AF37D607C4
:10049000882E8D0F7E1E5D1BEB356409AA2A9412EF
:1004A00024188C1F1E34F10AB3269015A8118E2330
:1004B00049327C0CA3227E18140B60276C30060E88
:1004C0007E1E5D1B7104FB2A882E8D0F461A2B1E83
:1004D000C7FD5A2E9D2C1211FE15E72021F7793108
:1004E000AA2A9412A8118E2387F05334B228131429
:1004F000480D202602EAE536B3269015DF089A2833
:100500009CE32B39AE2409177104FB2A5DDD213BE6
:10051000A3227E180000412D4ED7C53C9320EF1931
:100520008FFB6C2F78D1153E7E1E5D1B21F7793134
:10053000E2CB0F3F641CC61CB8F2683395C6B13FCE
:10054000461A2B1E58EE373597C1FB3F24188C1FD7
:1005500002EAE536F0BCEC3FFE15E720BAE571385B
:10056000A6B8853FD5133D2282E1DB39BEB4C53E36
:10057000A8118E235DDD213B40B1AF3D790FDA2418
:100580004DD9423C2EAE423C480D202656D53F3D2B
:100590008EAB823A140B602778D1153E63A971386F
:1005A000DF089A28B7CDC53EB1A71236A906CE29D5
:1005B00015CA4F3F78A668337104FB2A95C6B13F30
:1005C000BCA576303902212C38C3EC3F7EA5412DE5
:1005D0000000412D00C00040BCA5CE29C7FD5A2E09
:1005E000F0BCEC3F78A620268FFB6C2F09BAB13FF8
:1005F000B1A73D2257F976304DB74F3F63A92B1E67
:1006000021F77931BEB4C53E8EABEF19ECF47432EC
:100610005EB2153E2EAE9015B8F268332DB03F3D58
:1006200040B1121187F053342EAE423CBEB47C0C64
:1006300058EE373561AC213BA6B8D6072BEC123605
:10064000C8AADB39F0BC240302EAE53663A9713895
:1006500097C16EFEDCE7B03734A8E53695C6BAF927
:10066000BAE571383BA73735E2CB0FF59CE32B3960
:1006700078A6683378D173F082E1DB39EDA5793162
:100680004ED7EDEB6DDF823A99A56C2F5DDD82E7E9
:100690005DDD213B7EA5412D9CE33AE352DBB63B79
:1006A00099A5FB2A02EA19DF4DD9423CEDA59A280B
:1006B00087F026DB4ED7C53C78A6202621F766D7E3
:1006C00056D53F3D3BA78E23C7FDDFD363D3AF3D58
:1006D00034A8E720710494D078D1153E63A92B1E6D
:1006E000140B8CCD94CF723EC8AA5D1BA811C9CA49
:1006F000B7CDC53E61AC7E18241850C8E2CB0F3F81
:100700002EAE90157E1E25C615CA4F3F2DB09412F1
:10071000AE244AC451C8853F5EB28D0FAA2AC1C219
:1007200095C6B13FBEB47C0C6C308EC1E2C4D43FE0
:100730004DB76409EB35B1C038C3EC3F09BA460682
:100740001E3B2CC097C1FB3FF0BC240300400000BF
:100750000040000000400000D03E2E019B3F65009D
:10076000363FC9009A3D5B02363FC900693E92019F
:100770005F3C8803D03E2E019A3D5B021E3BB504D0
:10078000693E9201C83C2403D939E205023EF701D3
:10079000F43BED038E380E079A3D5B021E3BB50419
:1007A0003F373908313DC002463A7E05EB356409D2
:1007B000C83C24036B39460692348E0A5F3C88039A
:1007C0008E380E073433B70BF43BED03AF37D60743
:1007D000D231DF0C8A3B5104CE369D086C30060EB8
:1007E0001E3BB504EB356409022F2B0FB23A1A05F4
:1007F00005352B0A932D5010463A7E051E34F10A1A
:10080000212C7311D939E2053433B70BAA2A94127B
:100810006B39460649327C0C3129B413FD38AA06DF
:100820005B31410DB327D2148E380E076C30060EA3
:100830003226EE151F3872077B2FCA0EAE24091719
:10084000AF37D607882E8D0F262321183F3739085A
:10085000932D50109C213719CE369D089D2C1211D6
:100860000E204B1A5D360109A42BD3117E1E5D1B91
:10087000EB356409AA2A9412EB1C6C1C7835C70965
:10088000AF295413561B791D05352B0AB2281314B2
:10089000BE19841E92348E0AB327D21424188C1FDA
:1008A0001E34F10AB326901588169120A933540BF3
:1008B000B1254C16EA1493213433B70BAE24091733
:1008C0004A139222BF321A0CA923C417A8118E23EF
:1008D00049327C0CA3227E1805108824D231DF0C0B
:1008E0009C213719610E7E255B31410D9320EF1954
:1008F000BB0C7126E430A40D891FA71A140B6027C6
:100900006C30060E7E1E5D1B6D094C28F42F680EA0
:10091000721D121CC40735297B2FCA0E641CC61C0D
:100920001B061A2A022F2B0F561B791D7104FB2A56
:10093000882E8D0F461A2B1EC702D82B0E2EEE0FB7
:100940003519DC1E1C01B22C932D501024188C1F5D
:1009500072FF882D182DB11011173A20C7FD5A2E9D
:100960009D2C1211FE15E7201DFC282F212C731140
:10097000EA14932173FAF22FA42BD311D5133D223D
:10098000CAF8B830282B3412BF12E72221F7793188
:10099000AA2A9412A8118E2379F536322D2AF41240
:1009A00091103524D2F3EF32AF295413790FDA24A2
:1009B0002CF2A3333129B413610E7E2587F0533412
:1009C000B2281314480D2026E3EEFF3433287314A5
:1009D0002E0CC12641EDA535B327D214140B602788
:1009E000A1EB483633273115FA09FE2702EAE5362E
:1009F000B3269015DF089A2865E87E373226EE1573
:100A0000C4073529CBE61238B1254C16A906CE29E4
:100A100032E5A1382F25AB168D05652A9CE32B39CD
:100A2000AE2409177104FB2A08E2B0392B2466179B
:100A300055038F2B77E0303AA923C4173902212CB4
:100A4000E9DEAB3A262321181C01B22C5DDD213BE7
:100A5000A3227E180000412DD5DB923B1F22DB181C
:100A6000E4FECF2D4FDAFD3B9C213719C7FD5A2EEE
:100A7000CDD8643C17219319ABFCE42E4ED7C53C6E
:100A80009320EF198FFB6C2FD3D5213D0E204B1AED
:100A900073FAF22F5CD4783D891FA71A57F9763084
:100AA000E8D2C93D041F021B3CF8F93078D1153E4D
:100AB0007E1E5D1B21F779310CD05C3EF81DB81B02
:100AC00006F6F831A5CE9D3E721D121CECF4743270
:100AD00041CDD83EEB1C6C1CD2F3EF32E2CB0F3F82
:100AE000641CC61CB8F2683388CA403FDD1B201D59
:100AF0009FF1DF3332C96B3F561B791D87F05334AA
:100B0000E1C7913FCE1AD31D6FEFC63495C6B13FF2
:100B1000461A2B1E58EE37354EC5CC3FBE19841EE3
:100B200041EDA5350CC4E13F3519DC1E2BEC123626
:100B3000CFC2F13FAD18341F16EB7D3697C1FB3F96
:100B400024188C1F02EAE53665C000409B17E31F9E
:100B5000EFE84B3738BFFF3F11173A20DCE7B037DB
:100B600011BEF83F88169120CBE61238F0BCEC3F5E
:100B7000FE15E720BAE57138D4BBDB3F74153D2183
:100B8000AAE4CF38BFBAC43FEA1493219CE32B39BF
:100B9000AFB9A73F5F14E8218EE28439A6B8853F3C
:100BA000D5133D2282E1DB39A2B75D3F4A13922281
:100BB00077E0303AA5B6303FBF12E7226DDF823AC8
:100BC000AFB5FD3E34123B2364DED33ABEB4C53E1E
:100BD000A8118E235DDD213BD5B3883E1D11E22394
:100BE00057DC6D3BF2B2453E9110352452DBB63BEB
:100BF00015B2FC3D051088244FDAFD3B40B1AF3DF6
:100C0000790FDA244DD9423C71B05B3DED0E2C25B5
:100C10004DD8853CA9AF033D610E7E254ED7C53C1E
:100C2000E8AEA53CD40DCF2551D6033D2EAE423CB7
:100C3000480D202656D53F3D7BADDA3BBB0C7126D7
:100C40005CD4783DD0AC6D3B2E0CC12663D3AF3D58
:100C50002BACFA3AA10B11276DD2E33D8EAB823A51
:100C6000140B602778D1153EF8AA063A870AAF27F9
:100C700085D0453E6AAA8439FA09FE2794CF723E90
:100C8000E3A9FD386D094C28A5CE9D3E63A97138B6
:100C9000DF089A28B7CDC53EEBA8E1375208E72810
:100CA000CCCCEB3E7BA84B37C4073529E2CB0F3FBA
:100CB00012A8B13636078129FBCA303FB1A71236D8
:100CC000A906CE2915CA4F3F57A76E351B061A2A0B
:100CD00032C96B3F05A7C6348D05652A51C8853FCB
:100CE000BBA61934FF04B02A72C79C3F78A66833AC
:100CF0007104FB2A95C6B13F3EA6B232E303452BF1
:100D0000BAC5C43F0BA6F83155038F2BE2C4D43FBC
:100D1000E0A53931C702D82B0CC4E13FBCA5763021
:100D20003902212C38C3EC3FA1A5AF2FAA016A2CB0
:100D300066C2F53F8DA5E42E1C01B22C97C1FB3F86
:100D400081A5152E8E00FA2CCAC0FF3F7EA5412D2D
:100D50000000412D00C0004081A56A2C72FF882D43
:100D600038BFFF3F8DA58F2BE4FECF2D73BEFB3F19
:100D7000A1A5B02A56FE152EB0BDF53FBCA5CE29C3
:100D8000C7FD5A2EF0BCEC3FE0A5E72839FD9F2EA9
:100D900032BCE13F0BA6FE27ABFCE42E77BBD43F71
:100DA0003EA611271DFC282FBFBAC43F78A62026D7
:100DB0008FFB6C2F09BAB13FBBA62C2501FBAF2FCF
:100DC00056B99C3F05A7352473FAF22FA6B8853F84
:100DD00057A73B23E5F93430F8B76B3FB1A73D2265
:100DE00057F976304DB74F3F12A83D21CAF8B830B9
:100DF000A5B6303F7BA83A203CF8F93000B60F3F4B
:100E0000EBA8341FAEF739315EB5EB3E63A92B1E5C
:100E100021F77931BEB4C53EE3A9201D93F6B9315F
:100E200022B49D3E6AAA121C06F6F83188B3723EBF
:100E3000F8AA021B79F53632F2B2453E8EABEF19B5
:100E4000ECF474325EB2153E2BACDB185FF4B232B8
:100E5000CDB1E33DD0ACC417D2F3EF3240B1AF3DDA
:100E60007BADAB1645F32C33B5B0783D2EAE901567
:100E7000B8F268332DB03F3DE8AE73142CF2A333C3
:100E8000A9AF033DA9AF54139FF1DF3328AFC53C91
:100E900071B0341213F11934A9AE853C40B112116E
:100EA00087F053342EAE423C15B2EE0FFBEF8D347B
:100EB000B6ADFD3BF2B2CA0E6FEFC63441ADB63BE4
:100EC000D5B3A40DE3EEFF34D0AC6D3BBEB47C0CC7
:100ED00058EE373561AC213BAFB5540BCCED6E35D8
:100EE000F6ABD33AA5B62B0A41EDA5358EAB823AC7
:100EF000A2B70109B6ECDC3529AB303AA6B8D60763
:100F00002BEC1236C8AADB39AFB9AA06A1EB4836DA
:100F10006AAA8439BFBA7E0516EB7D360FAA2B3933
:100F2000D4BB51048CEAB136B7A9CF38F0BC240346
:100F300002EAE53663A9713811BEF70178E918377E
:100F400012A9123838BFC900EFE84B37C5A8B0372F
:100F500065C09BFF65E87E377BA84B3797C16EFE67
:100F6000DCE7B03734A8E536CFC240FD53E7E137C0
:100F7000F1A77D360CC413FCCBE61238B1A71236AC
:100F80004EC5E6FA42E6423874A7A53595C6BAF9C9
:100F9000BAE571383BA73735E1C78EF832E5A1389D
:100FA00005A7C63432C963F7AAE4CF38D3A65334B1
:100FB00088CA39F623E4FD38A4A6DF33E2CB0FF567
:100FC0009CE32B3978A6683341CDE6F315E3583915
:100FD00050A6EF32A5CEBFF28EE284392CA6743231
:100FE0000CD098F108E2B0390BA6F83178D173F043
:100FF00082E1DB39EDA57931E8D24FEFFCE0063A2A
:10100000D3A5F9305CD42DEE77E0303ABCA576302C
:10101000D3D50CEDF2DF593AA9A5F22F4ED7EDEB5F
:101020006DDF823A99A56C2FCDD8CFEAE9DEAB3AD5
:101030008DA5E42E4FDAB4E964DED33A85A55A2EA5
:10104000D5DB9AE8E1DDFA3A7FA5CF2D5DDD82E7B9
:101050005DDD213B7EA5412DE9DE6DE6DADC473B17
:101060007FA5B22C77E059E557DC6D3B85A5212C97
:1010700008E248E4D5DB923B8DA58F2B9CE33AE355
:1010800052DBB63B99A5FB2A32E52DE2D1DADA3BF9
:10109000A9A5652ACBE624E14FDAFD3BBCA5CE2904
:1010A00065E81DE0CED9203CD3A5352902EA19DF39
:1010B0004DD9423CEDA59A28A1EB18DECDD8643C71
:1010C0000BA6FE2741ED19DD4DD8853C2CA66027E7
:1010D000E3EE1EDCCDD7A53C50A6C12687F026DB6B
:1010E0004ED7C53C78A620262CF231DACFD6E43C88
:1010F000A4A67E25D2F33FD951D6033DD3A6DA2448
:1011000079F551D8D3D5213D05A7352421F766D7E8
:1011100056D53F3D3BA78E23CAF87FD6D8D45B3D3A
:1011200074A7E72273FA9BD55CD4783DB1A73D2222
:101130001DFCBBD4DFD3933DF1A79321C7FDDFD3C3
:1011400063D3AF3D34A8E72072FF06D3E8D2C93D90
:101150007BA83A201C0131D26DD2E33DC5A88C1F7B
:10116000C70261D1F2D1FC3D12A9DC1E710494D0FA
:1011700078D1153E63A92B1E1B06CCCFFED02D3E89
:10118000B7A9791DC40707CF85D0453E0FAAC61C55
:101190006D0947CE0CD05C3E6AAA121C140B8CCD94
:1011A00094CF723EC8AA5D1BBB0CD4CC1CCF883E2A
:1011B00029ABA71A610E21CCA5CE9D3E8EABEF19AF
:1011C000051073CB2ECEB13EF6AB3719A811C9CAA4
:1011D000B7CDC53E61AC7E184A1324CA41CDD83E76
:1011E000D0ACC417EA1483C9CCCCEB3E41AD09178F
:1011F0008816E8C857CCFD3EB6AD4C16241850C82A
:10120000E2CB0F3F2EAE9015BE19BEC76ECB203F6E
:10121000A9AED214561B31C7FBCA303F28AF1314F6
:10122000EB1CA8C688CA403FA9AF54137E1E25C632
:1012300015CA4F3F2DB094120E20A7C5A3C95D3F1C
:10124000B5B0D3119C212DC532C96B3F40B11211ED
:101250002623B9C4C1C8783FCDB15010AE244AC4CA
:1012600051C8853F5EB28D0F3226E0C3E1C7913F82
:10127000F2B2CA0EB3277BC372C79C3F88B3060E77
:1012800031291CC303C7A73F22B4410DAA2AC1C2FA
:1012900095C6B13FBEB47C0C212C6DC227C6BB3FA6
:1012A0005EB5B70B932D1DC2BAC5C43F00B6F10A97
:1012B000022FD3C14EC5CC3FA5B62B0A6C308EC1D0
:1012C000E2C4D43F4DB76409D2314FC176C4DB3F8D
:1012D000F8B79D08343315C10CC4E13FA6B8D60752
:1012E0009234E0C0A1C3E73F56B90E07EB35B1C059
:1012F00038C3EC3F09BA46063F3788C0CFC2F13F3A
:10130000BFBA7E058E3864C066C2F53F77BBB504B0
:10131000D93945C0FEC1F83F32BCED031E3B2CC09D
:1013200097C1FB3FF0BC24035F3C19C030C1FD3FB7
:10133000B0BD5B029A3D0BC0CAC0FF3F73BE9201B5
:10134000D03E03C065C0004038BFC900202A04DB7E
:10135000203A21FA02F00021704721FA02F3D0402E
:10136000C2F120029140084319467047D2B201E011
:1013700000F8012B491EFBD270470022F6E710B59A
:1013800013460A4604461946FFF7F0FF204610BDF3
:10139000421E12F8013F002BFBD111F8013B02F86D
:1013A000013B002BF9D17047F0B480EA0102D40F61
:1013B0004200B2EB410F02D20246084611464A00F3
:1013C00042D0C30DDDB2C1F3C752AD1A202D35DABC
:1013D000C1F3160141F4000204B15242C5F12006E6
:1013E00002FA06F12A411044B3EBD05F23D0C4B116
:1013F000012DA0EBC35009DCF0BC4FF0004202EA23
:10140000C352DBB200F5000000F011BB400000F158
:10141000807000EBC350A0F1807040EAD1704900A9
:1014200009E0490841EAC071A0EBC35000F5000093
:10143000400800EBC350F0BC00F0F0BA614201225A
:1014400002EB4101001BF6E7F0BC704781F0004160
:10145000AAE780F00040A7E780EA010210B502F099
:101460000043400022D04A001FD0010E01EB126160
:10147000C0F35600C2F3560240F4000042F40002EA
:10148000A0FB022000047F39140400D0401C50EA65
:10149000124001D44000491EC2B20C0604EBD01029
:1014A000401C4008802A02D003E0002010BD20F03C
:1014B0000100002900DA0020184310BD30B480EA92
:1014C000010202F0004530F0004221F0004013D04C
:1014D00090B1C30DD40DC2F31601C0F31600E41A87
:1014E00041F4000140F400027D34914201D3641CB8
:1014F00000E04900002C02DA30BC002070474FF4B5
:1015000000000023914201D3891A034340084FEAA7
:101510004101F7D151B1914202D14FF0004105E0B4
:1015200002D24FF0010101E06FF0010103EBC45062
:10153000284430BC00F072BA2DE9FE4F804681EAA3
:101540000300C00F0C46009021F0004123F000453D
:10155000B8EB0200A94105D24046214690461C4600
:101560000B46024623F00040104347D0270DC7F337
:101570000A00C3F30A510290401A019040286BDA26
:10158000C3F3130040F4801B0098924620B100235F
:10159000D2EB030A63EB0B0B01985946C0F14002F2
:1015A000504600F01AFA06460D4650465946019A32
:1015B00000F022FA10EB08006141002487EA115282
:1015C00084EAE7731A4340D0009A62B3019A012A71
:1015D0004FEA075215DC001B61EB02014FF000429D
:1015E00002EA0752CDE90042001C41F58011324663
:1015F0002B4600F059FA03B0BDE8F08F4046214673
:10160000F9E7001B61EB0201001C41F58013001893
:101610005B412018A2F5001747EB030140EAD570A3
:10162000B6196D4111E06D084FEA360645EAC075FE
:101630004FEA0752001B61EB0201001C41F58011CB
:1016400049084FEA30000019514132462B4603B099
:10165000BDE8F04F00F019BA0098012240000023C5
:10166000D0EB020263EBE073009821464FEAE0748E
:10167000B8EB000061EB0401E9E783F000435BE7AE
:1016800081F0004158E72DE9FE4F81EA030404F0A0
:10169000004421F0004100944FF0000B23F0004380
:1016A00050EA01045ED052EA03045BD0C3F30A544B
:1016B000C1F30A552C44A4F2F3340194A0FB025464
:1016C000C1F3130141F48011C3F3130343F48013F6
:1016D00001FB024400FB034E840A970A44EA81544A
:1016E00047EA8357A4FB076802958D0A05FB078527
:1016F0004FEA932C04FB0C542705029D4FEA065831
:1017000047EA1637B5EB08056EEB070C870E920E0D
:1017100047EA811742EA8312A7FB0201B6EB0B01ED
:1017200064EB00042B0D43EA0C335E1844EB1C50B1
:10173000DA465146E7FB0201C5F313044FEA0B33C7
:1017400043EA14534FEA0432019C43EA0603A4F12E
:101750000C040294009CCDE900B400F0A5F903B09C
:10176000BDE8F08F00200146F9E72DE9F04D81EA50
:10177000030404F0004B21F0004514464FF0000A2A
:1017800023F0004150EA050220D054EA01021DD0A6
:10179000C5F30A570246C5F31303C1F31300C1F39F
:1017A0000A5640F4801543F48013A7EB0608101B7B
:1017B000D64608F2FD3873EB050002D308F10108A4
:1017C00001E092185B41B8F1000F03DA00200146F6
:1017D000BDE8F08D00204FF48011064684460EE0EF
:1017E000171B73EB050705D3121B63EB05030643B9
:1017F0004CEA010C49084FEA300092185B4150EA6C
:101800000107EDD152EA030012D082EA040083EA14
:101810000501084305D0101BAB4106D2012200236D
:1018200006E000224FF0004302E06FF00102531087
:101830001AEB06004CEB085110EB0A0041EB0B01D0
:10184000BDE8F04D00F021B9C10F80EAE070084416
:10185000CA079623002100F0EAB896230022114619
:1018600000F0E5B80EB540F2334102910021CDE918
:1018700000110A460B4600F017F903B000BD00F056
:10188000004220F00040C10DC0F3160040F40000FB
:101890007F2901DA00207047962903DCC1F1960107
:1018A000C84001E096398840002AF4D04042704791
:1018B00020F00040C10DC0F3160040F400007F2965
:1018C00001DA00207047962903DCC1F19601C84077
:1018D000704796398840704700F0004230F0004071
:1018E0000AD0C10D01F56071C0F3160042EA015142
:1018F000C20840071143704700200146704701F0BD
:10190000004330B421F0004150EA010206D00A0D34
:10191000A2F56072C1F31301002A02DC30BC002082
:101920007047440F44EAC104C100E01830BC00EB2A
:10193000C25000F073B80000002801DBC0F1004085
:10194000002901DBC1F100418842704730B50B46E8
:10195000014600202022012409E021FA02F59D42DF
:1019600005D303FA02F5491B04FA02F52844151EB3
:10197000A2F10102F1DC30BD2DE9F05F0546002047
:1019800092469B4688460646814640241BE02846F0
:10199000414647462246FFF7D9FC53465A46C01AED
:1019A000914110D311461846224600F016F82D1A20
:1019B00067EB01084F4622460120002100F00DF898
:1019C00017EB00094E41201EA4F10104DFDC48465C
:1019D00031462A464346BDE8F09F202A04DB203AE0
:1019E00000FA02F1002070479140C2F1200320FA72
:1019F00003F3194390407047202A06DBCB17203AA7
:101A000041FA02F043EAE07306E041FA02F3D04003
:101A1000C2F1200291400843194670470029A8BF2F
:101A20007047401C490008BF20F00100704710B407
:101A3000B0FA80FC00FA0CF050EA010404BF10BCBC
:101A4000704749B1CCF1200421FA04F411FA0CF1E9
:101A500018BF012121430843A3EB0C01CB1D4FEA22
:101A600000614FEA102042BF002010BC704700EB1D
:101A7000C35010440029A4BF10BC7047401C49004B
:101A800008BF20F0010010BC704710B5141E73F1A0
:101A9000000408DA401C41F1000192185B411A432E
:101AA00001D120F0010010BD2DE9F04D92469B467A
:101AB00011B1B1FA81F202E0B0FA80F22032904620
:101AC000FFF78BFF04460F4640EA0A0041EA0B018C
:101AD00053465A46084313D0114653EA010019D021
:101AE000C8F140025046FFF731FC05460E4650460D
:101AF00059464246FFF771FF084305D0012004E034
:101B000020463946BDE8F08D0020054346EAE076E0
:101B10002C4337430A986305E40AA0EB080000222F
:101B2000FD0A44EA47540A3002D500200146E9E79D
:101B3000010510196941DDE9084500196941BDE851
:101B4000F04DA2E770B521F0004303430CD0C1F380
:101B50000A550024D5EB040564EB0403D617AD1A2F
:101B6000B34102DB0020014670BD201841EB025159
:101B700070BD2DE9F04D00231A461B1A8A4103DB84
:101B800000200146BDE8F08DC1F30A52C1F31301F4
:101B900041F480154FF0000BD10702D100186D41C0
:101BA000521E0027044640F2FF11384601EB620A3C
:101BB0003E468046024600204FF48011FFF7C6FBE8
:101BC000C2197141BB1846EB0100B4EB030C75EB75
:101BD000000C04D3E41A65EB000517460E462419E1
:101BE00008F101006D4180463428E3DDF91946EB28
:101BF0000600091BA84103D24FF0FF32134601E053
:101C0000002213461BEB070046EB0A51BDE8F04DDE
:101C1000FFF73BBFC1F30A52C1F3130140F2FF3398
:101C200041F480119A4202DA00200146704740F2E6
:101C300033439A42A2F2334202DC5242FFF786BBA0
:101C4000FFF7CBBE30B5041E71F1000404DB4FF08A
:101C50000044404264EB0101141E73F1000405DBF3
:101C60001C464FF00043524263EB0403994208BF05
:101C7000904230BD064C074D06E0E06840F001039D
:101C800094E8070098471034AC42F6D3FEF754FAB4
:101C900010930008309300080EB5C10F80EAE07081
:101CA0000844CA07002140F233438DE80E000A467B
:101CB0000B46FFF7F9FE03B000BD70B5C1F30A5241
:101CC00001F000450024C1F3130140F2FF3341F459
:101CD00080119A4201DA002070BD40F233439A42EB
:101CE000A2F2334203DC5242FFF730FB00E09040A7
:101CF0002C43F1D0404270BD70B58D1810F8014BE7
:101D000014F0030201D110F8012B231106D110F8B1
:101D1000013B03E010F8016B01F8016B521EF9D191
:101D2000ABB110F8012B04F00C048A1A0C2C03D070
:101D3000A2EB84129B1C08E010F8014BA2EB0422DA
:101D4000F8E712F8014B01F8014B5B1EF9D5A942E7
:101D5000D4D3002070BD000010B5024800F07AFA1C
:101D600010BD0000C820002070B504460025206882
:101D7000806800F00100F0B12068806820F0010068
:101D80002168886000F0E8FD05460EE000F0E4FD03
:101D9000401B022809D9A06A40F01000A062E06A46
:101DA00040F00100E062012070BD2068806800F012
:101DB00001000028EAD10020F6E7000038B504460B
:101DC0000025002000902068806800F0010080BBA2
:101DD0002068806840F0010021688860164800682B
:101DE0001649B0FBF1F0009002E00098401E009010
:101DF00000980028F9D100F0AFFD054613E000F08F
:101E0000ABFD401B02280ED9A06A40F01000A06272
:101E1000E06A40F00100E06200BF002084F8240086
:101E200000BF012038BD2068806800F00100002854
:101E3000E5D00020F6E700000000002040420F003F
:101E400000BFFEE710B50848084908604FF4E130CC
:101E50004860002105488160C160016181610C21F9
:101E6000416101F022FA10BD0038014044200020F9
:101E70007047000070B50446B3F5804F13D1D1E927
:101E8000000540EA05108D6840EA05208D69284369
:101E90008D8940EA054054F82250064E35402843CB
:101EA00044F8220003E06FF0704044F82200002064
:101EB00070BD00000000F0CF10B50246086852F86F
:101EC000200020F001000B6842F8230088680828F1
:101ED00022D1486840F040008B681843CB68184313
:101EE0000B6918434B6918438B691843CB69184336
:101EF0000B6A18434B6A18438B6A1843CB6A184322
:101F00000B6B18430B6852F82330144C23401843D2
:101F10000B6842F823001FE0D1E901031843CB68A6
:101F200018430B6918434B6918438B691843CB69F5
:101F300018430B6A18434B6A18438B6A1843CB6AE1
:101F400018430B6B18430B6852F82330034C2340A3
:101F500018430B6842F82300002010BD8100F7FFF2
:101F600010B50346D1E9000440EA04108C6840EA49
:101F700004208C8940EA0444088A401E44EA005444
:101F8000087D801E44EA00608C692043541C53F88D
:101F9000244004F040442043541C43F82400002013
:101FA00010BD00002DE9F04F87B0002464E03548F3
:101FB00030F824000FFA80F9324850F82400000C61
:101FC0000FFA80FA4846FFF73FFC80464FF0894100
:101FD000FFF742FA07464FF08E41FFF76FFA0546CA
:101FE0005046FFF731FC80464FF08941FFF734FA45
:101FF00007464FF08E41FFF761FA064631463046FC
:10200000FFF72AFA294601902846FFF725FA0090A3
:102010000199FFF7C9F98346FFF75EFCCDE902019C
:1020200003F004FB0022184BCDE90401FFF79DFBF0
:102030000746FFF764FC06904FF080410698FFF7D3
:102040000BFA06905CB94FF08E410698FFF704FA40
:102050000746FFF72DFC0D4941F824000AE04FF038
:102060008F410698FFF7F8F90746FFF721FC07496B
:1020700041F82400601C84B2B4F5007F97DB07B000
:10208000BDE8F08F6475002000009040648500205A
:102090007047000038B5024600230020009000BFC2
:1020A00092F82400012801D1022038BD012082F8D5
:1020B000240000BF4868072812D21068406B0C79D2
:1020C000641E04EB84051F24AC40A0430D796D1EF3
:1020D00005EB85050C68AC4020431468606327E07D
:1020E00048680D2812D21068006B0C79E41F04EBCD
:1020F00084051F24AC40A0430D79ED1F05EB850539
:102100000C68AC4020431468206311E01068C06A7A
:102110000C790D3C04EB84051F24AC40A0430D79E1
:102120000D3D05EB85050C68AC4020431468E0626A
:1021300008680A2812D31068C0680C780A3C04EBBF
:1021400044050724AC40A0430D780A3D05EB450546
:102150008C68AC4020431468E0600FE010680069B0
:102160000C7804EB44050724AC40A0430D7805EB44
:1021700045058C68AC40204314682061086810282D
:1021800002D00868112827D1174C1068A0421ED130
:102190001068806800F40000F0B91068806840F4AE
:1021A00000001468A0600868102815D10F48006866
:1021B0000F4CB0FBF4F000EB80004000009002E018
:1021C0000098401E009000980028F9D104E0906A21
:1021D00040F020009062012300BF002082F824001C
:1021E00000BF184661E70000002401400000002005
:1021F00040420F0070B50446204600F027F80F4912
:1022000008600F480068B0F5806F15DA084600686E
:10221000FFF723FB06464FF08B41FFF74FF90546CA
:102220000849FFF719F906490A680968491C044B6F
:102230001960054941F8220070BD0000041000201B
:10224000F80F002033335340441000200146086843
:10225000C06C704710B504462068406800F020004C
:1022600020282FD12068006800F00200022829D120
:10227000A06A00F0100018B9A06A40F40070A062D3
:102280002068806800F46020B0F5602F13D1E0680A
:1022900088B92068406820F0200021684860A06A62
:1022A00020F48070A062A06A00F4805018B9A06A7F
:1022B00040F00100A0622046FFF79CFF6FF0120083
:1022C000216808602068406800F0800080283BD1C9
:1022D0002068006800F00400042835D1A06A00F0EE
:1022E000100018B9A06A40F40050A062206880680D
:1022F00000F4E040B0F5E04F0DD02068406800F4F5
:102300008060D0B92068806800F46020B0F5602F4C
:1023100013D1E06888B92068406820F08000216807
:102320004860A06A20F48050A062A06A00F4807027
:1023300018B9A06A40F00100A0622046FFF7A8FE8D
:102340006FF00C00216808602068406800F04000D1
:1023500040280FD12068006800F0010050B1A06A49
:1023600040F48030A062204600F0B6F86FF0010023
:102370002168086010BD00002DE9F04104460027E7
:1023800000250026A84614B90120BDE8F081A06808
:1023900010B1606900B100BFA06A30B90020E062EE
:1023A00084F82400204600F098F82046FFF7DCFC73
:1023B0000746A06A00F01000002873D1002F7ED1DC
:1023C000A06A20F4885040F00200A0623F4AD4E99D
:1023D0000001904208D1E069B0F5402F02D14FF4DE
:1023E000002002E0E06900E0E0690143E06841EAC2
:1023F00040000643A068B0F5807F02D0A0680128A5
:1024000002D14FF4807000E000200543606901288C
:1024100011D1E06838B9A069401E4FF4006141EA6B
:102420004030054307E0A06A40F02000A062E06A67
:1024300040F00100E0622068406820F469402843D1
:10244000216848602068806821490840304321683D
:102450008860A068B0F5807F02D0A068012802D112
:102460004FF4807000E00020B0F5807F03D1208A17
:10247000401E4FEA00582068C06A20F4700040EA0D
:1024800008002168C8622068806812490840B0428C
:1024900009D10020E062A06A20F0020040F00100B3
:1024A000A06211E00BE0A06A20F0020040F01000F2
:1024B000A062E06A40F00100E062012704E0A06A47
:1024C00040F01000A062012738465EE7003C014062
:1024D000FDF7E1FFFE0E1FFF7047704770B5044621
:1024E000002500BF94F82400012801D1022070BD0E
:1024F000012084F8240000BF2046FFF75FFC05465A
:10250000002D7DD1A06A40F60161884340F48070BF
:10251000A0623F492068884208D13E48006800F424
:10252000702008B9012002E0002000E0012078B10D
:10253000A06A20F48010A0622068406800F48060E7
:1025400000B3A06A20F4005040F48050A06219E06B
:10255000A06A40F48010A0622E49091F20688842BA
:1025600003D02B492068884204D12A48006800F42F
:10257000806000E0002028B1A06A20F4005040F400
:102580008050A062A06A00F4805020B1E06A20F080
:102590000600E06201E00020E06200BF002084F855
:1025A000240000BFC01E216808602068406840F019
:1025B0002000216848602068806800F46020B0F541
:1025C000602F16D112492068884208D1114800684E
:1025D00000F4702008B9012002E0002000E0012092
:1025E00038B12068806840F4A000216888600CE061
:1025F00006E02068806840F480102168886004E06C
:1026000000BF002084F8240000BF28466FE70000C8
:1026100000280140042401402DE9F8470246002427
:10262000002000258446002700237BE14FF00108AD
:1026300008FA03F4D1F8008008EA0400A0427DD132
:10264000DFF8ECA2D1F80480A8EB0A09D0453AD013
:1026500014DCB8F1030F50D009DCB8F1000F31D011
:10266000B8F1010F1CD0B8F1020F49D120E0B8F148
:10267000110F18D0B8F1120F42D11EE0B9F5881F22
:1026800025D006DCB9F5803F20D0B9F5801F37D1C1
:102690001AE0B9F5001F18D0B9F5041F30D117E0C2
:1026A000D1F80CC02DE0D1F80C8008F1040C28E022
:1026B000D1F80C8008F1080C23E0D1F80C8008F167
:1026C0000C0C1EE000BF00BF00BF00BF00BF00BF7A
:1026D000D1F80880B8F1000F02D14FF0040C0BE0E4
:1026E000D1F80880B8F1010F03D14FF0080C146144
:1026F00002E04FF0080C546103E04FF0000C00E0E2
:1027000000BF00BFFF2801D8904601E002F1040895
:102710004646FF2802D84FEA830803E0A3F10808E1
:102720004FEA88084746D6F800804FF00F0909FAAB
:1027300007F928EA09080CFA07F900E07AE048EA04
:102740000908C6F80080D1F8048008F08058B8F174
:10275000805F6FD100BFDFF8DC81D8F8188048F0C7
:102760000108DFF8D091C9F81880C846D8F8188059
:1027700008F00108CDF8008000BF00BF4FEAB9386B
:102780004FEA930958F829504FEA83784FEA1879AD
:102790004FF00F0808FA09F825EA0805DFF89881D4
:1027A000424502D14FF0000824E0DFF89081424515
:1027B00002D14FF001081DE0DFF88481424502D1CB
:1027C0004FF0020816E0DFF87C81424502D14FF05D
:1027D00003080FE0DFF87081424502D14FF0040892
:1027E00008E0DFF86881424502D14FF0050801E0BA
:1027F0004FF006084FEA83794FEA197908FA09F889
:1028000048EA0505DFF848814FEA930948F829505E
:10281000D1F8048008F48038B8F5803F0BD1DFF898
:102820003481D8F8008048EA0008DFF82891C9F818
:1028300000800AE075E0DFF81C81D8F8008028EA03
:102840000008DFF81091C9F80080D1F8048008F47E
:102850000038B8F5003F0ED1DFF8F88008F1040821
:10286000D8F8008048EA0008DFF8E89009F1040988
:10287000C9F800800DE0DFF8DC8008F10408D8F822
:10288000008028EA0008DFF8CC9009F10409C9F8B3
:102890000080D1F8048008F48018B8F5801F0ED1AC
:1028A000DFF8B08008F10808D8F8008048EA00088E
:1028B000DFF8A09009F10809C9F800800DE0DFF801
:1028C000948008F10808D8F8008028EA0008DFF8AA
:1028D000849009F10809C9F80080D1F8048008F44F
:1028E0000018B8F5001F0ED1DFF8688008F10C0859
:1028F000D8F8008048EA0008DFF8589009F10C0980
:10290000C9F800800DE0DFF84C8008F10C08D8F819
:10291000008028EA0008DFF83C9009F10C09C9F8AA
:1029200000805B1C102BFFF481AEBDE8F88700002F
:10293000000011100010024000080140000C01408E
:10294000001001400014014000180140001C01402B
:102950000800014000040140014800687047000081
:102960000400002070B50446074800684FF47A71EF
:10297000B0FBF1F5284600F07EFC00222146501EF7
:1029800000F011F8002070BD0000002000BF00F032
:102990001F02012191404209920002F1E022C2F897
:1029A000001100BF70472DE9F05F80460D461646C6
:1029B000002701F035F9074639462A46334601F02B
:1029C0000700C0F1070ABAF1040F02D94FF0040A58
:1029D00001E0C0F1070AD14600F1040ABAF1070F7D
:1029E00002D24FF0000A01E0A0F1030AD4464FF0F2
:1029F000010A0AFA09FAAAF1010A0AEA020A0AFA1B
:102A00000CFA4FF0010B0BFA0CFBABF1010B0BEACC
:102A1000030B4AEA0B042146404601F009F9BDE8E0
:102A2000F09F0000F8B5044600260025207800F04D
:102A3000010000286BD000274348C06900F0805097
:102A400070B900BF4048C06940F080503E49C8613D
:102A50000846C06900F08050009000BF00BF012709
:102A60003A48006800F48070B0B93848006840F413
:102A7000807036490860FFF76FFF064606E0FFF7F3
:102A80006BFF801B642801D90320F8BD2F48006824
:102A900000F480700028F2D02B48006A00F44075E2
:102AA0002DB3A08800F44070A84220D02648006AC8
:102AB00020F4407501202649086000200860224863
:102AC000056205F0010090B1FFF746FF064608E0F9
:102AD000FFF742FF801B41F28831884201D9032071
:102AE000D3E71948006A00F002000028F0D0164829
:102AF000006A20F440706168084313490862012F9E
:102B000004D10846C06920F08050C86100BF207819
:102B100000F00200022807D10B48406820F4404032
:102B2000A168084308494860207800F01000102888
:102B300007D10548406820F48000616908430249D4
:102B400048600020A1E70000001002400070004033
:102B50004004424270B504460D46002662480068B3
:102B600000F00700A8420ED25F48006820F007007E
:102B700028435D4908600846006800F00700A84245
:102B800001D0012070BD207800F00200022807D19A
:102B90005648406820F0F000A16808435349486057
:102BA000207800F0010000285DD06068012806D17F
:102BB0004E48006800F4003090B90120E2E76068F8
:102BC000022806D14948006800F0007040B9012091
:102BD000D8E74648006800F0020008B90120D1E7B4
:102BE0004248406820F00300616808433F4948605C
:102BF000FFF7B2FE06466068012810D108E0FFF733
:102C0000ABFE801B41F28831884201D90320B9E72D
:102C10003648406800F00C000428F0D123E06068DA
:102C2000022810D108E0FFF797FE801B41F288319F
:102C3000884201D90320A5E72C48406800F00C0029
:102C40000828F0D10FE008E0FFF786FE801B41F274
:102C50008831884201D9032094E72448406800F075
:102C60000C000028F0D12048006800F00700A842BE
:102C70000ED91D48006820F0070028431A49086053
:102C80000846006800F00700A84201D0012079E75B
:102C9000207800F00400042807D11448406820F48C
:102CA000E060E168084311494860207800F00800BE
:102CB000082808D10D48406820F46050216940EA96
:102CC000C1000A49486000F03DF808494968C1F36D
:102CD0000311074A515CC840064908600F20FFF7FE
:102CE00041FE00204EE7000000200240001002409C
:102CF0007856000800000020014800687047000076
:102D00000000002000B5FFF7F7FF04494968C1F350
:102D10000221034A515CC84000BD0000001002407F
:102D20008856000800B5FFF7E7FF04494968C1F37A
:102D3000C221034A515CC84000BD0000001002409F
:102D400088560008F0B585B00FF2700C9CE8E010D2
:102D500001A8A0E8E0101DA52D6800950021002421
:102D60000022002300201A4D696801F00C05FDB116
:102D7000042D02D0082D1AD101E016481AE001AD49
:102D8000C1F38346AB5D01F480355DB1104D6D68D4
:102D9000C5F340451DF805400E4DB5FBF4F505FBA8
:102DA00003F202E00C4D03FB05F2104602E000BF07
:102DB000084800BF00BF05B0F0BD000002030405D5
:102DC000060708090A0B0C0D0E0F10100102000077
:102DD0000010024000127A0000093D00F8B50446D8
:102DE0000025207800F00100002878D0F8484068DD
:102DF00000F00C0004280CD0F548406800F00C00EE
:102E0000082811D1F248406800F48030B0F5803FC6
:102E10000AD1EF48006800F4003000285FD06068F5
:102E200000285CD10120F8BD00BF6068B0F5803F8C
:102E300006D1E748006840F48030E549086028E0A2
:102E4000606858B9E248006820F48030E0490860C2
:102E50000846006820F4802008601AE06068B0F539
:102E6000A02F0BD1DA48006840F48020D8490860D0
:102E70000846006840F4803008600AE0D4480068E2
:102E800020F48030D24908600846006820F4802091
:102E9000086000BF606888B1FFF75EFD054606E088
:102EA000FFF75AFD401B642801D90320BBE7C8483F
:102EB000006800F400300028F2D010E0FFF74CFD6D
:102EC000054606E0FFF748FD401B642801D90320B2
:102ED000A9E7BF48006800F400300028F2D120784C
:102EE00000F00200022857D1B948406800F00C00F9
:102EF00050B1B748406800F00C00082818D1B44819
:102F0000406800F4803098B9B148006800F00200D1
:102F100020B12069012801D0012084E7AC48006875
:102F200020F0F800616940EAC100A949086033E077
:102F30002069E8B10120A7490860FFF70DFD0546AB
:102F400006E0FFF709FD401B022801D903206AE7CC
:102F50009F48006800F002000028F2D09C480068FA
:102F600020F0F800616940EAC1009949086013E067
:102F7000002098490860FFF7EFFC054606E0FFF7E0
:102F8000EBFC401B022801D903204CE79048006865
:102F900000F002000028F2D1207800F00800082894
:102FA0002DD1A069B8B101208B490860FFF7D4FC8E
:102FB000054606E0FFF7D0FC401B022801D903209C
:102FC00031E78348406A00F002000028F2D0012077
:102FD00000F044FE13E000207F490860FFF7BCFCCE
:102FE000054606E0FFF7B8FC401B022801D9032084
:102FF00019E77748406A00F002000028F2D12078F3
:1030000000F00400042873D100267148C06900F064
:10301000805070B900BF6E48C06940F080506C4964
:10302000C8610846C06900F08050009000BF00BF32
:1030300001266A48006800F48070B0B967480068EB
:1030400040F4807065490860FFF786FC054606E09D
:10305000FFF782FC401B642801D90320E3E65F48A8
:10306000006800F480700028F2D000BFE0680128FA
:1030700006D15748006A40F001005549086227E030
:10308000E06858B95248006A20F0010050490862CF
:103090000846006A20F00400086219E0E06805288C
:1030A0000BD14B48006A40F00400494908620846C9
:1030B000006A40F0010008620AE04548006A20F01A
:1030C0000100434908620846006A20F004000862D3
:1030D00000BFE068A0B1FFF73FFC054609E0FFF73D
:1030E0003BFC401B41F28831884202D903209AE61A
:1030F00022E03748006A00F002000028EFD012E01A
:10310000FFF72AFC054608E0FFF726FC401B41F2CA
:103110008831884201D9032085E62D48006A00F0F5
:1031200002000028F0D1012E05D12948C06920F005
:1031300080502749C86100BFE069C8B3244840688F
:1031400000F00C00082860D0E069022848D1002077
:1031500020490866FFF700FC054606E0FFF7FCFB88
:10316000401B022801D903205DE61948006800F0E1
:1031700000700028F2D1206AB0F5803F07D11448D2
:10318000406820F40030A168084311494860D4E940
:10319000080108430E49496821F4741108430C4999
:1031A000486001200B490866FFF7D6FB054607E09B
:1031B0002DE0FFF7D1FB401B022801D9032032E6A6
:1031C0000348006800F000700028F2D01FE0000003
:1031D0000010024000004242800442420070004061
:1031E00000200C490866FFF7B7FB054606E0FFF72D
:1031F000B3FB401B022801D9032014E606480068EF
:1032000000F000700028F2D101E001200BE6002060
:1032100009E60000000042420010024070B504467A
:103220000E4615460CB9012070BD94F83D0028B932
:10323000002084F83C00204600F01CF804F108014E
:103240002068FEF739FE3146A2682068FEF788FE46
:103250002946236BD4E90102FEF70CFEA168206821
:1032600050F8210040F00100A268216841F82200D6
:103270000020D9E7704770B504462546681EB0F1B6
:10328000807F01D301200FE0681E4FF0E0214861EC
:103290000F214FF0FF3000F0CBFC00204FF0E02179
:1032A000886107200861002070BD10B504460CB984
:1032B000012010BDA06900B100E000BF94F8390002
:1032C00028B9002084F83800204600F027F8242090
:1032D00084F839002068C06820F400502168C86074
:1032E000204600F0A7FD2068006920F49040216886
:1032F00008612068406920F02A0021684861206840
:10330000C06840F400502168C8600020E0632020BD
:1033100084F8390084F83A000020CAE710B586B076
:10332000044600BF1E48806940F480401C49886103
:103330000846806900F48040019000BF00BF00BFD4
:103340000846806940F0040088610846806900F002
:103350000400019000BF00BF00BF0846806940F034
:10336000040088610846806900F00400019000BFF5
:1033700000BF481502900220039001200490032012
:10338000059002A90748FFF747F94FF480600290C3
:103390000020039002A90348FFF73EF906B010BDD4
:1033A00000100240000801402DE9F34F85B08A4625
:1033B0005046FEF749FA04900598FEF745FA029048
:1033C000104801684FF08040FEF746F801900299DE
:1033D000FEF742F803900499FEF770F88346FEF773
:1033E0007BFA064601F0B4FD04460022064BFEF7C8
:1033F0004AF980460022044BFEF742F907B0BDE8C7
:10340000F08F0000381000200000E03F00BFFEE712
:1034100020B14FF08051044A116003E04FF4805115
:10342000014A116070470000101401402DE9F0417D
:1034300006460F4614461D462B4622463946304660
:1034400000F0FCF904FB05F00249098800F016F9C8
:10345000BDE8F0813210002001B502E00098401E66
:10346000009000980028F9D108BD00002DE9F05F18
:10347000804689461646A6F120001FFA80FA1E49AA
:10348000096889881C4A1268D28801FB02F0C117BA
:1034900000EB5171C1F3C7071748006800680AFBC9
:1034A000070B15480068C38813480068828849469E
:1034B000404600F0C3F92C2000F042FB002416E047
:1034C000002510E01BF8040080212941084020B1AC
:1034D0000A48008800F038FB03E00948008800F043
:1034E00033FB681CC5B2082DECDB601CC4B2BC42C7
:1034F000E6DBBDE8F09F00002C100020301000201B
:103500003210002070B504460D46002624E03046F7
:10351000134909688988084412490988884205DDE9
:1035200000260F480068C088204484B220460C4919
:103530000968C98808440C490988884201DD0026C9
:1035400000242A7821463046FFF790FF6D1C04487E
:1035500000688088304486B228780028D7D170BDB2
:103560002C10002024100020261000202DE9FF4FF1
:1035700083B081464FF0000AD3460598A0EB0905B9
:1035800004990698461ACDF8049004980090002DEE
:1035900001DD012705E00DB9002702E04FF0FF37FC
:1035A0006D42002E02DD4FF0010806E016B94FF023
:1035B000000802E04FF0FF387642B54201DD2C46AC
:1035C00000E034460020029019E0DDE9001000F030
:1035D0009BFAAA44B344A24505DDAAEB040A01986C
:1035E000384480B20190A34505DDABEB040B009895
:1035F000404480B200900298401C80B20290611C4E
:1036000002988842E1DD07B0BDE8F08F10B54FF0B9
:103610002040174908601748486000201649086094
:103620004860082088600020C860086148614FF049
:103630008050886100200E49886000210C48C160DC
:10364000082101611021416100218161C161416254
:103650004FF4805181620021C16201634163816343
:1036600000F01CF8044A11460148FFF7D7FD10BDD1
:1036700004210020040100A04821002070B5044668
:103680000D4600262C2000F05BFA00BF03E0284620
:1036900000F05AFA761CA642F9D370BD00B585B089
:1036A00000BF2B48806940F0200029498861084606
:1036B000806900F02000009000BF00BF00BF0846F6
:1036C000806940F0400088610846806900F0400051
:1036D000009000BF00BF00BF0846806940F0800036
:1036E00088610846806900F08000009000BF00BF3C
:1036F00000BF0846406940F4807048610846406950
:1037000000F48070009000BF00BF01200290039081
:10371000032004908814019001A90E48FEF77CFF55
:103720000220019001A90C48FEF776FF02200290CA
:103730004CF6B370019001A90648FEF76DFF4FF6F5
:103740008070019001A90448FEF766FF05B000BD36
:1037500000100240001401400018014010B504465A
:10376000072C00DD10BD28480470204604EBD07102
:103770004910A4EB410139B9F020244908804FF4E5
:10378000A0702349088006E04FF4A0701F4908800C
:10379000F0201F490880362000F0D2F9082141EAC4
:1037A000441000F0D1F92A2000F0CAF9002000F0FE
:1037B000CBF9002000F0C8F914490988491EC1F36B
:1037C000072000F0C1F911490978491EC8B200F07C
:1037D000BBF92B2000F0B4F9002000F0B5F900206F
:1037E00000F0B2F90A490988491EC1F3072000F028
:1037F000ABF907490978491EC8B200F0A5F92C2099
:1038000000F09EF900BFADE7281000202410002032
:103810002610002010B5FFF741FFFFF7F7FE01204B
:10382000FFF7F6FD00F052F900F038F80248007892
:10383000FFF794FF10BD0000281000202DE9F04193
:1038400004460D4616461F462A2000F079F920123C
:1038500000F07AF9E0B200F077F9A119491EC1F33E
:103860000F2000F071F9A119491EC8B200F06CF9DF
:103870002B2000F065F9281200F066F9E8B200F09C
:1038800063F9E919491EC1F30F2000F05DF9E91948
:10389000491EC8B200F058F9BDE8F08110B5CF203C
:1038A00000F04EF9002000F04FF9812000F04CF9B3
:1038B000302000F049F9ED2000F042F9642000F0DA
:1038C00043F9032000F040F9122000F03DF9812077
:1038D00000F03AF9E82000F033F9852000F034F9DF
:1038E000102000F031F9782000F02EF9CB2000F004
:1038F00027F9392000F028F92C2000F025F90020C4
:1039000000F022F9342000F01FF9022000F01CF929
:10391000F72000F015F9202000F016F9EA2000F059
:103920000FF9002000F010F9002000F00DF9B1208F
:1039300000F006F9002000F007F91B2000F004F960
:10394000B62000F0FDF80A2000F0FEF8A22000F0FA
:10395000FBF8C02000F0F4F8352000F0F5F8C120A5
:1039600000F0EEF8112000F0EFF8C52000F0E8F8C4
:10397000452000F0E9F8452000F0E6F8C72000F007
:10398000DFF8A22000F0E0F8F22000F0D9F80020E3
:1039900000F0DAF8262000F0D3F8012000F0D4F887
:1039A000E02000F0CDF80F2000F0CEF8262000F047
:1039B000CBF8242000F0C8F80B2000F0C5F80E204A
:1039C00000F0C2F8092000F0BFF8542000F0BCF865
:1039D000A82000F0B9F8462000F0B6F80C2000F05E
:1039E000B3F8172000F0B0F8092000F0ADF80F2070
:1039F00000F0AAF8072000F0A7F8002000F0A4F8D3
:103A0000E12000F09DF8002000F09EF8192000F061
:103A10009BF81B2000F098F8042000F095F8102087
:103A200000F092F8072000F08FF82A2000F08CF8C0
:103A3000472000F089F8392000F086F8032000F0D4
:103A400083F8062000F080F8062000F07DF8302092
:103A500000F07AF8382000F077F80F2000F074F8C2
:103A6000362000F06DF8C82000F06EF82A2000F033
:103A700067F8002000F068F8002000F065F80020EA
:103A800000F062F8EF2000F05FF82B2000F058F80B
:103A9000002000F059F8002000F056F8012000F056
:103AA00053F83F2000F050F83A2000F049F8552034
:103AB00000F04AF8112000F043F80348FFF7CCFC6F
:103AC000292000F03DF810BDFCBF020010B54FF4F6
:103AD00000300749086040F6FF20FFF7BDFC0220D8
:103AE0000349086040F6FF20FFF7B6FC10BD000058
:103AF0001018014070B504460D4601231A462946A8
:103B00002046FFF79BFE70BD70B505460C46094880
:103B1000008885420CDA08480088844208DA214689
:103B20002846FFF7E7FF054801880120FFF7A6FDBB
:103B300070BD00002410002026100020301000204E
:103B40004FF0C0410880704701490880704700006D
:103B50000000026001480068704700002C1000203F
:103B600001490860704700002C10002001490880BE
:103B7000704700003010002000B585B000BF244819
:103B8000806940F00800224988610846806900F099
:103B90000800009000BF00BF00BF0846806940F0E9
:103BA000080088610846806900F00800009000BFA6
:103BB00000BF00BF0846806940F0080088610846E1
:103BC000806900F00800009000BF00BF2020019035
:103BD0000120029003900320049001A90D48FEF7F4
:103BE0001BFD0120019001A90A48FEF715FD0220E6
:103BF000019001A90748FEF70FFD2020054910316B
:103C00000860012008600220086005B000BD0000C7
:103C100000100240000C014000BFFEE770470000AA
:103C200002480068C0F30220704700000CED00E07D
:103C300010B5002807DA0A07140E054A00F00F0332
:103C40001B1FD45403E00A07130E024A135410BD7D
:103C500018ED00E000E400E07047000008B50849F6
:103C60000968C9084FF47A72B1FBF2F1414300913F
:103C700000BF00BF00994A1E00920029F9D108BD7B
:103C80000000002000B585B000BF1348806940F4F3
:103C90000070114988610846806900F40070009046
:103CA00000BF00BF00BF0846806940F01000886177
:103CB0000846806900F01000009000BF00BF04209B
:103CC0000190032002900020039001A90348FEF711
:103CD000A3FC05B000BD0000001002400010014030
:103CE00000B587B0022001908003039001A8FEF781
:103CF00099FE1148114908600020486000210F48D2
:103D000081600121C16001610021416181614FF445
:103D10006021C161FEF730FB0C20094908600120D9
:103D20004860052088600548FEF7B4F90348FEF7AF
:103D3000D5FB07B000BD000000240140C8200020D2
:103D4000F820002010B5002211461220FEF72BFEAD
:103D50001220FEF71BFE10BD10B5FFF793FFFFF713
:103D6000BFFFFFF7EFFF10BD70470000024800687B
:103D7000401C0149086070470010002000B58FB05A
:103D800014210AA8FDF7F9FA28216846FDF7F5FA8B
:103D90000120009000040190002002900220079072
:103DA000C10308914FF4E01109916846FFF716F836
:103DB00008B100BFFEE70F200A9002200B90002000
:103DC0000C900E904FF480600D9002210AA8FEF72F
:103DD000C1FE08B100BFFEE70FB000BD114800688A
:103DE00040F001000F490860084640680E4908404D
:103DF0000C494860084600680C49084009490860B9
:103E00000846006820F4802008600846406820F4D6
:103E1000FE0048604FF41F008860C8030449086032
:103E200070470000001002400000FFF8FFFFF6FEA0
:103E300008ED00E02DE9F041044600252068006906
:103E400020F44050E1680843216808612169A068B6
:103E500008436169084305432068C06841F20C616A
:103E6000884328432168C8602068406920F4407076
:103E7000A1690843216848615F49206888425CD194
:103E8000FEF750FF00EBC00101EB001061688900F4
:103E9000B0FBF1F6FEF746FF00EBC00101EB0010AE
:103EA00061688900B0FBF1F06421B0FBF1F000EB38
:103EB000C00101EB0010A6EB8000322101EB0010E5
:103EC0006421B0FBF1F000F0F006FEF72BFF00EBF1
:103ED000C00101EB001061688900B0FBF1F06421C2
:103EE000B0FBF1F006EB0016FEF71CFF00EBC00183
:103EF00001EB001061688900B0FBF1F7FEF712FFDB
:103F000000EBC00101EB001061688900B0FBF1F02B
:103F10006421B0FBF1F000EBC00101EB0010A7EB56
:103F20008000322101EB00106421B0FBF1F000F0C1
:103F30000F003044216888605BE0FEF7E3FE00EB91
:103F4000C00101EB001061688900B0FBF1F6FEF7DB
:103F5000D9FE00EBC00101EB001061688900B0FBE5
:103F6000F1F06421B0FBF1F000EBC00101EB0010B7
:103F7000A6EB8000322101EB00106421B0FBF1F0D0
:103F800000F0F006FEF7BEFE00EBC00101EB0010F2
:103F900061688900B0FBF1F06421B0FBF1F006EB41
:103FA0000016FEF7AFFE00EBC00101EB00106168E8
:103FB0008900B0FBF1F7FEF7A5FE00EBC00101EBB5
:103FC000001061688900B0FBF1F06421B0FBF1F0F2
:103FD00000EBC00101EB0010A7EB8000322101EBE8
:103FE00000106421B0FBF1F000F00F0030442168B4
:103FF0008860BDE8F08100000038014000BFFEE7A6
:104000000FB4084B10B504A902AA039800F018FCDD
:10401000044602A9002000F096FF204610BC5DF87F
:1040200014FB0000474F0008490050EAC12018BFA8
:1040300004204A0D18BF40F0010040F2FF72B2EBBD
:10404000515F08BF40F00200012808BF05207047FB
:104050002DE9F74F144694B00021C4E902111599D7
:10406000079121F00045C9498D4206DC1599C4E944
:10407000000117B00020BDE8F08FC549DFF814A398
:10408000A9423CDD0799C44E0029C44FC44A159982
:10409000534619DDFDF7F1FA554506D0C14AC24B2A
:1040A000FDF7EBFAC4E900010AE04FF0D352BE4B32
:1040B000FDF7E3FA32463B46FDF7DFFAC4E90001BB
:1040C00017B00120BDE8F08FFDF736FA554506D050
:1040D000B44AB54BFDF730FAC4E900010AE04FF0ED
:1040E000D352B14BFDF728FA32463B46FDF724FA8E
:1040F000C4E9000117B04FF0FF30BDE8F08FAB49C5
:10410000A942159978DB21F0004183468846A84AE8
:10411000A84BFDF7B8FA0022A74BFDF70DFAFDF703
:10412000CCFD0990FDF7B8FD06460F469C4A534664
:10413000FDF7A9FA43465A46FDF7A2FA80468A4699
:10414000984A994B30463946FDF79DFA2A0D0125CC
:104150000B9242465346FDF793FA032DC4E9000142
:1041600039D00B98C1F30A51401A05EB45111139AA
:10417000814230DA9148C346784400EB0510CDF80F
:104180000CA00C90D0E9002330463946FDF77BFAAD
:1041900002460B460491069058460399FDF76DFAC6
:1041A00080468A4602460B4658460399FDF765FA53
:1041B000049B069AFDF761FA83460C9803913946F1
:1041C000D0E902233046FDF75EFA5A46039BFDF71D
:1041D00054FA6D1CBDE707980028A2BF099817B0D4
:1041E000BDE8F08F616881F000416160099817B007
:1041F0004042BDE8F08FFFE784461598C1F31301F4
:10420000C0F30A50A0F2F5304FEA601800F01F0624
:10421000C6F12000139000200690079041F4801E04
:1042200005206D4676B1664A08EB00017A4452F8E3
:10423000213002EB8101B3404A68139922FA01F15F
:10424000194305E05F4908EB0002794451F8221058
:10425000A1FB0E27A1FB0C131A449A4234BF012381
:10426000002303EB070A05EB8003D3E901B70F44F2
:104270008F4234BF0121002193448B4411B19345F7
:1042800002D903E0934501D2012100E00021C3E9F6
:1042900001B7514445F82010011EA0F10100C1DC16
:1042A0000298059F00F10050800F12900298DDE9FE
:1042B00003568000FDF7F0FC834628460D91FDF77C
:1042C000D1FA6FF01D02FDF73DFCCDE90E0130463D
:1042D000FDF7C8FA6FF03D02FDF734FC80468A46D0
:1042E0003846FDF7BFFA6FF05D02FDF72BFC07467D
:1042F000424653461191FDF71FF9DDE90E23FDF704
:104300001BF95A460D9BFDF717F900250E465A4634
:1043100028460D9BFDF7B1F9DDE90E23FDF7ADF958
:1043200042465346FDF7A9F93A46119BFDF7A8F915
:10433000DFF898A0244A5346FDF7A5F907468846BA
:10434000234A244B31462846FDF79DF93A46434619
:10435000FDF7F2F8074688464FF0A842534631462B
:104360002846FDF790F93A464346FDF7E5F8159AD9
:1043700012F0004F04D0129A81F000415242129282
:10438000C4E90001129817B0BDE8F08FFB21E93FA6
:104390007CD90240FB21F93F7370032E8A19A33B9D
:1043A000000040543163621A61B4D03DFB213941B1
:1043B00083C8C96D305FE43F0000E03FA4500000B7
:1043C0002050000002500000182D4454FB21F93DFC
:1043D0003326A611460B113C2DE9FF4D21F0004874
:1043E00007460C46B8F1795F08DAFDF766FC00284D
:1043F00001BF0020324904B0BDE8F08D3A462346A3
:1044000010461946FDF73FF9054602462D480E466F
:104410000B460621784400F05DF82A463346FDF746
:1044200032F9DDE9022382468B4638462146FDF704
:104430002AF904460F4652465B4628463146FDF7A8
:1044400022F922463B46FDF718F907468A464FF007
:10445000FF3228463146FDF775FB1B4A90450ADAC4
:104460003A465346FDF709F904B00022BDE8F04D85
:10447000134BFDF705B9154A4245A8BFA8F500152D
:104480004FF00004B8BF124D22462B46FDF7F5F859
:104490000646884622462B4600200949FDF7EDF8DE
:1044A00004460D463A46534630464146FDF7E5F888
:1044B00004B022462B46BDE8F04DFDF7E1B8000000
:1044C0000000F03FD84D00003333D33F0000E93FF8
:1044D0000000D23F2DE9F0414F1E00EBC70104461A
:1044E000D1E9000115461E4637F006020DD02A46D6
:1044F0003346FDF7C8F87F1E04EBC703D3E900235A
:10450000FDF71AF837F00602F1D1022F25D0042F5B
:1045100013D0062F18BFBDE8F0812A463346FDF7B9
:10452000B2F8D4E90A23FDF707F82A463346FDF727
:10453000AAF8D4E90823FCF7FFFF2A463346FDF723
:10454000A2F8D4E90623FCF7F7FF2A463346FDF725
:104550009AF8D4E90423FCF7EFFF2A463346FDF727
:1045600092F8D4E90223FCF7E7FF2A463346FDF729
:104570008AF8D4E90023BDE8F041FCF7DDBF000074
:104580002DE9FF4D054621F0004084B00C46B0F106
:10459000795F0BDA2846FFF747FD042808BF00F0D3
:1045A0006FF8284608B02146BDE8F08D2A460B4634
:1045B0001046FDF768F806460F462A462346FDF7E3
:1045C00062F8804626488A4632463B4605217844B2
:1045D000FFF780FF83461098029160B3214A224B77
:1045E00040465146FDF74FF8CDE900015A46404696
:1045F0005146029BFDF747F882468846DDE90601F1
:104600004FF0FF32FDF79EFA52464346FDF735F86C
:1046100032463B46FDF737F8DDE90623FDF72DF876
:10462000DDE90023FDF729F808B02A462346BDE856
:10463000F04DFDF725B80B465A4630463946FDF792
:1046400022F8084A084BFCF777FF42465346FDF72D
:104650001AF808B02A462346BDE8F04DFCF76CBFB7
:10466000164D0000495555555555C5BF0122FDF75A
:1046700069BA0022134610461146FDF776B80000CD
:10468000024A00201107FDF75DBA000001FDFFFF9F
:1046900002E008C8121F08C1002AFAD1704770470B
:1046A000002001E001C1121F002AFBD17047000069
:1046B0000149086070470000401000202DE9FF5FAD
:1046C00082B00021DDE90430020DDDF840B0034383
:1046D00018D044F61050A2F2FF324243151411983C
:1046E00001281FD0A5EB0B00401C5FEA000A4FF029
:1046F00000064E4FDFF83891B046504615D5CAF146
:10470000000413E0119801244AA3012801D16FEAA3
:104710000B010298119AC0E90031C0E9024206B0CB
:10472000BDE8F09FCBF10000DFE704460021404ADE
:10473000491842EB0450CDE9001012E0E00707D021
:1047400032463B4640464946FCF79DFF8046894637
:1047500032463B4610461946FCF795FF06460F4683
:104760006410002CEAD1DDE90401DDE90023BAF18F
:10477000000F06DAFCF787FF42464B46FCF783FF43
:1047800005E0FCF7F2FF42464B46FCF7EEFF04461D
:104790000E460022284BFDF755FA03D84FF0FF30A4
:1047A000014607E00022254B20463146FCF7C4FEB7
:1047B000FDF730FA102409E0002C0ADB0A2200235E
:1047C000FDF7DAF8039B30321A55641E50EA0102F5
:1047D000F2D1641C039AC4F111031444119A012A02
:1047E00003D0012208430DD10AE0084304D0002081
:1047F0004FF0110B119072E7A3EB0B056D1E0DE04E
:104800005B4504DD4FF0000205F1010504E003DA29
:104810004FF00002A5F10105002AECD00298119991
:10482000C0E90231C0E9004579E70000000014400A
:104830000000F03F300000000000F0430000E03FC7
:104840002DE9FF4F95B09A46884606460025EEE1D1
:10485000252877D100242746F94A0121039400E056
:10486000044316F8013F203B01FA03F01042F7D150
:1048700030782A2811D06FF02F033078A0F1300261
:10488000092A16D8039A44F0020402EB820203EBD1
:1048900042021044761C0390EFE758F8042B039271
:1048A000002A03DA504244F40054039044F0020416
:1048B000761C30782E2816D116F8010F44F0040427
:1048C0002A280DD06FF02F023078A0F13003092B89
:1048D00009D807EB870302EB4303C718761CF3E7FD
:1048E00058F8047B761C30786C280FD006DC4C28F6
:1048F00017D068280DD06A2814D104E0742810D08D
:104900007A280FD10DE044F400140AE044F4801436
:1049100001E044F440147278824202D104F580141C
:10492000761C761C307866280BD013DC582877D09C
:1049300009DC002875D04528F6D04628F4D0472851
:104940001AD193E118E0632835D0642879D065281E
:1049500012D18BE1702873D008DC6728F1D0692868
:104960006FD06E280DD06F2806D1ACE073282CD004
:10497000752874D0782853D05246179990476D1CEB
:1049800054E1C4F30250022809D003280DD0D8F80E
:10499000001004280DD00D6008F1040846E1D8F895
:1049A0000010EA17C1E90052F6E7D8F800100D80B0
:1049B000F2E70D70F0E718F8041B8DF800100020E6
:1049C0008DF80100EB46012003E058F804BB4FF0DE
:1049D000FF3061074FF0000102D40DE009F1010141
:1049E0008946B9420FDA8145F8DB1BF80910002926
:1049F000F4D108E009F1010189468142FADB1BF894
:104A000009100029F6D103985346A0EB0907214667
:104A10003846179A00F080FA284400EB090507E0B1
:104A200044E008E10DE01BF8010B5246179990474E
:104A3000B9F10109F7D2534621463846179AF2E0F8
:104A400039E00A21C4F302524FF0000B0091022A10
:104A500006D058F8040BC117032A09D00AE023E056
:104A600008F1070020F00702F2E80201904605E095
:104A700000B2C117042A01D140B2C117002906DAD9
:104A80000A460021404261EB02012D2202E022058C
:104A900004D52B228DF80420012203E0E20701D087
:104AA0002022F7E7914657E00A2100E010214FF05D
:104AB000000B00910BE010214FF0000B44F00404B8
:104AC0000827009103E008204FF0000B0090C4F38A
:104AD0000252022A05D058F8040B0021032A08D0FC
:104AE00008E008F1070020F00702F2E80201904612
:104AF00003E080B2042A00D1C0B24FF000092207BF
:104B00002AD53278702A07D0DDF800C08CF0100C5E
:104B10005CEA0B0C05D00EE040228DF80420012247
:104B200008E050EA010306D030238DF804308DF8F8
:104B3000052002229146009B83F0080353EA0B03F1
:104B40000AD150EA010201D1620705D530228DF861
:104B500004204FF001097F1E3278582A04D039A270
:104B60000C920CAA02920BE03BA2F9E75B46009A7A
:104B7000FCF702FF0C9B9B5C029A521E0292137080
:104B800050EA0102F2D1029804A9081A00F1200BA0
:104B9000600702D524F4803400E001275F4502DD80
:104BA000A7EB0B0000E0002000EB0B010090039846
:104BB0004944401A0390E00306D453462146179A0D
:104BC000039800F0A9F90544002706E001A8524621
:104BD000C05D179990476D1C7F1C4F45F6DBE003C5
:104BE0000CD553462146179A039800F095F90544D1
:104BF00004E030205246179990476D1C0099481EDA
:104C000000900029F5DC08E00298029952460078ED
:104C1000491C0291179990476D1CBBF10001ABF143
:104C2000010BF1DC5BE100F065F90544761C30789E
:104C300000287FF40DAE19B02846BDE8F08F0000C3
:104C40000928010030313233343536373839616262
:104C50006364656600000000303132333435363726
:104C6000383941424344454600000000600700D403
:104C7000062708F1070020F00700F0E8022380462D
:104C800003F0004C5FEA0C0001D097A009E020057A
:104C900001D596A005E0E00701D095A001E0AFF2B4
:104CA0004C001390307823F0004365280CD006DCCC
:104CB000452809D046281DD047287FD13BE06628EB
:104CC00018D067287AD136E00021112F01DB11209E
:104CD00000E0781CCDE9000104A90CA8FFF7EEFC68
:104CE000DDE90D010C9A4FF0000B07F1010910925C
:104CF00000914EE04FF000400097CDE9011004A96B
:104D00000CA8FFF7DBFCDDE90D020C9B0F994FF0BF
:104D1000000B91461093009211B9791C00EB010928
:104D2000B7EB090003D4C0F1FF3B07F10109A9EB80
:104D30000700019042E0012F00DA01270021112F26
:104D400001DD112000E03846CDE9000104A90CA8DE
:104D5000FFF7B4FCDDE90D010C9A00914FF0000B58
:104D6000B946109221070FD4009A4A4503DA9146BA
:104D700001E0A9F10109B9F1010F05DD109AA9F1CE
:104D80000101515C3029F4D0B84202DA10F1040F6D
:104D900003DA0121CDE9011010E0002803DC83448F
:104DA000A9EB000102E0411C494500DD8946A0EB6A
:104DB0000B00401C01904FF000400290200705D4EA
:104DC0000198484502DB4FF0FF30019000208DF83C
:104DD0004B0002980DF14B07B0F1004F25D0022097
:104DE0000C902B200D90029800280CDA4042029083
:104DF0002D200D9007E00A210298FCF7A7FD303125
:104E0000029007F8011D0C99481E0C900029F2DC55
:104E100002980028EFD1791E0D980870307800F0C4
:104E2000200040F0450007F8020D11A8C01BC01D6E
:104E300002901398007800B1012000EB090101985D
:104E400001EBE071029801440398401A401E039060
:104E5000E00306D453462146179A039800F05CF805
:104E600005441398007818B15246179990476D1C65
:104E7000E00323D553462146179A039800F04CF8D7
:104E800005441BE0BBF1000F07DB0098584504DD2B
:104E90001098179910F80B0001E01799302052462E
:104EA000904701980BF1010B401E05F1010501909F
:104EB00004D12E205246179990476D1CB9F100017C
:104EC000A9F10109DEDC05E017F8010B524617993C
:104ED00090476D1C0299481E02900029F4DC53464D
:104EE0002146179A03989EE62D0000002B00000033
:104EF000200000002DE9F041044600251E4617461B
:104F0000880404D405E039462020B0476D1C641E97
:104F1000F9D52846BDE8F0812DE9F0410446002589
:104F20001E469046C80301D5302700E0202788049C
:104F300004D505E041463846B0476D1C641EF9D5DE
:104F40002846BDE8F0810A68531C0B60107070475A
:104F500000B5244B21F0004287B09A42DCBF00220A
:104F6000134629DD204B9A4208D140B94FF0010089
:104F7000FFF79EFBFFF77DFB07B000BD03DBFFF7EC
:104F800075FB07B000BD02AAFFF762F810F003013D
:104F900004BF0DF1080C9CE80F000DD00120012981
:104FA0000ED0022914D00DF1080C00909CE80F00DF
:104FB000FFF7E6FA07B000BDFFF70EFA07B000BD35
:104FC0000DF1080C00909CE80F00FFF7D9FA05E0FE
:104FD0000DF1080C9CE80F00FFF7FEF907B081F017
:104FE000004100BDFB21E93F0000F07F70B50024C7
:104FF000002500BF09E0084850F82400322803D8F3
:105000000020054941F82400641CB4F5007FF2D368
:10501000014800F0C5F870BD6485002070B50546F4
:10502000002414E055F82400C0EB0010000141F208
:105030008831B0FBF1F0C0F1F00086B204F10A0152
:105040008AB288B23346F021FEF790FA641CB4F5B8
:10505000007FE7DB70BD00002DE9F04FADF2DC7D95
:105060000020CDF8D807FEF789FEFEF785FDFCF796
:10507000E9FEFEF771FEFEF7CDFB0320FEF76EFBA7
:105080003C48FEF76DFD4FF6FF70FEF76FFD3A48A6
:1050900003883A48028800210846FEF7C7F900BF96
:1050A00037480068B0F5806FFADB4FF0000A21E066
:1050B0004FF480615046FEF777F904460D463148BB
:1050C00050F82A103048FCF7C7F90190FCF704FCAF
:1050D000064622462B46FCF7D6FA8046FCF70FFC24
:1050E00083465846FCF7CBFB0004284941F82A00C8
:1050F0000AF1010ABAF5806FDADB4FF480622349C6
:105100002348FBF733F8FCF74DFF002021494860A6
:105110000846FFF783FFFFF769FF4FF47A7102A893
:10512000FCF72BF900241EE000208DF8080004EBAA
:105130008400450010E0134951F82500FCF7CCFB32
:10514000064632460B4614A1FCA8FEF759FFFCA9FF
:1051500002A8FCF71DF96D1C601C00EB8000B5EB8C
:10516000400FE8DB641C0E2CDEDB00200DF2DC7D42
:10517000BDE8F08F08100020261000202410002029
:10518000F80F00204410002000007A4464650020DD
:105190006475002064850020252E32662000000002
:1051A0002DE9F04FB5B005464FF0000AD346002078
:1051B000349033903290319030902F902E902D90EB
:1051C00000260027804681462C90012421E055F8D6
:1051D0002400FCF742FB51461190FCF7ADFB17D2BF
:1051E00055F82400FCF739FB82462646FE48006845
:1051F000FCF733FB10903046FCF726FB0F9010991C
:10520000FCF72AF94FF089411190FCF757F93190DA
:10521000641CB4F5007FDADB012433E0A64200D140
:105220002FE055F82400FCF718FB59461190FCF7C5
:1052300083FB25D255F82410601C55F820008142CC
:105240001ED955F82410601E55F82000814217D948
:1052500055F82400FCF701FB83462746E248006826
:10526000FCF7FBFA10903846FCF7EEFA0F90109915
:10527000FCF7F2F84FF089411190FCF71FF93090DC
:1052800000BF641CB4F5007FC8DB012435E0A642F2
:1052900001D0A74200D12FE055F82400FCF7DDFA39
:1052A00011903499FCF748FB25D255F82410601C66
:1052B00055F8200081421ED955F82410601E55F87B
:1052C0002000814217D955F82400FCF7C6FA349023
:1052D000A046C5480068FCF7C0FA10904046FCF7AD
:1052E000B3FA0F901099FCF7B7F84FF0894111907D
:1052F000FCF7E4F82F9000BF641CB4F5007FC6DB18
:10530000012437E0A64203D0A74201D0A04500D136
:105310002FE055F82400FCF7A0FA11903399FCF720
:105320000BFB25D255F82410601C55F82000814253
:105330001ED955F82410601E55F82000814217D957
:1053400055F82400FCF789FA3390A146A648006876
:10535000FCF783FA10904846FCF776FA0F90109904
:10536000FCF77AF84FF089411190FCF7A7F82E90DE
:1053700000BF641CB4F5007FC4DB012439E0A64201
:1053800005D0A74203D0A04501D0A14500D12FE010
:1053900055F82400FCF761FA11903299FCF7CCFA29
:1053A00025D255F82410601C55F8200081421ED9E2
:1053B00055F82410601E55F82000814217D955F881
:1053C0002400FCF74AFA32902C9487480068FCF7D6
:1053D00044FA10902C98FCF737FA0F901099FCF7CC
:1053E0003BF84FF089411190FCF768F82D9000BF11
:1053F000641CB4F5007FC2DBFEF7ACFBC0887BA168
:105400001190FEF77FF85046FCF766FACDE91001DF
:105410003198FCF761FACDE90E01DDE91001CDE923
:105420000201DDE90E013246CDE9000172A113A8A7
:10543000FEF7E6FDFEF78EFBC0884004000C13A9C2
:105440001190FEF75FF85846FCF746FACDE91001D7
:105450003098FCF741FACDE90E01DDE91001CDE904
:105460000201DDE90E013A46CDE9000162A113A86F
:10547000FEF7C6FDFEF76EFBC08800EB400080B271
:1054800013A91190FEF73EF83498FCF725FACDE900
:1054900010012F98FCF720FACDE90E01DDE910018B
:1054A000CDE90201DDE90E014246CDE9000152A13C
:1054B00013A8FEF7A5FDFEF74DFBC0888004000C85
:1054C00013A91190FEF71EF83398FCF705FACDE901
:1054D00010012E98FCF700FACDE90E01DDE910016C
:1054E000CDE90201DDE90E014A46CDE9000142A104
:1054F00013A8FEF785FDFEF72DFBC08800EB8000AA
:1055000080B213A91190FDF7FDFF3298FCF7E4F982
:10551000CDE910012D98FCF7DFF9CDE90E01DDE9A9
:105520001001CDE90201DDE90E01CDE9000132A152
:1055300013A82C9AFEF764FDFEF70CFBC08800EB65
:1055400040004004000C13A91190FDF7DBFF50460A
:10555000FCF7C2F9CDE90C0132990846FBF77CFF54
:10556000069033990846FBF777FF04903499084674
:10557000FBF772FF594602905846FBF76DFF01900A
:105580000299FBF711FF03900499FBF70DFF0590BB
:105590000699FBF709FF0790FCF79EF9CDE9080192
:1055A00000F044F8CDE90A01DDE90C23FCF7DDF851
:1055B0000022154BCDE90E01FCF765F8CDE910018D
:1055C000FCF79DF912901298FCF786F902460B46FB
:1055D000CDE910010DA113A8FEF712FDFEF7BAFAEE
:1055E000C088C0EBC00019E03C1000204620203AE3
:1055F00020202056000000002564203A20252E326D
:10560000662C252E32660000000059405448442084
:105610003D20252E326625250000000080B213A90A
:105620001190FDF76FFF35B0BDE8F08F2DE9F04127
:1056300006460F46FCF79DFA041E0D4618BF0120D2
:10564000284320F00040C0F17F6000F1E040C00F2F
:105650000ED0301C18BF0120384320F00040C0F1AC
:105660007F6000F1E040C00F04BF0120FFF720F889
:1056700020462946BDE8F08100000000000000003F
:1056800001020304060708090000000001020304E8
:10569000000000000000000000000000000000000A
:1056A0000000001818181818180800081800000042
:1056B000000000342424240000000000000000004A
:1056C0000000000016247F2424247E2424000000EF
:1056D000000000083E6848681C1612127C1010007A
:1056E00000000061D296740810162949C600000017
:1056F000000000003C646438724ACE467F0000001F
:105700000000001818181800000000000000000039
:1057100000000004081810303030301010180C044D
:10572000000000201008080C0404040C08181020C5
:10573000000000080A341C6A080000000000000095
:105740000000000000001818187F1818180000004A
:1057500000000000000000000000001818083000E1
:105760000000000000000000003C000000000000FD
:1057700000000000000000000000001818000000F9
:105780000000000206040C08081010202040000051
:10579000000000003C6642475B7342663C0000002C
:1057A0000000000018784808080808087E0000007B
:1057B000000000003C460606040810207E000000A1
:1057C000000000007C0606043C0202067C0000008B
:1057D000000000000C1C14246444FF0404000000BA
:1057E000000000007E6060607E0202067C00000017
:1057F000000000001E306048764242623C0000001B
:10580000000000007E0206040C08181030000000A2
:10581000000000003C6242361C6642423C00000030
:10582000000000003C664242661A02047800000054
:105830000000000000001818000000181800000008
:1058400000000000000018180000001818083000C0
:1058500000000000000004183060100C060000007A
:1058600000000000000000007E007E00000000003C
:10587000000000000000301804060C10200000009A
:10588000000000301C060606181000101000000072
:105890000000001C224141DDB5A5A5AF94C0403CED
:1058A00000000000181C342426627E43C100000062
:1058B000000000007C4642467C4242427C000000E0
:1058C000000000001E204040404040603E000000BC
:1058D000000000007C4642434343424678000000FB
:1058E000000000007E6060607E6060607E000000FE
:1058F000000000007E6060607E606060600000000C
:10590000000000001E604040CE4242623E000000A7
:1059100000000000424242427E42424242000000F9
:10592000000000007E181818181818187E000000D3
:10593000000000007C040404040404447800000017
:10594000000000004244485070584C44420000009F
:105950000000000020202020202020203E00000009
:10596000000000006266675F5B5BC1C1C1000000B0
:1059700000000000626272525A4A4E464600000021
:10598000000000003C6243C3C3C343623C0000000C
:10599000000000007C464242467840404000000043
:1059A000000000003C6243C3C3C343623C180F00C5
:1059B000000000007C6662667C6C64666200000029
:1059C000000000003E6040601C0602027C000000F7
:1059D000000000007F181818181818181800000088
:1059E0000000000042424242424242623C0000004B
:1059F00000000000C14342622624341C180000004D
:105A000000000000C1C141495B5B76666600000092
:105A10000000000043663418181C2466C300000010
:105A200000000000C14266341C181818180000005D
:105A3000000000007E02040C181020607E000000B0
:105A40000000001C10101010101010101010101C6E
:105A5000000000402020101008080C04060200007E
:105A60000000003C0C0C0C0C0C0C0C0C0C0C0C3C3A
:105A700000000000181C246200000000000000006C
:105A8000000000000000000000000000000000FF17
:105A900000000020100000000000000000000000D6
:105AA0000000000000003C06023E42467A00000072
:105AB0000000004040405C62424242427C000000E4
:105AC0000000000000001E20604060203E0000003A
:105AD0000000000202023E62424242663A000000BA
